:2000000000400020ADF6000001C9011001C9011001C9011001C9011001C9011001C90110BB
:1C00200001C9011001C9011001C9011001C9011001C9011001C901103FC9011089
:20003C002DE9F04FD04C04F118012046ADF1340D0EF022FFD24D002604F1A40A4FF6FF7025
:20005C000123667032462082294650460FF0A2F9CC480223324629460FF09CF9CF480423DF
:20007C00324629460FF096F904F14408042010223146A07040460CF066FF04F15409102266
:20009C00484631460CF05FFF04F11C073E6004F10A052E7007206072DFF80CB3E671022283
:2000BC002672594610200346CDF8008004F04CFB102003225946CDF80090034604F044FB2F
:2000DC000422102059460097134604F03DFB4FF0080A4FF003094FF0010B05F12A00079055
:2000FC0005F17900089005F11E00099005F15A000A9024350B9517E06078A28FE18FB4F831
:20011C004050B4F8423006280ED1ADF80A20ADF80C10ADF80E509B48ADF8103000F038FA8B
:20013C00584602A90AF00AFBA069B64A31464FF0FF3300F031FA071CF6D0059606A80DF11F
:20015C001A0105AA10F05EFC002840F0C181BDF818102078102940F0B7819DF81A10884226
:20017C0040F0B281059D29884FF6FF728A4200F0A0812B78A23B00F083812E3B40F0A481E8
:20019C00A978B046002900F03F81891E00F00E81491E012940F2D680891E00F09A80491EFC
:2001BC006ED0491E5BD0083900F05A81891E40F05D8194F83A10A8880529ADF8080046D09B
:2001DC0070488DF812B000F0E3F994F83A0001281ED004281CD003280DD002280BD0059899
:2001FC00C188ADF80A100189ADF80C104189ADF80E10818927E0A18FE08FADF80A10B4F8E8
:20021C004020ADF80C00B4F84210ADF80E201AE0A08FE9888842D8BF081CADF80A00298960
:20023C00E08F8842D8BF081CADF80C006989B4F840008842D8BF081CADF80E00A989B4F809
:20025C004200884200DC0846ADF8100001E08DF81260AB49102002AA04F076FA06E14F480D
:20027C0000F096F96B78002B40F00081E88860822889A0826889E082424812F06FF8F5E0E4
:20029C00AA88B649102004F05FFA0798414606220CF059FE6682A682E682A8792073394846
:2002BC0000F076F93D4800F073F9D8464FF6FF702379208253B9A879082814BF0420052059
:2002DC006070A069594600F06BF9CFE084F80190CCE06B787BBB291D0A68079802608988EB
:2002FC0081800623637068892082E8896082288AA082688A94F83A10E082E8780129E07225
:20031C0018BF02290BD19B4910201F2204F01CFA4FF47A7180B241431A4810F031F8688924
:20033C000423009092490193EA7810202D1D2B4604F00AFA9DE06878312840F08E80E670EC
:20035C0004202EE06B78002B40F08780A878E1896278032818D0E078257939B9012814BFAF
:20037C002671E67008E0C046CC0E0020054303D0814810F005F86278072AE1D1062010E0D8
:20039C00D9230100940F0020062A09D0E578002D08BF84F801906CD0022002E0B80F0020F3
:2003BC000720607065E0C046ED1A01006B78002B53D1EB7861789BB902291ED007291CD0E0
:2003DC00062902D12079012817D1032915D06A4811F0C4FF88B9A069594600F0E1F80CE030
:2003FC0010F0AEFD0246A07960490090089843460190102004F0A8F968706D78002D2CD136
:20041C0034E0C046070000806B7833BB5B485649009002221020034604F096F958484A462C
:20043C00514900901020034604F08EF9ED1C296809980160A9888180207884F801B010F0EF
:20045C007FFD02465B460A9D6079484900901020019504F079F9C0B258B184F801A008E0CE
:20047C00AA8840491020052304F06EF9B8F1010F2AD1256A45B3296831B36078884723E098
:20049C006879132820D12889012808D1607B022805D13E4800F07CF810F018FB14E0354936
:2004BC001020052204F050F981B238480FF068FF0AE06888C00B07D3324804222A49009051
:2004DC001346102004F040F9059808B112F078F92579E07879082ED355EA00032BD0204666
:2004FC0000787DB9E279217A8DF808200B9D8DF809102B680DF10A010B60AA888A8003E023
:20051C00051601108DF80890627A8DF81020A17A8DF8111010F014FD1149024602AB102094
:20053C0004F012F938B1256A84F801A01DB1296809B150468847B80803D3134930460AF02B
:20055C00FDF8F808FFF4F0AD607B401E3FF4D4AD401E7FF4E9AD10F0B9FAE5E571D40000E4
:20057C0059440110C1170110C18A00000945011059970000F91E0100700F0020100F002038
:20059C00200F0020E80E0020060F0020B80F0020DFF800F0B9BA0110DFF800F0F99B011007
:2005BC00DFF800F055A401102DE9F84F954C2779002F00F029826078012F00F0FC81206CA5
:2005DC00022F00F0CD80032F40F02182217820690F2900F2B380DFE801F0998E836E5E4E91
:2005FC004338322C26201A140E08152100220FF08FFE002284E0152100220FF089FE002212
:20061C0073E0152100220FF083FE00222DE0152100220FF07DFE002252E0152100220FF0E7
:20063C0077FE002277E0152100220FF071FE002236E0152100220FF06BFE01220AE01521AF
:20065C0000220FF065FE00221AE0152100220FF05FFE0022206916210FF05AFE012214E0DA
:20067C00152100220FF054FE0122206916210FF04FFE002229E0152100220FF049FE01229A
:20069C00206916210FF044FE0022206917210FF03FFE01221EE0152100220FF039FE01224C
:2006BC00206916210FF034FE0022206917210FF02FFE002239E0152100220FF029FE012242
:2006DC00206916210FF024FE0122206917210FF01FFE002220690C210FF01AFE012229E002
:2006FC00152100220FF014FE0122206916210FF00FFE0122D9E7152100220FF009FE012222
:20071C00206916210FF004FE012209E0152100220FF0FEFD0122206916210FF0F9FD0022A4
:20073C00206917210FF0F4FD012220690C210FF0EFFD002220690F210FF0EAFD00252078AA
:20075C00257304F1CC01001990F85C20E06B627311F0ABFFE06AB44908F029F9E06255E162
:20077C002178AC4D01F00F0204EB820201F00F016170B2F8881100222A7011F087FF206C72
:20079C00A11D11F07EFF18B9206CE18811F07EFF00200022207204F19401E06B627211F03F
:2007BC0084FF2078401CC0B2102808BF00202070E088B0F5C87F52DB6178091991F85C1014
:2007DC00182921D0202919D02D2913D03C290DD07D2907D0C82918BFA56938D193A795A64D
:2007FC0096A514E097A799A69AA510E09BA79DA69EA50CE09FA7A1A6A2A508E0A3A7A5A6FD
:20081C00A6A504E0900B0020A6A7A8A6A9A510F068FB97E80C008846814608F048F896E8B0
:20083C000C0005F0AEFC95E80C000E4607464146484605F0A6FC0B4602463146384607F096
:20085C0078F821F000410CF08DFF0546A56128460FF092FE99A20CCA0BF0B2FF01D2994D6E
:20087C00A5619B4E37781FB9E06A10F07DF87060301D7B1C00EB87014D6013F00F070546EF
:20089C00377055D163488068002100F023F900284ED029685F48943001605E484022291DBE
:2008BC0098300AF0FBFE5B485A49E769726800784430087058A1384611F032FA4FF0640A3C
:2008DC002D1DB846102786B255F804BB58460FF06FFE7D49814658460CF0F4FA1FFA89F97F
:2008FC0083460AFB09F00FF07FFE0146584608F05CF80FF05DFE83B248A14A4608EB060067
:20091C0011F00EFA801986B27F1EDDD108EB060044A111F005FAE369184611F069FC024660
:20093C00606C194611F00CFF3A48406800F0D6F8042000210EF056F96378644E9D0028197F
:20095C00D0F8480104EB8007D7F8080131460DF081FC04F5A4720CD3D7F828010DF04AFC02
:20097C0012D25059401E5051617852F82100091904E09D0050591919401C505104EB8000A1
:20099C0090F8E80081F85C0002EB83021068062806DC00280BDC0120106094F8EC0003E001
:2009BC000620106094F800011B1983F85C006079401C607125E004EB8002A18ED2F88801EF
:2009DC0000EBD07001F47041401080B2000541EA1051A186D2F8880100EBD070401080B2F0
:2009FC00C0F303202072D2F8880104F1940100EBD070401080B2C0F30B02E06B627211F009
:200A1C0054FE25796D1C01E0781CC5B22571BDE8F88FC046E81D0020257500C02C25752E1A
:200A3C00257500C00A0000C07B83A73F00000000008082C00000008038EE4F419A99999935
:200A5C0099817DC0CDCCCCCCCC2C7EC000000080521146413333333333F37BC0CDCCCCCCF4
:200A7C00CC4C3FC0000000000C552C410000000000C07FC03333333333F365C0000000005F
:200A9C00EE112C410000000000587EC09A999999994967C0000000003E5C25419A99999965
:200ABC0099017EC03333333333536CC0000000009CAC23416666666666EE79C0E17A14AED6
:200ADC00FF69E840FD4F43470000C84200000000BC150020DFF800F0059B0110DFF800F05A
:200AFC00E1A301102DE9F04FADF13C0D01F0BCFA0026DFF8E0A2B44CDFF8D0B2B44F0E96E3
:200B1C00EBE138690E99FFF7E5FFC8B1DBF84400B5A10D2211F014FE0E9EB748142231464B
:200B3C000CF011FA11F046FB0246DAF80800CAF82400B148B9A17A6111F0F2F80FF0A8FD8B
:200B5C00B8680E99FFF7C6FFD8B1DBF84400B4A1082211F0F5FDDAF808200DF11008B3A181
:200B7C004046CAF8242011F0DBF8404611F040FB0246DBF84400414611F0E2FD7868FFF79B
:200B9C00ADFFF8680E99FFF7A5FFD8B1DBF84400AEA1062211F0D4FDDAF824200DF11008D7
:200BBC00BAA14046CAF8082011F0BAF8404611F01FFB0246DBF84400414611F0C1FD786875
:200BDC00FFF78CFF78680E99FFF784FF002840F041810E99A068B74A0B46FFF7DDFC5FEA45
:200BFC00000900F076810E980DF136010CAA0C900DA80FF007FF002875D1BDF83400012288
:200C1C0010286BD120789DF83610884266D10C9D28884FF6FF71814260D02B789046913B8A
:200C3C0038D01F3B59D16878162818BF0E9805D1104610F0EFFBB04940460D60636980B96A
:200C5C00297960687E2904D07F2917D12989ABA301E0297AADA30E9A0091052110F0FBFADB
:200C7C000CE08BB94FF6FD70A149A24A0E9B0090102003F069FD6369C2B22AB129790835E4
:200C9C00284600F09BF928E043F00203DDF83880636122E06B780E3B02D09B1E19D01CE017
:200CBC00A88842F20301814217D1A8680578A5B9401C016804AA1160406850609DF8100039
:200CDC00BA4900F0FD008DF81000102003F03CFD03E00E99082005F071F942460C9810B119
:200CFC000AB111F06DFD5FEAD970C0F0F280E06800F068F9002840F0EC80E568284600F0F6
:200D1C0065F9854208BF0E9D02D085680DF0B2FD002DECD02888401E79D0C01E3FD0001F69
:200D3C002BD0083876D16069800822D372480368FBB15888197908331A4600F04BF98046F7
:200D5C00B8F1160F04D0B8F1040F01D010F062FB6369B8F1000F0CD133F00203636108D1C5
:200D7C006349644A4FF6FD7001230090102003F0EBFC68680DF07EFD4CE0686803783BB1E2
:200D9C008B4800900E9A6068042164A310F063FA874800900E9B874883490288E6E7696810
:200DBC00AB7862680878002B28D0012B14D0022B07D0032B29D1002808BF5CA31FD060A36B
:200DDC000FE010BB64A31AE020050020900B0020541200205C2C0020002808BF63A30ED03B
:200DFC0067A300900BE0C046696E697469616C697A696E670A0000C05405002065A31046A0
:200E1C000E9A022110F027FA69680846B2E7A87804F008FD28460DF02DFD68E7256400C0CC
:200E3C00737563636573730A0000C046736F667420636F6D6D697420746F20726561642049
:200E5C00706F733A2025640A0000C0466572726F720A0000B6F5047F3ADA7869002838DD9D
:200E7C0011F0A8F90546544814220E997D610CF06AF8B6F5FE7F1FDC142D15DC28460AF0F7
:200E9C00BFFB1436002078611CE0C046524F4C4C4241434B20746F207265616420706F73BC
:200EBC003A2025640A0000C0143D143614207D6106E0C046010000C0C6F504704FF4047623
:200EDC000AF09EFB0FF0E4FB7868FFF707FE00E00E9E4FF4966000F081F801A80CF0F2FAEB
:200EFC000298400A7FF40DAE41F65830F3E7C04649EA0000811E0100BC2000204D54552040
:200F1C0053697A653A20256400C046C046432056696F6C617465643A202564005061737316
:200F3C00636F64653A20256400C046C0426F6E64207361766520737563636573730A00C01C
:200F5C00426F6E642073617665206661696C65643A2025640A00C046426F6E64696E6720CA
:200F7C00737563636573730A00C046C050616972696E6720737563636573730A00C046C0D9
:200F9C0050616972696E67206661696C3A2025640A00C04650616972696E67207374617218
:200FBC007465640A00C046C0B90A010095B4001040E20100DC0E002054050020DFF800F07E
:200FDC0089840110DFF800F04FBF0110DFF800F019BD0110DFF800F0DDFE0010DFF800F0CA
:040FFC00A5A5011096
:20100000B412000018100000A9EB0000FDB301106DC00110FDAE011099B501100000000034
:08102000000000002D0000009B
:20102800B01200003C100000B1C00110A9BF011067C0011069B80110000000000000000035
:041048003000000074
:20104C00B012000060100000BDC00110CDB30110D9BD01106DB3011000000000000000005B
:04106C00310000004F
:2010700000000000A419002004000000000000000000000020000000E8C90110300000006D
:2010900028100000AC1900200400000000000000000000000C000000D8CA01101800000048
:2010B0004C100000B419002004000000000000000000000024000000F0CA011018000000CC
:2010D00000000000BC1900200400000000000000000000001000000018CA01102C000000D8
:2010F00000100000CC190020040000000000000000000000200000006CCA0110240000003C
:20111000FFFFFFFFD41900200400000000000000000000002800000090CA011024000000FB
:20113000FFFFFFFFDC1900200400000000000000000000001400000008CB0110180000007A
:20115000FFFFFFFFE419002004000000000000000000000058000000B4C901103400000048
:20117000FFFFFFFFEC1900200400000000000000000000001000000020CB01101800000016
:20119000FFFFFFFFF41900200400000000000000000000001C000000B4CA01102400000043
:2011B000FFFFFFFFFC1900200400000000000000000000003800000044CA0110280000006B
:2011D000FFFFFFFF041A00200400000000000000000000005400000078C901103C000000DF
:0811F00001000000C0430100F2
:0411F80001000000F2
:0411FC0000000E00E1
:0412000000000F00DB
:0412040032000000B4
:0412080001000000E1
:04120C00C8180020DE
:0412100000020000D8
:0412140000000000D6
:0412180001C90110F7
:04121C0000000000CE
:0412200000000000CA
:0412240008000000BE
:0412280000002200A0
:04122C00C8160020C0
:0412300000000000BA
:0412340000000000B6
:0412380008000000AA
:04123C0088180020EE
:0412400000000000AA
:0412440000000000A6
:04124800080000009A
:04124C00000000009E
:04125000000000009A
:041254000000000096
:041258000000000092
:04125C00010000008D
:0412600090170020C3
:041264000600000080
:041268000100000081
:04126C0070150020D9
:04127000000000007A
:041274000000000076
:041278000002000070
:04127C00000000006E
:02128000290043
:02128200010069
:02128400250043
:02128600300036
:02128800310033
:02128A002D0035
:02128C0001005F
:01128E00015E
:081290000300000028430100E7
:0812980000000000000000004E
:0412A0000000010049
:0412A4000000030043
:0412A80013C401105A
:0412AC00C720010056
:0412B000B812000070
:0412B400B81200006C
:0412B8000000000032
:0412BC005C19002099
:0412C000A522010062
:0412C4002000000006
:0412C8006C42010073
:0412CC001C400100C1
:0412D00029C101101F
:0412D4000BF9000012
:0412D800830201008C
:0412DC00A1C7011095
:0412E000A3C701108F
:0412E4000000000006
:0412E800A53C010020
:0412EC000C3D0100B4
:0412F000243D010098
:0412F400F43C0100C5
:0212F8000200F2
:0212FA000900E9
:0212FC000100EF
:0212FE000000EE
:0113000001EB
:0413040021220100A1
:041308003D0601009D
:04130C00A91601001D
:04131000B909010016
:04131400530A010077
:0413180041F400009C
:04131C00F5C2000016
:041320001D25010086
:0413240029E70000B5
:0413280015C70110D4
:04132C0025C70110C0
:201330002DE9F04F0F46CD4C0168E16241688068ADF11C0DE060C548A1608047C448E16A6A
:201350000160A168DFF810A34160E168DFF804938160CE49002FA346C1606FD03D68E878BC
:201370008DF80C0028798DF80D0003A811F0DAFDA86808B1C6490160E86808B1C549016065
:20139000C54C287820706878BE686070A878B268A0703178A2607368E1702E696360EA6958
:2013B00026627968E2620868E06068696062A8697B68A062286A9E68206395F8240084F8EF
:2013D00034001EB9002010F04FFC00E066617868C06818B9002010F047FC00E0A0617868E3
:2013F000006918B9002010F03FFC00E0E0617868406818B9002010F037FC00E02061286989
:201410002062F86881680E6806B9D24ED0494FF001084E60C66881F8018036B9002010F056
:2014300023FC4D462E68F86801E04D462E6000685446FB68A0615868E06107E0002010F084
:2014500013FC4D462E684FF001085446361DC7493668621C04F114035020B04710B128681F
:2014700080688047DBF808008047C24E002781463B46BF4877706946206104223370384627
:201490000EF0F8FE0098B0F5801F0CD020B90FF07BFE06F0D1FD08E00CF0F4FC10F0A4FE05
:2014B0000420708001E00FF06FFE3846BA4EA0602B68B760986980477060AF4880F8008004
:2014D00039464180142010F08FFFFF211422A0620BF03FFDE01CFF2102220BF03AFD1420C5
:2014F00010F082FFA54F38603868002114220BF030FD002000F052F940460EF0CBFDA04821
:201510000188FF2906D1022101807822001D00210BF01FFD032011F001FD042011F0FAFC63
:20153000052011F0F3FC062011F0ECFC07200DF0C5F8944E0820307006F1240011F0DEFCF6
:201550000DF0D2FA06F1360A05200A21524610F0C5FA38B10020C0F10901401C0AF8011B96
:201570000A28F8DB3078102108F016F82B68864909200DF10E025E68087001AB10200021A3
:20159000B047A06AE1690A260A309DF80E20761E00F8012BF9D1891EE161DBF80C104846DB
:2015B000884704F120002B68626A059040461E69DFF8D88104F120034146B04710B128681F
:2015D00080688047B8460FF053FF5FEA000903D009F092FE4FF0FF39002643E0029821696B
:2015F00010F8062CA0F10C07032A03D1002939D0884737E0A16A9DF810C00A223046491E6B
:2016100011F8013F9C4506D0521E00F10100F7D14FF0FF0A01E05FFA80FA2868BAF1FF0F4B
:2016300000F108001CD038790EF058FFB979012904D0022904BF0299887001E0029908700A
:201650000299504610F080F90CE0C04641490010F8440020201A0020F017002038130020FC
:20167000006880472868C36904A902AA0DF10F0098470028B2D0D8F800007700C35B6BB9F7
:20169000761CF6B20A2EF8DB2BE0C0463C2F010091100100C91E0100901600200A2E20DAF6
:2016B000DBF808008047D8F80010002231F807A0CA53DBF80C108847354850F8262026702A
:2016D0005146304690470646FF202070DBF808008047D8F800107A5A16437E52DBF80C10AD
:2016F00088470FF0C5FE0746B9451AD007B9294FE069B84238BF071CDBF808008047814616
:201710002868016A206A8847626A28681F49059B521C6262C6683846B047DBF80C104846AF
:201730008847A768296860691431AFB9D8F800000A270026835B33B1096960698847296830
:20175000D8F8000014317F1E06F10206F2D107E07C1900205FD8000009698847296814311B
:2017700009684FF0FF3088472DE7C0463D160100411F0100141A002004160020682D00209F
:20179000D4130020580D00207A2D002025050100A43F01008EC2F528FC2C00202DE9F84FC5
:2017B000DFF8BC13DFF8BC23DFF8BC5308700821002010600D23DFF8B40340F237320170DC
:2017D00043808280DFF8A8030560AC7EDFF8A4030470FF2CE97E417008BFFF292A7F827064
:2017F0006B7FC370AE7F0671ED7F457115D1FF2A08BFFF2B11D1FF2E08BFFF2D0DD1DFF83F
:2018100078130A7802704B7843708A788270CB78C3700A79027149794171DFF8601302782B
:20183000DFF85C83DFF85C93DFF85C730A70FF2543784B7082788A70C378CB7002790A7102
:201850004079487188F8005088F8015088F8025088F8035088F8045088F805500020CB49E3
:201870000880D9F83440CA49607808702278C9493A70A0780870A2681079C74A411E1170BE
:20189000E078C649C64A0870E068106008B910F0EBF92069C34E306008B910F0E5F930688B
:2018B000DFF804A301688847326852F8041F50468847BE48BE49CAF82000CAF82410606948
:2018D000BC49086008B910F0CFF9A069BA49086008B910F0C9F9E069B849086008B910F098
:2018F000C3F9DFF8DCB2B74C9BF8040010F07CFD0028206075D09BF80500B34E10F074FDAD
:20191000002830606DD09BF80600DFF8C0A210F06BFD0028CAF8000063D09BF8070010F0D1
:2019300063FDAB49002808605BD039789BF80000891C484380B210F057FDA649002888608F
:201950004FD03878002862D0BBF80210484380B210F04AFDA04A0028506042D0387810F001
:2019700043FD9E49002808603BD03878400010F03BFD9B490028086033D038781821484382
:2019900010F032FD974A106058B33878400110F02BFD9549086020B33878000110F024FDA8
:2019B00092490860E8B13878000110F01DFD90490860B0B138783021484310F015FD8D4A59
:2019D000106070B18C4839780078484310F00CFD8A4A106028B1387810F006FD88490860CC
:2019F00018B9BDE8F14F07F057B94FF0000B09E010F0C2FC0021418081600180022303714C
:201A10000BF1010B39785FFA8BF08842F0D32268694F0120107121680D73206845732168E6
:201A30008D732068C57321680D7400212068457400202268D172A0222168487103212068CD
:201A5000C28001720720226850720021206881722821206801224182C2760020216848775B
:201A70000022206880F85E200121226811770120216881F85D0001223068027131680D73BB
:201A90003068457331688D733068C57331680D7400213068457400203268D1720022316839
:201AB0004871306882724FF420703168C88008818A7401213368D974DAF800201573DAF840
:201AD00000104D73DAF800209573DAF80010CD73DAF8002015740022DAF800104D740121A8
:201AF000DAF80030DA720023DAF800201171DAF800104B71DAF80010C88008818B7205207E
:201B1000DAF800209374DAF800103E4AC874106880473968054608688047396851F8042F97
:201B300000209047D9F80C101C4B0A881878364902430A802846354A136898470C213448EA
:201B500011F0D8F9404611F0D1F911F0CBF9BDE8F44F034800784FF4005107F01DBD00BFBE
:201B70006E4F0020044F0020B63F0050604E0020084F00202C4E0020E81200503C4E0020ED
:201B9000344E0020E84301007B4F00200C4F00206D4F00206B4F0020724F00206C4F002090
:201BB000F04E0020F44E00207C4B0020F923010019240100F84E0020FC4E00204C2D0020AA
:201BD00050190020104F0020144F0020184F00201C4F0020082D0020684E0020004F0020BE
:201BF000502D0020804E0020844E0020884E00208C4E0020904E0020371A0020542D002058
:201C1000582D002040130020544F002044130020F84D00202DE9F04F4FF48070ADF13C0D8E
:201C30000EF028FFDB4CDD4904F11C09B4F888210988C9F80000D948120501F4704141EA58
:201C5000125101800DF0DAFE0DF078FE08F0DAFE0DF074FFD048002529462430056005207E
:201C700006F08AFB052029460CF0C2FF09F5B6760420294606F080FB042029460CF0B8FF14
:201C90002846014606F078FB284601460CF0B0FF04F16C0A504610F027FB4C2784F8A47090
:201CB000012084F874004D2184F8C010C4F8A050C4F8BC50C4F8D850C4F89C5004F1080844
:201CD000C4F894804FF0020BC4F898B0C4F8B4B0C4F8D0B02F46C4F8B87004F10A03C4F861
:201CF000D4702C22C4F8B030981C84F8DC20DD49C4F8CC000127216768468AF8007010F07C
:201D1000A5FA8DF8005022278DF8065069462846ADF8027007F056FEA9F1140908F10208E2
:201D3000A063002800F0318102A811F0D7F8A06B43F6972110F01CFDA06BCB4901220DF0F8
:201D500091F9284651460DF079FEE063002800F01B8104F1500004F17C0109F03DF900286B
:201D7000206100F0108115212A460EF0D7FA04A810F06CFA8DF81050ADF812708DF81650D3
:201D9000584604A907F01EFE206310B911F0A2F8206B4EF65F2110F0EBFC206BB34901220E
:201DB0000DF060F90DF06AFF06A810F06DF84FF4E1278DF82E5001208DF81900AC4B0C979D
:201DD00006A90A9328460DF079FF04F148076064384610F057FC284639460DF0CFFD2064B1
:201DF000002800F0CF8060786C4F8100725A38883B46120500F4704040EA12501880725AA0
:201E10007888C2F30B0200F47040D20440EA12503A465080705AC0F3032089F80000705AAF
:201E3000C0F30B0089F80100705AC0F30B00C0F3432088F80000705AC0F34A0088F80100EC
:201E5000E06B04F1940110F036FCE06B04F1B00110F031FC206915212A460EF05FFA20693E
:201E700016212A460EF05AFA206917212A460EF055FA20690C212A460EF050FA20690F21B4
:201E90002A460EF04BFA284601460DF077FE424E3060002848D010F031FC002841D13068F9
:201EB00010F027FCF060306810F01EFC401E3061F0680EF0DFFD30623068316AF5612A4641
:201ED000012310F020FC48BBF068A84600280DDD376A41467A1E12F8013F3A2B04D0401EB6
:201EF00001F10101F7D102E0884600E0376AB8F1000F04BF7560281C09D038460DF04AF9BA
:201F1000014607EB08007160401C0DF043F9B0604FF0FF3070610123B56107E06FF0020336
:201F300004E06FF0010301E04FF0FF33E169184622A2401D0D4618D0401E14D0401E10D074
:201F5000401E0CD0401E08D0801E04D0284614A10FF0ECFE0DE01DA108E020A106E025A183
:201F700004E02DA102E033A100E039A128460FF0DDFEE06910F042F90246E169606C10F005
:201F9000E5FB03E0FEE7FEE7FEE7FEE70FB0BDE8F08FC046900B00205C2C0020C40B00209F
:201FB00025733A20556E6B6E6F776E207374617475733A2025640A0000C046C04C6F616438
:201FD000696E67204469736B00C046C025733A20537563636573730A0000C04625733A2075
:201FF00053442068616E646C65206E756C6C0A0000C046C025733A204661696C6564207438
:202010006F20696E697469616C697A6520534420636172640A0000C025733A205365637433
:202030006F722072656164696E67206572726F720A0000C025733A20536563746F722077A8
:20205000726974696E67206572726F720A0000C025733A204469736B206C6F636B65640AB6
:202070000000C04635260100C5050000616800001FF300002DE9F043BB4C04F10801204695
:20209000ADF18C0D0CF0FEFEFFF7C4FD00212422082304A810F01AFF0126002104AA04F108
:2020B00078008DF8286010F00DFFB04D04F1780000212422082368600DA810F007FF0021DF
:2020D0000DAA04F1B0008DF84C6010F0FBFE04F1B000002124220823A86016A810F0F6FE79
:2020F000002116AA04F194008DF8706010F0EAFE04F1940104AA04F1CC00E960002110F0C6
:20211000E1FE04F1280704F1CC0000212861384610F0D4FE04F1E8009549E76041F2883202
:2021300033460DF03DF94FF0804000210CF056F9DFF8409260601F2206234946102002F0F4
:2021500009FB5020ADF87C004FF44872ADF87E204FF47A71ADF8821000278DF88470DFF8BE
:202170003882ADF8807008F10E0004F15D021A2107804FF4427001F0B1FB04F1180240F210
:202190000730072101F0AAFB4FF44470314621AA01F0A4FB40F2113002211FAA01F09EFB88
:2021B00040F2123002210DF17E0201F097FB40F21330022120AA01F091FB4FF4457002217D
:2021D0000DF1820201F08AFB04F148003A46152369490090102002F0BDFA49461020062200
:2021F000A02302F0B7FA494610200722A02302F0B1FA494610200822A02302F0ABFA49464F
:2022100010200922A02302F0A5FA8DF885608DF886608DF887708DF888600DF185008DF839
:2022300089704FF480623346DFF8509100901020494602F08FFA0DF186004946009040F2A0
:2022500002423346102002F085FA0DF18700494640F2034233460090102002F07BFA22A81B
:20227000494640F2064233460090102002F072FA0DF1890049464FF4836233460090102037
:2022900002F068FA3E4910204FF0FF3202F062FA3C4910204FF0FF3202F05CFA10263B483F
:2022B00000961323DFF8E090394A01904946304602F050FA3E480078800009F0BDF8014633
:2022D000E96169B14FF6FF700EF002FA3435314800960B2349462A460190304602F03AFA0A
:2022F000454669782878A1B904F1100129620EF02DFE0097024605F1540305F144000190B7
:202310002649029305F11C030393AB78304602F021FA234904F12002304602F01BFA2078C0
:202330000EF014FE1F490246304602F013FA20780EF00CFE1C490246304602F00BFA1B493A
:20235000304602F007FA6068394603A30A460EF088FF23B0BDE8F083424C452050657269D4
:2023700070686572616C0A00200500205412002059230100B5080100F1C900008D4000003A
:20239000D115010099180100E910010010430100600A0020883E0100CC0E002087F800007C
:2023B000291B01005188011031810110C5AB0010694F00202DE9F84FC04CA178FF2904BF56
:2023D00000200FF051FCA0780FF0DCFE044604F1680504F190062968086810B10021E18312
:2023F0000CE0A87B002804BFA97E002906D13078002801BF207F0128608CE0832189E08BF0
:202410004118491C6181204610F054FD01281EBFAB480178012904D121890020491CE08352
:2024300061814FF6FF77A87E01280DD1AA8B6189208910F03BFD38B1218960894A1C93B29B
:2024500098421BD0A88B0FE03078012816D172886189208910F02AFD80B1218960894A1CEF
:2024700093B298420AD0708892B2904206D03818608180B210F016FD3F18E78304F5967930
:2024900099F8040020B120890021401CE183608104F12E07A87E012811D12189A88B4B1CBC
:2024B0009BB298420BD1608110F0FCFC8046B988288C01FB080820460BF0B2F801E0B7F8CE
:2024D0000480B4F81EC022687E4ED2F80CE00CF1010000FB08F340F6C41000FB03F18E4413
:2024F000C2F80CE03668DFF8E0E13678BEF80080764AB609032E11D1D67BF60748BF4FF0E6
:2025100000080BD408F101081FFA88F6012E12BF668AB9F8066006F2DC5600E0668A5E4389
:202530004FF4C87AB6FBFAF6761C6661AEF80080A3614FF0180894F806A084F820C008FBF2
:202550000AFADFF88CC1DCF800E023680EF1080656F80AB0C3F810B094F806A008FB0AFA3B
:20257000CDF800A0D3F80CB0D4F814A0ABEB0A0ADDF800B046F80BA094F806A008FB0AFA8E
:2025900056F80A609E600EF10C06A37908FB03F30EF10C0EF65C06F0F00646F002060EF8B4
:2025B00003604FF0000ADCF800E0A6790EF1020308FB06F623F806A0464BA6791B6876011E
:2025D00003F1140AD4F814B05AF806A00AEB4B0A03F1140B4BF806A0AD7E022D0BD1A579B7
:2025F0006D0103F1140697F800B056F805A000FB0BAA46F805A0BD88D27BA779D60736D5F0
:2026100008FB07F70EF10802D659A6F5A86A0EF1080646F807A0A77908FB07F7D2592768F7
:20263000511A3961BA6003F11402A1794901575807F5F667575003F11401A27952018958F6
:20265000C9F800106843244AA179156B03EB41162968401AA0F51670F0612049A07903EBDA
:2026700040100B78012B14D10121C17214E003F114027F01D1592A464243A1F5E661A2F500
:2026900016729142DED30821204610F007FC012011E0916A4A78C272A179DCF8000008FB98
:2026B00001F281182268516007200D49087020460AF0C4FC0020BDE8F28F00BF684E002053
:2026D000784F0020084F0020702D00205C4D0020804E0020844E0020E8430100734F002018
:2026F0006F4F00202DE9F84F0C46E00788B00BD50FF052FE28B100218160B348006800B100
:20271000804784F001005CE1A0070FD5002100230691059104910393029101910091012230
:202730003C2010F0B7FB84F002004AE11D256007A64EA74F40F18A80002107918B46A54895
:202750008178FF2904BF00200FF08EFA386890F8A0000FF017FD80463868C07A98F826911C
:20277000022818BF032808F5907A06D106F10D0010F08CFB08B906F1070B5146484610F0C5
:2027900081FB88B33868807A002818BF012804D13146504610F072FB04E0524649463046E0
:2027B00010F068FBFF2834D005FB00F906EB090506225146E81D0FF0D3FB16F8090039683A
:2027D00040F00209E81D07900622887E00F0010088F8260105F1010A386800F1140108F5A8
:2027F00090700FF0BDFB14E05146484610F03EFB78B152464946304610F03CFBFF2808D0C4
:2028100006F10D014543481910F040FB08B949F0020908F12C004B460178069142891209CE
:2028300005920122B8F822100491C0880799029140080390CDF804B0CDF800A0002098F873
:20285000061010F027FB84F00400BAE020060FD50021002306910591049103930291019153
:20287000009101223B2010F015FB84F08000A8E0E0044BD5F11D06F10D0010F0F3FA38680A
:20289000017A012918BF042931D1C17A02291EBF0329817E01292AD1817E00F1140230466E
:2028B00010F0E8FAFF2811D04543354405F10D0010F0ECFA50B9E91D05F10D0010F0D2FA56
:2028D00038680622E91D14300FF04AFB3868C07A022818BF03280AD106F10D0010F0D6FADD
:2028F00028B938680622F11D0C300FF039FB3A4842683A4800784FF480510CF057FF10B155
:202910008E200AF0AFF984F480505AE0A00505D50FF010FE324901200860FEE7600504D522
:2029300008F063FA84F480604BE0600405D581200AF098F984F4804043E0A10440D5294DBA
:20295000286810B100200FF08FF9274E4FF0FF30286010F083FA3168244D51F8202F684637
:2029700090472349234B486A8A6A009001920293C86A0268086A0392ADF810000A6B1178E2
:20299000002904BF5068002805D19068002804BFD068002806D02970506868609168A96051
:2029B000D068E86029463568134A2E6813486B46B0471349086004F0A7F984F4005000E085
:2029D000002009B0BDE8F08F204F0020AC450020104F0020684E0020784E00206E4F002032
:2029F000FC002043044F0020F04E00206845002090160020992301002C4D0020B82B0020AB
:202A1000EC4E00202DE9F04F09AFADF13C0D08900A92388809911E46ADF81800101C08BFB6
:202A3000002000F07581017800274FF0010B401C4FF0FF39B846DA460A9061E1252940F04A
:202A500056810178401C0A902D2918BFADF8068004D10178ADF806B0401C0A9030291CBFF5
:202A70004246434604D10178401C5A465B460A902A29CDF800804D4617D1049330680A9BC9
:202A9000CDF80890C01C20F00300001D306050F8044C1978002C009403F101000A9018D5C8
:202AB000ADF806A06442009413E044460AE0600000EBC4004018A0F130040A98017800943F
:202AD000401C0A90302901DB3A29F0DBCDF8089004932E2929D10178401C2A290A9011D1A4
:202AF0003168CDF80880C91C21F00301091D316051F8045C002D48BF454601782B46401C81
:202B10000A9011E0454643460AE0680000EBC5004018A0F130050A9801782B46401C0A9064
:202B3000302901DB3A29F0DB02930AB1224604926C2904D04C2918BFADF8048004D10178A8
:202B5000ADF804A0401C0A900BA8CDF80C800FAB07906429059300F0828069297FD0BDF824
:202B700018C075296DD0782969D06F2965D070294ED063293ED0732922D00A98401E0A9072
:202B9000099801281AD966490C68B5F1FF3F03D0A84288BF6D1C05D86FF00041814294BF41
:202BB0000D1C099D029508A80AA932466B46A04709993F18091A0398099165E0454617E014
:202BD0003068C01C20F00300001D306050F8040CBCF1010F014608B94FA0014607910FF0C7
:202BF0000DFB0390B5F1FF3F4FD0A8424DD9039528464AE03068C01C20F00300001D3060B3
:202C100010F8040C8DF82C005D46039558463CE0082035680490E81C20F00300001D3060C9
:202C300050F8041C082210230FA80AF0D9FD401E079040210170079823E0082302E010238F
:202C500000E00A233068C01C20F00300001D306050F8041CAA42BCBF2A1C04920DE03068F3
:202C7000C01C20F00300001D306050F8041CAA42BCBF2A1C04926FF009030FA80AF0B0FD34
:202C900007900599081A0390009C241ABDF8065000945DB906E008A8202109AA0EF00BFB1D
:202CB0007F1C009C641E0094F5D50398401EB0F1FF3F03900FD1BDF8060001281CD1009839
:202CD000401E009018D408A8202109AA0EF0F3FA00987F1CF4E70798017809AA08A80EF0F4
:202CF000EAFA0798401C079003987F1CDEE708A809AA0EF0E0FA7F1C0A980178401C0A906C
:202D100000297FF49BAE089808B14146017038460FB0BDE8F08FC046286E756C6C2900C03A
:202D3000CC430100BB482DE9F84F0025BA4CB849056094F8E200002800F06581012800F0FD
:202D50002F81B64E02283CD0032840F05C8151F8250CD4F8B8100029A0F5C060C4F8D400C5
:202D7000B8BF49420028B8BF4042814226DA4FF08057D7F8A4014568B4F8BC0030214FF42A
:202D90007F42082300903046A847D7F8A4014568B4F8C00004214FF4F80212230090304618
:202DB000A847D7F8A401B4F8D070456820214FF440620A2330460097A847012584F8D850EE
:202DD0001CE151F8258C0FF0B5FB2F4600B901273946934F38680028FCD0B146012609F1DA
:202DF0000409D9F82CA03E6009B10FF0A9FBCAF30720C4F8BC000FF09DFBAA4600B9B2468A
:202E10003B68002BFCD0D9F800B0BAF1000F3E6001D00FF095FBCBF38440C4F8C0000FF0D2
:202E300089FBAA4600B9B2463B68002BFCD0D9F81C90BAF1000F3E6001D00FF081FBC9F3E6
:202E50008120C4F8D000B8F5C061C4F8B81000F09C8094F8D80068B9C4F8D410D4F8C00026
:202E7000C4F8C800D4F8BC70C4F8C470D4F8D030C4F8CC30D4F8D400D4F8BC30002854BFBF
:202E900002226FF0010204F1C8010F6800EB40008018421000EB927207EBA2000860D4F89B
:202EB000C810C4F8C43000291CDD1E293CDDD4F8CC0030B93429B4BF15391E21C4F8C81086
:202ED00025E02A29BABFD4F8C8000B381E20C4F8C800D4F8C4003F28B4BF401C3F20C4F897
:202EF000C4001FE0D4F8CC00032812D011F10B0FC6BFD4F8C8000B30301CC4F8C800D4F84E
:202F1000C4000028C4BF401E051CC4F8C450032508E011F1150FC6BFD4F8C8001530301C03
:202F3000C4F8C800C4F8CC504FF08057D7F8A401B4F8C43030214FF47F42456837480093E7
:202F50000823A847D7F8A40104214FF400321123456832480096A847B4F8C860D7F8A40111
:202F700004214FF4F802122345682C480096A847D7F8A40120214FF440620A23B4F8CC6065
:202F9000456826480096A84701E084F8D85040F2FF50404502D8801C40452FD2082030E0C2
:202FB00051F8251C1F4F4BF2F5204843060A3868C0F3814001280CD11B4800680068804708
:202FD0000CF0D2FF0FF0C2FA3111C010484306EBE03694F8E50030B91448006820F07F40C8
:202FF0003618760801E084F8E5501148310C0660012741600F4D8760287808B90B2000E0EF
:20301000052084F8E40003F0EFFCBDE8F88FC0462D400C402C500C404011002000A00C402D
:2030300000800C40B43F0050EC010010102009403C600C40CD4101002DE9F84FB34D6968D6
:2030500084B0019121B905B0BDE8F04F0FF002BF0978DFF8BC82AF4EDFF8BC92DFF8BCA27A
:2030700001291CBF0229042946F2A81741F64C5B05D0402918BF802900F096803CE10FF02E
:20309000A7FA0028FAD00198007804F021FE0090446814B900200EF0E7FD9AF801000028A3
:2030B0005CD000F043F90FF06DF802900168009801914F680AF0DAFC022825D000990A785E
:2030D000012ADBD196490A68137A19F80310317018B90FF0BBFE5844A0602069C17E01F088
:2030F000EF01C1762069C17E41F08001C1762069C17E01F0F00141F00201C1762269B96827
:2031100088484118D1614BE001980178802911D10820854930700A78012A03D09AF80100D3
:20313000022801DB38690CE0D8F828003A690178D1720DE07C49072030700A783869012ACE
:2031500002D10121C17203E0D8F828104A78C2720298817901988AF80210C8E0009800282D
:203170008CD00199009A0078914205D101281CBF00200EF079FD15E0012840F0BD806848BB
:2031900001680A7A19F8020030700FF05FFE3918A0680FF057FE18B90FF058FE5844A060B4
:2031B0000120A8700098A2E09AF8010000287AD000F0BCF80EF0E6FF04462068029047680D
:2031D0009AF802000EF0DEFF03900FF007FA10F0070F3DD0A87804F07BFD0190416801985B
:2031F000009102990AF042FC022831D001990A78012A2AD14A490A68137A19F80310317097
:2032100028B90FF023FE83440098C0F808B000980069C17E01F0EF01C17600980069C17E36
:2032300041F08001C17600980069C17E01F0F00141F00201C176009AB9683A4841181069F9
:20325000C16101210198A97051E000200EF00CFD0398A04225D0029833490278802A12D181
:20327000082030700978012903D09AF80100022803DB38690121C17210E0D8F828003A69DC
:203290000178D1720AE0072030700978386901290EBF0122D8F828104A78C272A0798AF8DC
:2032B0000200029823E00FF099F910F0070F29D0A87804F00DFD04462078D4F80480012846
:2032D00020D117490868027A19F8021031700FF0BDFD3918D8F808000FF0B4FD20B90FF073
:2032F000B5FD5844C8F808000120A870204605B0BDE8F04F06F0A8BF05B0BDE8F04F00205A
:203310000EF0B2BC05B0BDE8F08F00BF082D0020E84301006F4F0020289A0110684E002091
:20333000104F0020F0D8FFFF734F00202DE9FE4FB24C617811B900200EF096FC0FF086FD20
:203350004FF00008074607F6C417C246AC4DDFF8B49228E050460EF015FF06467079F0B14D
:203370002968B07901F80800394608F101005FFA80F830460FF062FD30680178402902BF29
:2033900006F182000178012902BF41887289914205D1B169C088411830460CF04DFF0AF15F
:2033B00001005FFA80FA99F800008245D2DB6178884505D000200EF057FC82200FF03AFD60
:2033D0006078012840F0F180002701E07F1CFFB299F80000874280F2E28038460EF0D2FE6D
:2033F000064670790028F1D02968B0790A7890421CBF00200EF038FCB079FDE0286810F8C6
:2034100009000EF0BFFE00684268DAF808109068814204BF3E4609F1010900F0D480D6E0DC
:20343000286890F800B001224FF4C0710FE0636803F5AD76835C01FB03F901FB0BFE36F83E
:2034500009C036F80E60B44538BF9B46521CFBB29A42ECDB4FF6FF700FF0E8FC06465846E7
:203470000EF090FE68490068D0F804A00868D94630F8192060684FF4C07300F10E0103FBFF
:2034900009F3C85AB2EBD00F52D2720840F6C4104243009200275D4A0190029217E058463B
:2034B0000EF070FE01680A78802A03D1DAF81030009A5A610978402908D1029980790A68F7
:2034D00002EB4011009800F5A060C8617F1C47452EDA2868C05D8345F8D001464FF4C073BF
:2034F000594363685A1803F5AD73D289595A53088B4202D2521A9045E8DA0EF043FE016816
:203510004A68019B9168DAF808207008A1F6C41103FB00200FF096FC0028C0D03A48006825
:2035300030F81910491C20F81910286810F807B0296808780EF026FE0026006847684FF482
:20355000C079464551DA2868805D0EF01BFE0068296842688B5D606809FB03F3034403F160
:203570008201087830B15889B1F802C0401C80B2604508DA887B01280ED15889098A401C1B
:2035900080B2884208DB6EB3B968906801F5C241A8310FF057FC28B3761CF6B2D1E70020F1
:2035B0000EF062FB82200FF045FC617828680FF039FC286800780EF0E5FD00260068D0F8E3
:2035D00004A04FF00109771CC145FFF617AFF6B2002E1CBFF8B200287FF422AF286890F8BB
:2035F00000B037E7296811F806B007490A6800205B4622F813005846BDE8FE8F684E002047
:20361000004F00207B4F0020502D0020844E00202DE9F84FDFF8C0B20F460546F80B80F0F9
:203630000B81A74EDFF89082B80F80F0BD80B80880F0B1803809C0F032819D480178090927
:2036500080F0A480007830F07F0040F09F80684607F012FD012803D10098002800F09680E9
:2036700094480078002840F0918001240025E8B20EF074FD48B1837A3BB1847290F90900C0
:2036900004FA00F0C0B20DF08BF86D1C032DEED345464FF0030A05F1AC0085F810A00FF01B
:2036B000C5F8DFF82492002109F11402884610681160824952F8080C05F1340042F8088CA7
:2036D00042460FF0C3F83068006B8047AA68A969801A000BC0F1FF328A422CBF01444FF0E8
:2036F000FF31A961287F20B1E868A969B1EBC02F1ED90EF089F8414600B12146A9B17148F3
:2037100040F60901018046464680427B64F303024273027B66F30302027346604B46DE61F2
:203730001860418811F4406FFBD02C774146A9616649086820F0020040F400700860644A9A
:2037500042F804AC41F23006966014605023936014604FF4CA6696601460022042F80C4C31
:2037700044460C600DF002F8112006F00FFD287818B9686838300FF075F8687F18B16C7771
:2037900005200CF0F3FF534868612C740AF002F927F0080783E005F0F7FA4046743000680C
:2037B00008B927F002077AE00FF048F834468146606D0068014604208847C8B1287CB8B149
:2037D0004046083006689EB12068EC68006B8047801BE860010BE960A14202D209194908EE
:2037F000E96040F6C41088422CBFB1F5FA7FE86048460FF013FB0CF0ADFD90B1A8696FF454
:20381000807100224FF0007304462846A04740466C300068002808BF47F0020701D00AF0B0
:20383000B9F8686900214FF0806304460A462846A04727F0005732E00FF000F859460E6838
:203850004EB306F1280106C90A234FF0E0450B40154008BF002B1ED106F1280191E830008D
:2038700006F1280393E8060006F12803AA43A14383E806000FF0D2FAB16871B1002D08BF37
:20389000002C0AD03069B6F93C10B2682B4616462246B04701E00FF0C1FA27F4804727B1E3
:2038B0005846394650300EF0E5FFBDE8F88FC046722D0020E11B0020481A0020C9DF000042
:2038D0008C010010C42C002000100440000004600C410440099D0000C81A00202DE9FC41E7
:2038F000A0F2013714468846022F40F233819B4E9C493F1F0F2F04D9143F4BD0BF1E1CD031
:2039100011E0DFE817F0CF00C9000E01FB00C100B9002701AF00A700100010009D008F00F2
:203930007F00740065002D2880F21481B8F1020F40F010818849238808E1B8F1010F40F0FA
:203950000981F078012800F00581324620781179107181B9002800F0FD805078012800F0FB
:20397000B580042800F0B280062800F0AF80052840F0F080AAE02078002840F0EB805078ED
:20399000032800F0B180072800F0AE80052840F0E180A9E0B8F1010F40F0DC802078012831
:2039B00040F0D88006F1EC000EF078FF002840F0D1803446002004F13A0106F0C5FE0028C3
:2039D00040F0C88004F1C800FCF7E8FDBDE8FC81B8F1020F40F0BE8020880A28C0F2BA80BA
:2039F000B0F5486F00F3B6800E46B61C17E0B8F1020F40F0AF802088B0F5FA7F80F2AA809A
:203A10000E460CE0B8F1020F40F0A48020880628C0F2A080B0F5486F00F39C803E36308011
:203A3000BDE8FC81B8F1020F40F0948020880628C0F29080B0F5486F00F38C803C36EEE71C
:203A5000B8F1010F40F086802078062880F28280454E0EE0B8F1010F7CD12078042879DA8F
:203A70000A3606E0B8F1010F74D12078082871DA09363070BDE8FC81B8F1010F6AD1207872
:203A9000042867DA0836F4E7B8F1010F62D1207804285FDCF61DECE7B8F1020F5AD1208832
:203AB0000E36BCE7B8F1010F54D13079012851D032462078D178D07071B900284AD0507871
:203AD000012803D0042818BF052843D190690121FCF76CFDBDE8FC81207800283AD150786A
:203AF000022818BF052835D110780DF02FFA1C490246102000F02EFEBDE8FC8106F183053A
:203B100000211F22284609F024FA42462146284607F0CAFD44463078B4710DF017FA00230B
:203B300011E006F1640500211F22284609F011FA42462146284607F0B7FD44463078747131
:203B50000DF004FA01230094084901950246102000F000FEBDE8FC81B5080100CC0E00207B
:203B7000994501100C0F0020060F0020094501102DE9FC418E488F4A04788F488F4B90496F
:203B90000D2C6FD8DFE814F012010E000E000E000E000A010A018E000A01C900C900E70057
:203BB000E700EE00106041F204478648864DB0F802C08649BC451FBFB0F81AE0BE45B0F82C
:203BD0003280B8454FF4A0561ED181480068D0F800C09CF8040003280CF1080E0BD1DEF8BD
:203BF0000E0000281CBFBEF81800002803D01F80784911608AE0022C1CBF1E800D46156031
:203C100000208CF8040081E0BCF1000FA3F800C041D0BCF1010743D0B7F1010C3BD040F2A9
:203C3000FE37BCEB07071ED0A7F1040CBCF1010F20D94FF47F77BCEB070C1DD04FF4406774
:203C5000BCEB07070FD0BF1E012F0CD93F1F0AD07B1E012B0ED940F2F937DB1B012B1AD973
:203C70001B1F09D09AE0022C01D115604EE01E800D46FAE7584DF8E7584B1C68257A012DBA
:203C900005D141F20243438043834386F0E7468046834686ECE700200DF0E6FF832081E069
:203CB0008F207FE04E498978FF290CD0106018204C4C41432068851C40F204466C5A1C807F
:203CD000A41B012C484B71D94FF47F76A41B0FD04FF44066A41B032C84BF641F012C0BD987
:203CF000A41E012C62D940F2FD36A41B08D103E0801C41F201444452136005F08BFA05E02E
:203D100000200DF0B1FF85200FF094F8BDE8FC4136480078012105F03FBC40F20442488864
:203D3000188090421CBF41F2084290423ED041F60402904211D12E4C2E482F4B00680025E9
:203D5000CDE9004502222D4C256855F8086FB0472B4908802AE04888188000200DF084FF65
:203D700085201FE04888188002280DD940F20442801A1BD040F6FC72801A05D0083815D0E2
:203D90004FF47F72801AE8D1887B801CC2B2B52AA8BF662088730020488007E000200DF0C6
:203DB00063FF8420BDE8F6410FF044B8BDE8F3816F4F0020204F00200D280100504F00209B
:203DD000CC4C0020204A0020B1540110615A0110F44B002059550110755B0110104F0020B1
:203DF000684E0020804E0020313901106E4F002002000080EC4E00204D080100F04E002007
:203E1000424F00202DE9F04F8246DAF80070DAF804600C465FEA0208ADF11C0D14BF0021EC
:203E30004FF0FF31DFF8409248460EF021FA002818BF0B2040F0158100258F488C4905707D
:203E50008A48FC6052460EF001FD317B27200EF0FFFCB8F1010F07D0657002200CF0CCFE57
:203E700006200CF0C9FE01E0012060702078012840F2AA80801E012868D9801E012833D97F
:203E9000801E012800F2DE800EF0D8FC83464FF0805000F5EE77D0F8DC01A378466A0093F4
:203EB00021782846062908BF0120019001200290A068228AE1686368B047814658460EF06E
:203ED000ADFFB9F1000F40F0BF80B8F1000F02D00EF016F802E050460CF0FEFC002800F0E2
:203EF000A3803868806A2AE00EF0A8FC83464FF0805000F5EE77D0F8DC010123066800935D
:203F1000A168A27860682478AC46042C08BF9C466346B047814658460EF080FFB9F1000F04
:203F300040F09280B8F1000F02D00DF0E9FF02E050460CF0D1FC002876D038684068804702
:203F50004C49C1F8B0510D6081467DE00EF076FC83464FF0805000F5EE77D0F8DC01E38ABD
:203F700086690093E0680190208B0290A0780390207D04900121059122782846022A08BF0A
:203F9000081CE1786268A368B047814658460EF045FFB9F1000F57D1B8F1000F02D00DF0B9
:203FB000AFFF02E050460CF097FC00283CD03868006A80475FEA000946D1E078A168E28A01
:203FD000236908F047FCBFE70EF038FC83464FF0805000F5EE76D0F8DC01E38AC76800932D
:203FF000E0680190208B0290A0780390207D2946049001200590257805B9014608466268E0
:20401000A368E178B847814658460EF007FFB9F1000F19D1B8F1000F02D00DF071FF02E048
:2040300050460CF059FC08B914201AE03068406980475FEA000907D1306802692169E07883
:20405000904781E74FF0FF39B8F1010F05D002200CF08CFB06200CF089FB03480EF002FC7A
:20407000484607B0BDE8F08FC4140020FC140020F112010050450240782D0020FEB5954E69
:20409000954F144602460025A2F58062182A1AD8DFE812F01601100109010101FA00F400CD
:2040B000ED00E8001900CC00C500BE00B500AA001900190080006F00680054004C004200E9
:2040D00039002C0024002D2880F28C80022940F0898021880CF0E6FB0546F9E0012940F00C
:2040F000F680002C00F0F3801136BEE0102940F0EE80002C00F0EB803046503010222146D9
:204110000DF02EFFE4E0012940F0E180002C00F0DE8031468E1DA8E0262940F0D880002CBF
:2041300000F0D58006F160002622E8E7012940F0CE80002C00F0CB80761D96E0602900D14A
:204150003CB9012940F0C380002C00F0C0800D368BE006F18600214660220DF001FF01202F
:204170007073B5E0012940F0B28020780EF052FEAEE0012940F0AB802078022800F3A78056
:204190000C3630702078022814BF281C01200EF03DFE9DE0072940F09A80611C68460622B0
:2041B0000DF08CFD207869462A4606F0BFF904460A2C17DA0EF026FE70B9204603F01CFED5
:2041D0003C462078002847D16088C0F5805080B2B0F54D7F40DA3AE03246012002F12C0673
:2041F000305575E0022573E0012970D1B07B21780028B1736CD1207801282DD068E0012973
:2042100065D12478072C62DB102C60DC0B3648E001295CD124780A2C59DA093641E0012985
:2042300055D12478022C52DA08363AE000294ED10EF0E8FD98B90DF033FF3C46207858B924
:204250006088C0F5805080B2B0F54D7F04DA0EF0E3F8657003F0F0FE0AF046FC38E0012458
:204270000F361EE0012932D10A36247819E001292DD12478022C2ADAF61D12E0102926D1BE
:20429000334603F1400039E7012920D12478022C1DDA361D05E0012919D12478042C16DC5B
:2042B000F61C347014E0012911D12478022C0EDAB61CF6E702290AD120881436308007E048
:2042D000012904D12478022CD8BF761CE9DD18252846FEBD580D0020141A00202DE9F04394
:2042F00085B011F8017B0446082F04F1FD0004F1FC0804F1760504F5A076844A844BDFF895
:20431000149213D0092F21D00F2F2FD0112F01BF287801286878102840F0D5800A7832760E
:2043300048787076012184F83D11EBE00025521C4E5D5F5D3E434E55575D3E4046556D1C9C
:20435000082DF5DB204609F05BFB74E00024571C0D5D1E5D35430D553A5D15400555641C23
:20437000082CF5DB022088F80000CBE098F80100820704D410F0110F57D01A2266E00878A1
:204390004A7800EB02203080CA78887800EB022070804A79087900EB0220B080CA7988798A
:2043B00000EB0220F080087A30724A7A887A02EB00227281C87A0A7B00EB0220B0818A7B7A
:2043D000487B00EB0220F0810A7CC87B00EB022030828A7C487C00EB022070820A7DC87C70
:2043F00000EB0220B082487D897D00EB0120F082494801788A0658BF1A2212D504F5A67042
:20441000049071890391307A029021890191F0880090B38872883188204608F0E7FFE0B127
:204430001E2298F80100410710D40F2088F8150020460EF0E3FC002864D199F8000005B0C5
:20445000BDE8F0434FF4804105F0A6B8204605B0BDE8F0430F210EF0CDBC7088A882B18818
:20447000E9820221F0882883297400206882A18EA88AC91DE981618EB0EB510F02BFE88A06
:20449000A18E884202BF288BE18EB0EB111F18D02878012804BF68780F2805D0687918B15B
:2044B0000F21A972FE2127E0FC2120460EF09EFCF0880090B38872883188A0790EF092FCC5
:2044D00020E0102118E0491E20460EF087FC032F18D1A878042818BF0D2813D16E78142ED6
:2044F00018BF0E2E0ED12F7820460EF073FC012F06BFAE72FD213146204605B0BDE8F043A3
:204510000EF074BC05B0BDE8F08300BFEC4D00203C2D00206E4F0020144E002010B50B7848
:2045300084074CBF43F0020303F0FD0304064CBF43F0800303F07F0304074CBF43F0080316
:2045500003F0F70384064CBF43F0200303F0DF0310F0AA0F0B7003D0107840F00C0003E0F0
:2045700018B9107800F0F300107010BD2DE9F8430D4600272878022814461E4667D1696846
:2045900008784978DDF8208000EB012080B25FEA08021CBFB0F5285F0B205BD14FF42851AA
:2045B000401A08D0401E21D0401E2FD0401E25D0401E31D04BE0DDF82490E8680EF06AF9F6
:2045D00080B2A0EB08024A45BCBFA0EB08001FFA80F909EB0800162806DAA6F800904A46FD
:2045F000E86800EB08010DE00D2732E0E8680088022131802070000A60702AE0062030803E
:204610000622E96820460DF0ABFC22E001203080E9680A7822701CE0E868B0B10821318048
:204630000288227003881B0A63704188A1704288120AE270818821718288120A6271C188DC
:20465000A171C088000AE07103E0308001E0378001273846BDE8F2832DE9F0470F46814641
:2046700038780024022890461D466DD17868089E01784078DFF8D8A001EB002189B24FF424
:204690002852891A06D0491E29D0491E4ED0491E39D059E0F8680EF0FDF880B2B04204D33B
:2046B000A919162903DB0D244FE007244DE0FB682A46414698190DF053FCAD19F868ADB277
:2046D000C5F11602002140190EF0E2F8DAF8000000281CBF0268002A37D0002123E08EBBCD
:2046F000022DE0D198F8000098F80110FA6800EB01201080DAF8000000281CBF0268002A32
:2047100023D001210FE0EEB9062DCCD1F868062241460DF025FCDAF8000000281CBF0268A2
:20473000002A12D00321484690470EE056B9012DB9D198F80000002813BF0128F968087093
:20475000802402E00B2400E001242046BDE8F087602D00200FB42DE9F04F09AF8246ADF12A
:204770001C0D0DF083FF391D30F0010021F0030101F1040100F0FD8004911420ADF80C0017
:2047900000260196FF258DF80E507C6805940EF01DFB04460DF06AFFDFF8E49130F0010095
:2047B00008BF2C1C1FD00EF00DFB05460EF006FBA9B24A4680B261F30F08062160F31F4832
:2047D000304632F80C7F57B153681B689C4204D0491E00F10100F4D101E0C4B200E0FF242E
:2047F00040460DF010FC50460AF0AEFE0146FF2904D02046032204AB08F074F90EF0E6FA1E
:2048100009F076FE0546304600900DF02FFF30F0010000F0AD80002D00F0AA80594FDFF89B
:2048300068B13A68002431462346584607F038FA82460EF0BFFA3A6806460021234658464D
:2048500007F02EFA044600984FF00109514606EB010A06900BE0069810B10C380AF010F845
:204870000498006886E0FEE701466EE00446686800214FF000522346FBF794FE002852D041
:204890000EF0A4FA09F034FE061C40D00EF09AFA83460EF093FAB7681FFA8BF180B261F3EF
:2048B0000F08002F60F31F4808BF002708D057F80C1CB160002047F80C0CFF2307F8023CC4
:2048D00040460DF0A0FB381C21D010F8081C062914DA2B4A084681000C3201EBC001565A3D
:2048F00066B14FF6F870B04208D03A460DF0A0FE00281CBF06924FF0000914D1684639460A
:2049100009F0EAFF68684FF00051FBF74FFEB4F1FF3FACD0002CAAD00EF04CFABAEB000018
:2049300001D08442A2D20DF021F9009F0EF04AFA82460EF043FA08351FFA8AF180B261F30A
:204950000F0860F31F4847B1394651F80C0C00288AD1286841F80C0C2F6040460DF053FBDA
:20497000B9F1010F3FF47FAFB9F1000F3FF473AFFEE7FEE707B0BDE8F04F04B07047C04628
:2049900080130020BC430100404B4C002DE9FE4F05467B48002400680094C00905D379488A
:2049B000007810B920200BF0B1FF012D40F0E280DFF80092D9F8DC00012840F0D880022012
:2049D000C9F8DC000DF024FA01200BF09FFF5FEA000805D00120C9F8DC000DF025FACBE0AA
:2049F0000DF044FFA34602906748684DC0F800B0A86A016801208847012804D1584609F020
:204A10006BF8012000906248624FC0F800B0386811200DF0B3FD00B1012410200DF0AEFD83
:204A300008B144F002040F200DF0A8FD08B144F004040B200DF0A2FD20B12868564E016B75
:204A5000308888470A200DF099FD20B12868534E016B30888847524801260660286881696C
:204A700044F0200088474F4806600DF081FD00F001010191400814D2286A81684A488847FD
:204A90008246BAF1040FF7D0BAF1010F04D1286A42684548032190474449086820F0030055
:204AB0000860584600F088F82B683868986B8047019801280CD0BAF1010F04D1286A426809
:204AD0003948314690473949086840F0030008602F48066028684169204688470B200DF0F6
:204AF0004DFD20B128682C4BC16A188888470A200DF044FD20B12868284BC16A1888884714
:204B1000274806600322C9F8DC20264BC3F800B02868416B204688470128F9D138680420CA
:204B30000BF0F4FE0446184806603868144800688009FBD30098012802D1304608F0CCFFE0
:204B50000DF0FEFC08200BF0E1FE07460298C9F8DC600EF02BF91648008808F0F1FC0DF07E
:204B700063F957EA040018BF4FF0FF3804E06FF0040801E06FF001084046BDE8FE8FC046E1
:204B900014100940281200200C400940B8010010000222432C200940D43C0100D03C0100C6
:204BB00028200860800104430040034024220840C8410100401100202DE9F84FDFF804B2F7
:204BD0000746ABF13500DFF8F0810068800880F0E28075480068006880477E490831D1F880
:204BF000009000254FEA29715FEA995201F101010AD2C0F13E0210F10A0F4FEAE202D8BF5A
:204C100008229142B8BF111C684BD3F87C21C2F30462162AA8BF203A1B68C3F30443162BEB
:204C3000A8BF203B9A465218162A05DA12F10A0FB8BF6FF0090200E015225D4B5D4E02F0E0
:204C50001F0141F4F8511980316811F0030F18BF0125C90828BF45F002050FB145F0040572
:204C7000434693F90710411A052904DA9979A94208BF99886FD0DFF844E10F28A0F10F0892
:204C900029DB08EB0011A1F1F0084FEA28210091072984BF07210091062988BF06215EF840
:204CB00021600424774604EB81043C594FEA950CA41BEE0804F0FF0124BFC4F307263144B6
:204CD0006F08AE0824BFC4F3074631446E0828BF01EB146104E000214FEA950C6F08009196
:204CF000009C5EF824E05FEA5C060EF0FF0424BFCEF3072634447E0824BFCEF307463444CA
:204D10006E0828BF04EB1E64009E89B2A8EB06267143803104EB1124AAEB02010029D8BF3C
:204D30000121342209F0FF074A4391B24FF6FF727943B1FBF4F18A4238BF111C802889B246
:204D500005DA10F1800FB8BF6FF07F0000E07F209980D8719D711A4800681F2918604FF0C7
:204D7000000008D340F2FF128A4206D24908401C8A42FBD301E01F219980134F0F39090924
:204D900040EAC10047EA0001CBF8FB1F0026CBF8FF6FBDE8F88F0D490D4F434608200F60B4
:204DB0009B1D1870BDE8F88FEC0100103C1100506E62084024220840442D00209C130050A7
:204DD000082009403500094000E7A48030100940FDFDA400AC3F00502DE9F04F044675480B
:204DF0008A46016894461F46BAF1000FADF13C0D4DD0BCF1000F4AD09AF8002001209040F4
:204E1000014244D0BCF80000B0F5C15F32D1DCF81430DCF818206848DCF81C104FF0030E8B
:204E30000DF128080B93DFF894B10C9200680D91C0F3036958F8046FCEB10021351F0520DB
:204E50000B4655F8042FB2F1FF3F10D0934506D0401E01F1040103F10103F2D107E0052BDB
:204E700005DA705820F4702040EA09407050BEF1010EDFD1C4F804A0C4F808C00DF0DEFC7B
:204E90004F4D8046287820B140460DF0C7FF00208DE002F087FE4B49086840F00200086044
:204EB00007A80DF059FA002605F1D00007AA464909960BF095F8454905F5827007AA0BF06A
:204ED0008FF807A80DF0FFF9FF2105F1340007AB3F4A089119210AF091FF3E4A05F15000E7
:204EF0001A2107AB0AF08AFF3B49324605F18800134609F04FFF3949324605F1AC00134623
:204F100009F048FF364A05F12000042133460CF023FA0E2005F0BEFB05F174000DF0F6F8C3
:204F300005F16C000DF0F2F82E74072085F898012E77AE616E770523AE602B49EB602A7809
:204F50006961501C2870274B1E7040460DF066FFB1464FB92548B0E88C106946A1E88C1017
:204F70000DC86F4681E80D0038682060398A6182012060747B6813B940F6C4130646E3601B
:204F90001B48A06126746061F86800B1A061B86800B160615822494604F1200007F0D9FFB1
:204FB00004F1380049460CF03FF820466C600FB0BDE8F08FD4210840541300500200F844AB
:204FD000481A002000200940691E0100A59A0000C9DF00005DDD0000F9170100D11B01002F
:204FF00059F10000722D0020099D000038410100E7AF00002DE9FE4F0E46074630687C6862
:20501000D7F808B0F8B1B5680DB97368DBB194F894100020012908BF0120284202D171688E
:20503000084205D0012080F00100C0B201280AD10DF004FC8146D4F8880038B148460DF0AD
:20505000EDFE032030740020BDE8FE8F01253574C4F8886000200190C4F88C00C4F8900084
:2050700048460DF0DBFE94F8AC0038B194F895206649D4F8A40011430BF034F9D6F804806D
:205090000DF0DCFB824694F8E00080B918F0704F08D1B8F1000F05D004200BF0ADFD0620A3
:2050B0000BF0AAFD02200BF0A7FD84F8E05050460DF0B4FEDBF80010486840F0020048601F
:2050D000207800287BD1DBF81C003168884276D9207B18B16068B0F1FF3F70D148460DF03C
:2050F0009DFEB0685D4600280CBF04F1AE088046706828B9E88904F1AE07A4F8AE0000E0E8
:205110000746606909282CBF4FF0020A4FF0010AD6F80090B9F1000F24D0606909280CD3D4
:20513000286839880DF0D6FA286869460DF014FABDF80000A8F800000BE0286839780DF079
:20515000C9FA286869460DF007FA9DF8000088F80000B36803B1D044736803B15744B9F173
:205170000109DAD12968C8684008FCD3DBF80010486820F00200486077680DF05FFB0546C4
:2051900094F8E00078B117F0704F06D12FB106200BF0ECFA04200BF0E9FA02200BF0E6FAE7
:2051B000019884F8E00028460DF038FE0198D4F888100874C4F888000120019022E0204672
:2051D000594603F071FADBF80010486940F00100486120780028EFD1616804F16C0005465F
:2051F0000DF046F80028E7D0D4F88800017C012904BF03210174384603F09AFF019928461C
:205210000DF036F80198BDE8FE8FC046000006802DE9F04F05468248066800680F461C4605
:205230009246C4F399018900ADF12C0D0A010021803207F08EFEDFF8D091A9F188000246D2
:205250007048016830469047A3088046610801979F1C21F00101F819009506EB80000390E6
:20527000091DCDF808A07818434506EB800206EB870B3844049206EB80000690C4F39C0011
:205290004FEA800000F1080007EB400000EB070206EB82020A9224F0030202F1080200EB14
:2052B000020506EB85053A44059506EB82050A4407953A4406EB8202089206EB8002099247
:2052D000084406EB800A384406EB800518BF6FF0010040F0948009F16800024641463046E3
:2052F000904700233CB10199264611F8010B761E40EA0303F9D1002B08BF01207FD0002686
:205310003CB10299234611F8010B5B1E40EA0606F9D1002E08BF022071D001994C465846DC
:20533000A04703980299A047009881680498A0473648049A594681462846C847012803D159
:205350004FEA88042E590EB1032058E0BE0028460021324607F0FDFD0399049A2846C8476A
:20537000012801D12F590FB1042048E0284F294C069859463A46A047079803993A46A0475C
:20539000069908980A46A04709980899069A2746B8470A980699204C2246B8472846002196
:2053B000282207F0D6FD1D4809990A9A81462846C8472034284622460146C8470799504624
:2053D0000A46B84705980021324607F0C2FD5FFA88F450462CB95FFA88F10229B8BF01229B
:2053F00001DB5FFA88F200216B5C445CA34218BF052004D1491C521EC9B2F5D100200BB0BF
:20541000BDE8F08F8C4F0020B9DB0010C9DE001024180020F9E00010083E0100C9E60010B7
:20543000884F00202DE9F0410446804DA178A869ADF1180D891F00F0F280C91E00F0DD80DC
:20545000491E5FD0491E48D0C91E3CD0481E40F0E980287A697AB8B96878002831D0A0880E
:205470000DF0A0FC071C00F0DD80A07A40080FD3787968B1E168890A0AD2B91D01AA05F097
:2054900055F80A2804D10321A0880DF087FCC9E0287B022802D1A07A0009F4D3A08879798F
:2054B00004F1080201F068FBA869002800F0BA804368002B00F0B68000210A46A0889847B2
:2054D000B0E00521E0E7002800F0AC804368002B00F0A88062780221F0E70CF065FF0028B1
:2054F00000F0A080A86950B1076847B1206900906189227B637BE01C3C46A04792E06089D5
:205510000121C2E767784FF00008002F66D1A179490863D3EF69002F60D101A841460E226B
:2055300007F017FDA0880DF03DFC071C7AD0606940B97879B91D06228DF80A0001A80CF0A0
:205550000FFD19E06669307C062206F111018DF80A0001A80CF004FD07F10C00B91D062253
:205570000CF0FEFCB81D062206F111010CF0F8FC307C40F002007871A079C00839BF3879DE
:2055900000F0FD00387940F002003871A079000939BF387900F0DF00387940F0200038713E
:2055B000A1799DF81120C1F3800010438DF81100080905D39DF8110040F008008DF8110081
:2055D00001A8214600F018FC28B92878022103F0E3FF404627E0A8694FF0150810B34368C6
:2055F00003B3A088627801219847B8F1000F19D0A86943680321424660E7E078211D0022DA
:2056100004F094FF0A280DDA410001EB800004F10C0225300421C0B203F04AFA02E0A088FD
:2056300007F01EFF012006B0BDE8F081580D00202DE9FE4F0E468246307AC10693461F46A6
:205650004FF000090CD558460DF0A4FB030000F0E8800A223146504698475FEA00094DD1F4
:2056700030780C9D0D9CDDF8388002281AD170680178407801EB002189B24FF42052891AD5
:20569000012910D9891E3AD0491E14D0FD397AD0491E00F08180491E6DD0491E73D0491E5E
:2056B00000F09580ABE0002C2AD1F068017829800278416887E0002C22D101202880F168DE
:2056D0000A783A7000217089401C80B20DF05EFB298860B10278921C5118298041897970E1
:2056F0004289120ABA7041680278F81C6CE0091D298004220021781C0DF0CAF893E0002CFE
:2057100066D1F0680688042129803E70320A7A700DF1020130460DF039FB040021D0D4F851
:205730000C80BDF802204FF6FF766B4631460DF029FB40B9237862683C4802210DF01EFBD8
:2057500008B9ADF8006098F8000002280BD1D8F804100222381D0CF003FC2888801C288091
:2057700001E0ADF80060BDF80000B870BDF80010090AF97057E0002C2AD1F0680168504660
:205790000CF099FD02E01CBBF0680088022129803870000A787046E0F0680DF07BF880B248
:2057B000A042B8BF4FF007093DDB844208BF002205D008EB04028242B4BF4246021B2A8016
:2057D00092B2F068011938460CF0CAFB2BE014B14FF00B0927E0F0680721298002783A704D
:2057F00043787B704188B9704288120AFA7001793971C2887A71C088000AB87113E058464C
:205810000DF0B8FA5FEA00090BD00F980290CDF8048000942B463A4631465046C8478146B2
:2058300001E04FF00E094846BDE8FE8F083F0100F0B5774C794E6568401EADF12C0D70D0A8
:20585000401E6BA76BD0801E52D0401E41D0401E04D0401E36D0401E32D02DE004F1E8007E
:205870000DF084FA6B491020FEF774FF6A49C5B201AB10206A1EFEF76DFF48B90095606804
:205890000221002248A30BF0ECFC0DF106000DE00C363046016806AF39608088B88060687D
:2058B000002245A302210BF0DCFC3846656809F039FB0321034607E028460221002214E065
:2058D00040A300E041A30221284600220BF0C9FC67E014200BF0A4FD60680221002241A396
:2058F0000BF0BFFC6068032105220CF01DFE58E0012504F1E8008DF82950FAF74FFE14200D
:205910000BF08EFD6068032105220CF00DFE40F205300DF129022946FDF7E0FF65683B46B7
:20593000D1E731460A6808A802608988818000268DF808609DF824708DF807609DF82110A4
:205950008DF80A709DF825308DF805109DF822208DF80B309DF820008DF806209DF82310F5
:205970008DF8040001AF8DF809102D49786848603A680A6008A809F0D5FA034601213246DB
:2059900028460BF06EFC606802211DA332460BF068FC012140F205300AAA8DF82810FDF7B4
:2059B0009DFF0BB0F0BDC0464E756D20436F6E6E733A2025640A00C0436F6E6E65637465A0
:2059D000640A00C04572726F720A00C0436F6E6E6563746564204164766572746973696EE9
:2059F000670A00C054696D6564204F75740A00C04164766572746973696E670A00C046C001
:205A1000496E697469616C697A65640A00C046C020050020F17F0110097F0110F40E0020AF
:205A3000CB0900202DE9F04F0646880FADF1140DC0F0D7806C4F381D006841688D68CC681A
:205A5000486800B18047B946694F002D08BF002C0DD038461C300368002BFCD000210160AC
:205A700005B1A84704B1A04760480BF061FC3C4600256049E5616048216040F60A0CA0F832
:205A900000C04580017B65F303010173AA46C0F804A0417B4FF0010B6BF303014173B268A2
:205AB000737C558011888646A1F60201C9B141F21E07C91B15D041F6E677C91B012920D8DE
:205AD000507E012B65F38200507606D0108B20F47C7040F43470108313E0108B65F3091041
:205AF000F9E7507C012B65F38200507405D0108A20F47C7040F4347002E0108A65F30910EC
:205B10001082D6F8088075746046474600E01F467B6813B119888842F9D1C7F804E0797BB9
:205B300065F303017973D9F86C303BB1D9680988C21F8A421ED0801F88421BD0338CDBB1A8
:205B5000C6F824A006F12000458096F82C1065F3030186F82C1096F82D106BF3030186F84C
:205B70002D10CEF804009EF80D0065F303008EF80D0001E0C9F80850204803688268019233
:205B9000C168406B0093102220F0784040F0805003901B480291694605F086FDE069002873
:205BB000FCD01848C9F8140099F81D00E56178B915480068006801465846884701280DD0C8
:205BD000787B6BF303007873104EC9F8146005E009F094FF0028FBD00CF040FEE561C4F843
:205BF000008005B0BDE8F08F481A0020010007060010044001010E04C42C00204C13005085
:205C10001800002121360000E0010010B1E100002DE9F04FADF1140D071C8B4602930E9D19
:205C300001920F9C039500F0CB80BBF1000F00F0C780101C00F0C480181C00F0C180281C48
:205C500000F0BE80002C00F0C080206A002800F0B780614D666A281D0068002E00F0B08058
:205C7000A16AFAF73DFF40B2061C08BF6FF0020700F0A28020786288216A84F82C6000EB87
:205C900080001218143290B288475249086030B928464068FAF728FF4FF0FF378CE0A068F0
:205CB0004E4AE6684E4D106023692E608A464D4866694D4A0360A56916604C4BE6694C4A9B
:205CD0001D6021781660207825794A4E6388DAF800203570668801EB410106EB020C03EBCF
:205CF0004005AD18CE1805F10808C5180918AD1805F10409C51CAD10D5502078C01C801011
:205D1000C9F800002078C01C8010C8F800002078B6180C36C01C801030602078C918891830
:205D300001F11005C01C801028602278CDF810C039466346181D05F0B7FC2278594609F1F1
:205D5000040005F0B1FC2278019908F1040005F0ABFC2378204649464246FFF759FA071C3C
:205D700013D1009504984946424633460CF0FAFF804622780298311D05F096FC2278039875
:205D9000291D05F091FC4FFA88F721786288DAF8000001EB81015218002107F0DAF8606A82
:205DB0000146DAF8000088470B484068FAF79CFEF8B2992808BF002784F82C70384606E090
:205DD0001CB16FF0010084F82C006FF0010005B0BDE8F08F884F00201C1800208C4F00205F
:205DF000904F0020944F0020984F0020804F0020844F00209C4F00202DE9F04F714CDFF8B4
:205E1000C0A1E56988468146ADF1140D002D4AD1B9F1000F00F09280B8F1000F00F08E80B6
:205E30000BF0C8F906460A2E23DAD8F814702674002F39D0700010216A4600EB86002330DA
:205E5000C0B20BF04BFE90B950460778FF21102268460BF093FF50B93FB999F8060049466A
:205E700000F001000CF07AFF01E00120A074E56919E004F1E60B0A2700265846FF2106222C
:205E90000BF07CFF68B97F1E0BF10E0B06F10106F3D1607C002804BF0A2020744ED094F8B8
:205EB0003660267400E0267C0A2E47DA002D35D170000E214A4600EB86002030C0B202F040
:205ED000F7FD207C09F0B2F96846FF21102207F040F8207C10216A467030C0B202F0E8FDE9
:205EF000217C0E220801A0EB410000194946E6300CF036F8D8F814206AB15046007840B9E2
:205F1000107C02F11101002300F001000CF022FF01E00120A074C4F81C804CE0AA68002AD9
:205F30003ED12A69002A2FD16A690ABBEA683AB9A07B08B10AF0F0FE0BF0C1FD01203BE0F7
:205F50007000102100EB86002430C0B202F0B0FDE769217CFA68480000EB81001032253020
:205F70000421C0B202F0A4FDE1690020C86022E07000102100EB86002330C0B202F098FDF5
:205F9000E1690020486116E070001C2100EB86002230C0B202F08CFDE169002008610AE0CE
:205FB00070001C2100EB86002130C0B202F080FDE16900208860002005B0BDE8F08FC04630
:205FD0005A4F0020580D00207CB56D4D044668680E4628B94FF00040002108F0FFF96860D1
:205FF00000213CA30A460BF03CF920463DA3801E08D0801E61D0401E4CD0401E37D0401E49
:2060100022D00EE06868012E05D000210A460BF028F937A357E000210A460BF022F939A3BB
:2060300051E0686800210A460BF01BF96868022100223AA30BF015F901208DF803009DF896
:2060500003000028FBD17CBD686800210A460BF008F968680221002236A30BF002F90120BE
:206070008DF802009DF802000028FBD17CBD686800210A460BF0F5F868680221002232A3B2
:206090000BF0EFF801208DF801009DF801000028FBD17CBD686800210A460BF0E2F86868BE
:2060B000022100222DA30BF0DCF801208DF800009DF800000028FBD17CBD686800210A4643
:2060D0000BF0CFF829A36868022100220BF0C9F87CBDC0463E3E3E535441434B20415353DB
:2060F000455254002A2A2A4552524F522A2A2A003E3E20494E5445524E414C204552524FCE
:20611000522100C03E3E20494E5445524E414C204657204552524F522100C0463E3E2044D5
:20613000454641554C54205350494E4C4F434B2100C046C03E3E2057524F4E472041504901
:206150002043414C4C2100C03E3E204943414C4C2054494D454F55542100C0463E3E2049BE
:2061700043414C4C2041424F525421003E3E204F5554204F46204D454D4F52592100C046D1
:20619000200500202DE9FC4F83F0004301E02DE9FC4F1F03FF0847EAD2574FEA42284FEAF2
:2061B00043095FEA595906D147EA080A1CBF00210020BDE8FC8F57F000575FF4E06E1EF1D4
:2061D000FF0EF14505D14FF00000190D0905BDE8FC8F002B05D55FF0000AD8F100086AEB6F
:2061F00007070C03E40844EAD0544FEA40254FEA4106760D08D144EA050A19BF0021002064
:20621000191C101CBDE8FC8F44F00054764504D10020090D0905BDE8FC8F002904D55FF000
:20623000000A6D426AEB0404B6EB090E08D5A2463C465746AA464546D046CEF1000E4E46AA
:20625000BEF1360F5CBF4FF0000B23E0BEF1000F04BF4FF0000B1AE0CEF1390ABAF1200937
:206270002EBF08FA09FB07FA0AFB4BEA080BDEF1200A07FA0AFA38BFBA4647FA0EF72DBFA6
:2062900028FA0EF8AEF1200E4AFA0EF8D04415EB08057C4154EA050A02BF00210020BDE8DD
:2062B000FC8F002C58BF4FF0000A06D55FF0010A5FF0000E6D426EEB0404A6F101066D000A
:2062D0006441FAD515F4806E11D005F480794BEA090B15F5806554F1000428BF761C0BD299
:2062F00005F400795BEA090B08BF25F4006525F4E0656D0044EB0404B61CDEBF00210020CC
:20631000BDE8FC8F5FF4E06E1EF1FF0E76450AD34FF0000013F00043FF21C900C91D090586
:206330001943BDE8FC8F270547EA1530210B41EA065141EACA71BDE8FC8F70472DE9F041DD
:20635000684D4468D0F80880ADF1380D696820680C914FF0FF310BF08BFF083560682A6818
:2063700008A90A606A684A602A890A230A81002108AA0BF009FB98F80200002108F038FC5A
:2063900000270A25606840213A4605F069FD012802D06D1EF6D183E0606848214FF4D57228
:2063B00005F05EFD504D01283CD0606877213A4605F056FD022808DA606869213A4605F0B0
:2063D0004FFD0228B8BF022700DB01270CF0A6F8B5FBF0F50CF0EEFC0646022F06D0606864
:2063F0004121002205F03CFD68B114E060687721002205F035FD02280DDA606869210022A0
:2064100005F02EFD38B9606850214FF4007205F027FD28B944E00CF0CDFC801B8542DCD874
:2064300000273DE060680BA90CAA04230BF0ACFA002835D19DF82E00012831D19DF82F002E
:20645000AA282DD10CF06AF8B5FBF0F50CF0B2FC0646606877213A4605F002FD02281ADA81
:20647000606869214FF0804205F0FAFC98B960687A213A4605F0F4FC90B960680BA90CAA3A
:2064900004230BF081FA58B99DF82C00C00934BF0227032704E00CF08DFC801B8542D8D8F3
:2064B000277298F80200012108F0A2FB8FB160680CF033F968460BF05BFE0C48049098F840
:2064D0000000694609F09AFB6060002818BF002501D14FF0FF3520680CF0C4F928460EB0D9
:2064F000BDE8F0813042010040420F00A02526002DE9F04FADF1240D079001F053FB5F48E6
:2065100000780BF015F85E4D0024012806D90C3804D0401E0ED0401E09D006E00BF054FC58
:20653000022804BF01210C1C06D0696805E005211F2401E0032107246960524A1068C0F35F
:206550008150012806D152F80C0C0127020E07FA02F004430BF0F0FE05F1440AFF2253469F
:206570004018401E471C28607F1E03F8012BFBD1079A1268002602F0FF03FE2B1DD0DDF8BA
:206590001CC0964633460EF0FF07FF2F0ED0B84205D3B94203D80122BA40144201D002209C
:2065B00069E016430EF0FF020AF802305CF804EF5B1C0EF0FF07FE2FE7D1092004F06AF8D0
:2065D00007980121A86005F128000AF02DFD00274FF0010BB9462846804600F198050BFA68
:2065F00007F0044216D1064204BF07F0FF0141F4C04104D01AF80700079951F820102248BF
:2066100001F042FFF8B24FF0FF310AF0B5FFC5F8009001E004202860D8F800007F1C2D1DE2
:206630008742DCD904A80BF04EFE184C184A2078102104AB059008F10C0009F0DFFB684680
:206650000BF08AFECDF80C906A4660681149029008F1640009F0C4FC0F4951F80D0C20F4FE
:20667000F85040F4005041F80D0C0C4FC1F8FFBF4846C7F800B009B0BDE8F08F792D00207A
:206690002C100020B43F0050007FC76744430100B51B0100CDFA00000D30094008000940A7
:2066B00061480178002900D170472DE9F843491E032984B004D9891F012940F2B180A9E044
:2066D0005A4CDFF86C912068DFF8688103685A4E03F10805062205F1080102A80BF040FCCC
:2066F0000622A91C68460BF03BFC2878C1091D2700F00F02032AC0F3801537D16079C0F305
:20671000800081421ED12169062202A80BF0FCF800287AD0694628460CF0B4FB002874D046
:20673000314668460CF0AAFBFF286ED04743D8F80000807AF519002818BF02280AD0012890
:2067500018BF032861D1F25D691C48460CF0FEFA10285AD06B46EA1D294648460CF0F2FAA0
:2067700006226946E81D0BF0FBFB4EE000F00F00052855D16079C0F38000814245D121694D
:20679000062202A80BF0C0F800283ED0694628460CF078FB002838D0314668460CF06EFBE8
