:20000000004000209DF7000001C9011001C9011001C9011001C9011001C9011001C90110CA
:1C00200001C9011001C9011001C9011001C9011001C9011001C901103FC9011089
:20003C002DE9F04FD04C04F118012046ADF1340D0EF09AFFD24D002604F1A40A4FF6FF70AD
:20005C000123667032462082294650460FF01AFACC480223324629460FF014FACF480423ED
:20007C00324629460FF00EFA04F14408042010223146A07040460CF07AFF04F154091022D9
:20009C00484631460CF073FF04F11C073E6004F10A052E7007206072DFF80CB3E67102226F
:2000BC002672594610200346CDF8008004F09AFB102003225946CDF80090034604F092FB93
:2000DC000422102059460097134604F08BFB4FF0080A4FF003094FF0010B05F12A00079007
:2000FC0005F17900089005F11E00099005F15A000A9024350B9517E06078A28FE18FB4F831
:20011C004050B4F8423006280ED1ADF80A20ADF80C10ADF80E509B48ADF8103000F038FA8B
:20013C00584602A90AF080FAA069B64A31464FF0FF3300F031FA071CF6D0059606A80DF1AA
:20015C001A0105AA10F0F0FC002840F0C181BDF818102078102940F0B7819DF81A10884294
:20017C0040F0B281059D29884FF6FF728A4200F0A0812B78A23B00F083812E3B40F0A481E8
:20019C00A978B046002900F03F81891E00F00E81491E012940F2D680891E00F09A80491EFC
:2001BC006ED0491E5BD0083900F05A81891E40F05D8194F83A10A8880529ADF8080046D09B
:2001DC0070488DF812B000F0E3F994F83A0001281ED004281CD003280DD002280BD0059899
:2001FC00C188ADF80A100189ADF80C104189ADF80E10818927E0A18FE08FADF80A10B4F8E8
:20021C004020ADF80C00B4F84210ADF80E201AE0A08FE9888842D8BF081CADF80A00298960
:20023C00E08F8842D8BF081CADF80C006989B4F840008842D8BF081CADF80E00A989B4F809
:20025C004200884200DC0846ADF8100001E08DF81260AB49102002AA04F0C4FA06E14F48BF
:20027C0000F096F96B78002B40F00081E88860822889A0826889E082424812F0EBF8F5E068
:20029C00AA88B649102004F0ADFA0798414606220CF06DFE6682A682E682A87920733948E4
:2002BC0000F076F93D4800F073F9D8464FF6FF702379208253B9A879082814BF0420052059
:2002DC006070A069594600F06BF9CFE084F80190CCE06B787BBB291D0A68079802608988EB
:2002FC0081800623637068892082E8896082288AA082688A94F83A10E082E8780129E07225
:20031C0018BF02290BD19B4910201F2204F06AFA4FF47A7180B241431A4810F0A9F868895E
:20033C000423009092490193EA7810202D1D2B4604F058FA9DE06878312840F08E80E6709E
:20035C0004202EE06B78002B40F08780A878E1896278032818D0E078257939B9012814BFAF
:20037C002671E67008E0C046E80E0020054303D0814810F07DF86278072AE1D1062010E044
:20039C00D1240100B00F0020062A09D0E578002D08BF84F801906CD0022002E0D40F0020C2
:2003BC000720607065E0C046E11B01006B78002B53D1EB7861789BB902291ED007291CD0EB
:2003DC00062902D12079012817D1032915D06A4812F040F888B9A069594600F0E1F80CE0BA
:2003FC0010F028FE0246A07960490090089843460190102004F0F6F968706D78002D2CD16D
:20041C0034E0C046070000806B7833BB5B485649009002221020034604F0E4F958484A46DE
:20043C00514900901020034604F0DCF9ED1C296809980160A9888180207884F801B010F0A1
:20045C00F9FD02465B460A9D6079484900901020019504F0C7F9C0B258B184F801A008E006
:20047C00AA8840491020052304F0BCF9B8F1010F2AD1256A45B3296831B36078884723E04A
:20049C006879132820D12889012808D1607B022805D13E4800F07CF810F0AAFB14E03549A4
:2004BC001020052204F09EF981B238480FF0E0FF0AE06888C00B07D3324804222A4900908B
:2004DC001346102004F08EF9059808B112F0F4F92579E07879082ED355EA00032BD020469C
:2004FC0000787DB9E279217A8DF808200B9D8DF809102B680DF10A010B60AA888A8003E023
:20051C00051601108DF80890627A8DF81020A17A8DF8111010F08EFD1149024602AB10201A
:20053C0004F060F938B1256A84F801A01DB1296809B150468847B80803D3134930460AF0DD
:20055C0073F8F808FFF4F0AD607B401E3FF4D4AD401E7FF4E9AD10F04BFBE5E599D40000B3
:20057C0059440110C1170110258C000009450110CD970000F11F01008C0F00202C0F00202D
:20059C003C0F0020040F0020220F0020D40F0020DFF800F0B9BA0110DFF800F0F99B011096
:2005BC00DFF800F055A401102DE9F04FADF1440D01F09EFDB54C402010F0E8FA4FF0000AF2
:2005DC0004F118065146B44DCDF83CA0DFF8C0B23060B04F109106F120010E9126E278699A
:2005FC00109900F08FFAF8B1A069EA68AB68B4A111F01EFCA06911F0E3FBDDF83880DDF8EC
:20061C0040A01422404651460CF0B1FC11F04EFE0246E868BA61BBA12862404611F008FC71
:20063C0010F0AEF850460F90B868109900F06AFA00B3A069EA68AB68B5A111F0F9FBA06931
:20065C0011F0BEFBEA680DF11008B8A140462A6211F0EEFB404611F047FE0246BB48006888
:20067C00414612F0E9F8786800F050FA0F9808B10DF076FAF868109900F044FA70B12A6A21
:20069C00A069AB68BAA1EA6011F0D2FBA06911F097FB786800F03AFA109E0F963869109972
:2006BC0000F030FAA8B1B94800210E462A69A96033460068EB600CF05AFCA069B8A1324641
:2006DC00134611F0B5FBA06911F07AFBB24632460F927868109900F015FA002840F0708193
:2006FC001099A068B54A0B46FFF756FF5FEA000900F0988110980DF136010CAA0C900DA853
:20071C0010F012FA002875D1BDF83400012210286BD120789DF83610884266D10C9E3088ED
:20073C004FF6FF71814260D033789046913B38D01F3B59D17078162818BF109805D110464B
:20075C0010F0E2FE4046CBF80060636980B9317960687E2904D07F2917D13189BAA301E07A
:20077C00317ABDA3109A0091052110F0EEFD0CE08BB94FF6FD70B249B24A109B00901020C2
:20079C0004F030F86369C2B22AB131790836304600F0C0F928E043F00203DDF84080636166
:2007BC0022E073780E3B02D09B1E19D01CE0B08842F20301814217D1B0680678A6B9401C0B
:2007DC00016804AA1160406850609DF81000CA4900F0FD008DF81000102004F003F803E0E1
:2007FC001099082005F048FB42460C9810B10AB112F062F85FEAD970C0F01481E06800F0C1
:20081C008DF9002840F00E81E668304600F08AF9864208BF109E02D086680EF0A3F8002E54
:20083C00ECD03088401E00F0B380C01E58D0001F34D0083840F0AF806069800822D3DBF8C6
:20085C000030FBB15888197908331A4600F06EF98046B8F1160F04D0B8F1040F01D010F047
:20087C0053FE6369B8F1000F0CD133F00203636108D17349734A4FF6FD70012300901020D6
:20089C0003F0B0FF70680EF06DF884E020050020DC20002070120020502C00207068037809
:2008BC003BB196480090109A606804216EA310F04CFD92480090109B91488E490288DEE7BD
:2008DC00696E697469616C697A696E672D726561643A25752077726974653A25750A00002B
:2008FC007168B37862680878002B38D0012B2FD0022B09D0032B39D1002808BF5EA32FD003
:20091C0062A32AE0256400C080BB66A328E0C046737563636573732D726561643A2575205B
:20093C0077726974653A25750A0000C0736F667420636F6D6D697420746F2072656164208E
:20095C00706F733A2025640A0000C046F00B0020002808BF58A303D05CA3009000E060A3EC
:20097C001046109A022110F0F0FC716808468AE76572726F722D726561643A2575207772E4
:20099C006974653A25750A0000C046C06C2C0020B07804F095FF30460DF0E4FF2EE7C0467C
:2009BC006661696C7572652D726561643A25752077726974653A25750A0000C0010000C0EC
:2009DC00BAF5047F2CDAB86900282BDD11F06EFC0646142210990E98BE610CF0C8FABAF5AA
:2009FC00FE7F11DC142E09DC30460CF0C5F901260AF1140A0F960020B8610BE0143E0AF1C4
:200A1C00140A1420BE6103E0CAF504704FF4047A0CF0B2F90FF0B4FE786800F077F801E0FA
:200A3C00DDF840A04FF4966000F084F801A80CF05DFD0298400A7FF4D2AD41F65830F3E7D2
:200A5C0039EB0000791F01004D54552053697A653A20256400C046C046432056696F6C61BF
:200A7C007465643A2025640050617373636F64653A20256400C046C0426F6E642073617672
:200A9C006520737563636573730A00C0426F6E642073617665206661696C65643A20256438
:200ABC000A00C046426F6E64696E6720737563636573730A00C046C050616972696E672076
:200ADC00737563636573730A00C046C050616972696E67206661696C3A2025640A00C046B8
:200AFC0050616972696E6720737461727465640A00C046C0DD0B010095B4001040E20100C4
:200B1C00F80E0020DFF800F0059B0110DFF800F0E1A30110DFF800F089840110DFF800F013
:200B3C004FBF0110DFF800F019BD0110DFF800F0DDFE0010DFF800F0A5A501102DE9F84F9B
:200B5C00DFF8BC13DFF8BC23DFF8BC5308700821002010600D23DFF8B40340F2373201703C
:200B7C0043808280DFF8A8030560AC7EDFF8A4030470FF2CE97E417008BFFF292A7F8270C4
:200B9C006B7FC370AE7F0671ED7F457115D1FF2A08BFFF2B11D1FF2E08BFFF2D0DD1DFF89F
:200BBC0078130A7802704B7843708A788270CB78C3700A79027149794171DFF8601302788C
:200BDC00DFF85C83DFF85C93DFF85C730A70FF2543784B7082788A70C378CB7002790A7163
:200BFC004079487188F8005088F8015088F8025088F8035088F8045088F805500020CB4944
:200C1C000880D9F83440CA49607808702278C9493A70A0780870A2681079C74A411E11701E
:200C3C00E078C649C64A0870E068106008B911F08FF82069C34E306008B911F089F83068A3
:200C5C00DFF804A301688847326852F8041F50468847BE48BE49CAF82000CAF824106069A8
:200C7C00BC49086008B911F073F8A069BA49086008B911F06DF8E069B849086008B911F0AF
:200C9C0067F8DFF8DCB2B74C9BF8040011F022FC0028206075D09BF80500B34E11F01AFC1E
:200CBC00002830606DD09BF80600DFF8C0A211F011FC0028CAF8000063D09BF8070011F08B
:200CDC0009FCAB49002808605BD039789BF80000891C484380B211F0FDFBA64900288860A6
:200CFC004FD03878002862D0BBF80210484380B211F0F0FBA04A0028506042D0387811F0BC
:200D1C00E9FB9E49002808603BD03878400011F0E1FB9B490028086033D038781821484399
:200D3C0011F0D8FB974A106058B33878400111F0D1FB9549086020B33878000111F0CAFB19
:200D5C0092490860E8B13878000111F0C3FB90490860B0B138783021484311F0BBFB8D4A6F
:200D7C00106070B18C4839780078484311F0B2FB8A4A106028B1387811F0ACFB88490860E2
:200D9C0018B9BDE8F14F07F0BBBF4FF0000B09E011F068FB0021418081600180022303719C
:200DBC000BF1010B39785FFA8BF08842F0D32268694F0120107121680D7320684573216847
:200DDC008D732068C57321680D7400212068457400202268D172A02221684871032120682E
:200DFC00C28001720720226850720021206881722821206801224182C276002021684877BC
:200E1C000022206880F85E200121226811770120216881F85D0001223068027131680D731B
:200E3C003068457331688D733068C57331680D7400213068457400203268D1720022316899
:200E5C004871306882724FF420703168C88008818A7401213368D974DAF800201573DAF8A0
:200E7C0000104D73DAF800209573DAF80010CD73DAF8002015740022DAF800104D74012108
:200E9C00DAF80030DA720023DAF800201171DAF800104B71DAF80010C88008818B720520DE
:200EBC00DAF800209374DAF800103E4AC874106880473968054608688047396851F8042FF8
:200EDC0000209047D9F80C101C4B0A881878364902430A802846354A136898470C2134484B
:200EFC0000F068F8404600F069F800F06BF8BDE8F44F034800784FF4005108F081BB00BF2A
:200F1C006E4F0020044F0020B63F0050604E0020084F00202C4E0020E81200503C4E00204D
:200F3C00344E0020C84401007B4F00200C4F00206D4F00206B4F0020724F00206C4F00200F
:200F5C00F04E0020F44E00207C4B0020F124010011250100F84E0020FC4E0020742D0020F0
:200F7C0070190020104F0020144F0020184F00201C4F0020302D0020684E0020004F0020D6
:200F9C00782D0020804E0020844E0020884E00208C4E0020904E0020571A00207C2D002048
:200FBC00802D002060130020544F002064130020F84D0020DFF800F0E5710110DFF800F001
:200FDC001D6E0110DFF800F04D71011004490968091A322998BF002001D90AF04BBA704780
:040FFC00741300204A
:20100000B41200001810000099EC0000FDB301106DC00110FDAE011099B501100000000043
:08102000000000002D0000009B
:20102800B01200003C100000B1C00110A9BF011067C0011069B80110000000000000000035
:041048003000000074
:20104C00B012000060100000BDC00110CDB30110D9BD01106DB3011000000000000000005B
:04106C00310000004F
:2010700000000000C419002004000000000000000000000020000000E8C90110300000004D
:2010900028100000CC1900200400000000000000000000000C000000D8CA01101800000028
:2010B0004C100000D419002004000000000000000000000024000000F0CA011018000000AC
:2010D00000000000DC1900200400000000000000000000001000000018CA01102C000000B8
:2010F00000100000EC190020040000000000000000000000200000006CCA0110240000001C
:20111000FFFFFFFFF41900200400000000000000000000002800000090CA011024000000DB
:20113000FFFFFFFFFC1900200400000000000000000000001400000008CB0110180000005A
:20115000FFFFFFFF041A002004000000000000000000000058000000B4C901103400000027
:20117000FFFFFFFF0C1A00200400000000000000000000001000000020CB011018000000F5
:20119000FFFFFFFF141A00200400000000000000000000001C000000B4CA01102400000022
:2011B000FFFFFFFF1C1A00200400000000000000000000003800000044CA0110280000004A
:2011D000FFFFFFFF241A00200400000000000000000000005400000078C901103C000000BF
:0811F00001000000A044010011
:0411F80001000000F2
:0411FC0000000E00E1
:0412000000000F00DB
:0412040032000000B4
:0412080001000000E1
:04120C00E8180020BE
:0412100000020000D8
:0412140000000000D6
:0412180001C90110F7
:04121C0000000000CE
:0412200000000000CA
:0412240008000000BE
:0412280000002200A0
:04122C00E8160020A0
:0412300000000000BA
:0412340000000000B6
:0412380008000000AA
:04123C00A8180020CE
:0412400000000000AA
:0412440000000000A6
:04124800080000009A
:04124C00000000009E
:04125000000000009A
:041254000000000096
:041258000000000092
:04125C00010000008D
:04126000B0170020A3
:041264000600000080
:041268000100000081
:04126C0090150020B9
:04127000000000007A
:041274000000000076
:041278000002000070
:04127C00000000006E
:02128000290043
:02128200010069
:02128400250043
:02128600300036
:02128800310033
:02128A002D0035
:02128C0001005F
:01128E00015E
:08129000030000000844010006
:0812980000000000000000004E
:0412A0000000010049
:0412A4000000030043
:0412A80013C401105A
:0412AC00BF2101005D
:0412B000B812000070
:0412B400B81200006C
:0412B8000000000032
:0412BC007C19002079
:0412C0009D23010069
:0412C4002000000006
:0412C8004C43010092
:0412CC00FC400100E1
:0412D00029C101101F
:0412D4000FF4000013
:0412D800FBF900001E
:0412DC00A1C7011095
:0412E000A3C701108F
:0412E4000000000006
:0412E800853D01003F
:0412EC00EC3D0100D4
:0412F000043E0100B7
:0412F400D43D0100E4
:0212F8000200F2
:0212FA000900E9
:0212FC000100EF
:0212FE000000EE
:0113000001EB
:0413040019230100A8
:041308002D070100AC
:04130C00C117010004
:04131000DD0A0100F1
:04131400770B010052
:0413180031F50000AB
:04131C00A1C200006A
:04132000152601008D
:0413240019E80000C4
:0413280015C70110D4
:04132C0025C70110C0
:201330002DE9F84F954C2779002F00F025826078012F00F0F881E06B022F00F0CD80032F9D
:2013500040F01D82217820690F2900F2B380DFE801F0998E836E5E4E4338322C26201A1466
:201370000E081C2100220FF051F8002284E01C2100220FF04BF8002273E01C2100220FF0A6
:2013900045F800222DE01C2100220FF03FF8002252E01C2100220FF039F8002277E01C21A3
:2013B00000220FF033F8002236E01C2100220FF02DF801220AE01C2100220FF027F800226A
:2013D0001AE01C2100220FF021F80022206916210FF01CF8012214E01C2100220FF016F814
:2013F0000122206916210FF011F8002229E01C2100220FF00BF80122206916210FF006F886
:201410000022206917210FF001F801221EE01C2100220EF0FBFF0122206916210EF0F6FF93
:201430000022206917210EF0F1FF002239E01C2100220EF0EBFF0122206916210EF0E6FF83
:201450000122206917210EF0E1FF002220690C210EF0DCFF012229E01C2100220EF0D6FFAB
:201470000122206916210EF0D1FF0122D9E71C2100220EF0CBFF0122206916210EF0C6FFFB
:20149000012209E01C2100220EF0C0FF0122206916210EF0BBFF0022206917210EF0B6FFE3
:2014B000012220690C210EF0B1FF002220690F210EF0ACFF00252078257304F1C8010019E5
:2014D00090F85820A06B627311F071F9A06AB24907F0A9FAA06251E12178AA4D01F00F024C
:2014F00004EB820201F00F016170B2F8841100222A7011F04DF9E06BA11D11F044F918B93D
:20151000E06BE18811F044F900200022207204F19001A06B627211F04AF92078401CC0B2E6
:20153000102808BF00202070E088B0F5C87F52DB6178091991F85810182921D0202919D01B
:201550002D2913D03C290DD07D2907D0C82918BF656938D191A793A694A514E095A797A6CD
:2015700098A510E099A79BA69CA50CE09DA79FA6A0A508E0A1A7A3A6A4A504E0B00B002031
:20159000A4A7A6A6A7A50FF02CFD97E80C008846814607F0C8F996E80C0004F056FD95E80A
:2015B0000C000E4607464146484604F04EFD0B4602463146384606F0F8F921F000410CF057
:2015D000EBF80546656128460FF054F897A20CCA0BF0D2F801D2974D6561984E377827B988
:2015F000A06A0FF063F880B27060301D7B1C00EB87014D6013F00F07054637704FD161489D
:2016100080680021FFF784FA002848D029885D48943001805B484022291D96300AF01AF845
:2016300058485849A769726800784230087056A1384610F003FC4FF0640A2D1DB84610276D
:2016500086B255F804BB58460FF030F87A49814658460BF051FC1FFA89F983460AFB09F09F
:201670000FF040F80146584607F0DBF90FF01EF883B246A14A4608EB060010F0DFFB801946
:2016900086B27F1EDDD108EB060042A110F0D6FBA06910F09BFB3B484068FFF73DFA0420EF
:2016B00000210DF01DFB6578AE003019D0F84471E08810F047F804EB8703D3F804110CF097
:2016D000E9FD04F5A2720CD3D3F824110CF012FE12D29059401E9051617852F821000919AA
:2016F00004E0AB00D0582919401CD05004EB800090F8E40081F8580002EB8502106806289F
:2017100006DC00280BDC0120106094F8E80003E00620106094F8FC002D1985F858006079CE
:20173000401C607125E004EB8002218ED2F8840100EBD07001F47041401080B2000541EA75
:2017500010512186D2F8840100EBD070401080B2C0F303202072D2F8840104F1900100EB4D
:20177000D070401080B2C0F30B02A06B627211F01EF825796D1C01E0781CC5B22571BDE893
:20179000F88FC046081E0020257500C02C25752E257500C00A0000C012A5AD3FCDCCCCCC20
:2017B000CC888B4000000000FB8B43410000000000D87EC09A99999999417BC000000080E0
:2017D00052B845410000000000B07CC066666666665E71C000000000B9813541CDCCCCCC0F
:2017F000CC3C7DC0CDCCCCCCCCCC3EC0000000002AF223416666666666AE80C09A999999FC
:20181000993969C000000000D097264166666666668E7EC033333333338368C0000000007B
:2018300010B521410000000000387FC0E17A14AEFF69E840FD4F43470000C842DC1500205C
:201850002DE9F04F0F46CD4C0168E16241688068ADF11C0DE060C548A1608047C448E16A45
:201870000160A168DFF810A34160E168DFF804938160CE49002FA346C1606FD03D68E87897
:201890008DF80C0028798DF80D0003A811F0BAFBA86808B1C6490160E86808B1C549016062
:2018B000C54C287820706878BE686070A878B268A0703178A2607368E1702E696360EA6933
:2018D00026627968E2620868E06068696062A8697B68A062286A9E68206395F8240084F8CA
:2018F00034001EB9002010F039FA00E066617868C06818B9002010F031FA00E0A0617868EE
:20191000006918B9002010F029FA00E0E0617868406818B9002010F021FA00E02061286993
:201930002062F86881680E6806B9D24ED0494FF001084E60C66881F8018036B9002010F031
:201950000DFA4D462E68F86801E04D462E6000685446FB68A0615868E06107E0002010F077
:20197000FDF94D462E684FF001085446361DC7493668621C04F114035020B04710B1286813
:2019900080688047DBF808008047C24E002781463B46BF4877706946206104223370384602
:2019B0000EF0E0FC0098B0F5801F0CD020B90FF065FC06F077FB08E00CF0AEFA10F090FCCC
:2019D0000420708001E00FF059FC3846BA4EA0602B68B760986980477060AF4880F80080F7
:2019F00039464180142010F07BFDFF211422A0620BF0C3FAE01CFF2102220BF0BEFA1420B4
:201A100010F06EFDA54F38603868002114220BF0B4FA0020FFF798F840460EF0B3FBA0485F
:201A30000188FF2906D1022101807822001D00210BF0A3FA032011F0E1FA042011F0DAFA02
:201A5000052011F0D3FA062011F0CCFA07200CF07FFE944E0820307006F1240011F0BEFA78
:201A70000DF0BAF806F1360A05200A21524610F0AFF838B10020C0F10901401C0AF8011BA3
:201A90000A28F8DB3078102107F0C0FD2B68864909200DF10E025E68087001AB10200021D0
:201AB000B047A06AE1690A260A309DF80E20761E00F8012BF9D1891EE161DBF80C104846B6
:201AD000884704F120002B68626A059040461E69DFF8D88104F120034146B04710B12868FA
:201AF00080688047B8460FF03DFD5FEA000903D009F0D6FB4FF0FF39002643E0029821691D
:201B100010F8062CA0F10C07032A03D1002939D0884737E0A16A9DF810C00A223046491E45
:201B300011F8013F9C4506D0521E00F10100F7D14FF0FF0A01E05FFA80FA2868BAF1FF0F26
:201B500000F108001CD038790EF040FDB979012904D0022904BF0299887001E002990870FF
:201B7000029950460FF06AFF0CE0C04641490010F8440020401A0020101800205813002087
:201B9000006880472868C36904A902AA0DF10F0098470028B2D0D8F800007700C35B6BB9D2
:201BB000761CF6B20A2EF8DB2BE0C0461C30010085110100C11F0100B01600200A2E20DAE2
:201BD000DBF808008047D8F80010002231F807A0CA53DBF80C108847354850F82620267005
:201BF0005146304690470646FF202070DBF808008047D8F800107A5A16437E52DBF80C1088
:201C100088470FF0AFFC0746B9451AD007B9294FE069B84238BF071CDBF808008047814608
:201C30002868016A206A8847626A28681F49059B521C6262C6683846B047DBF80C1048468A
:201C50008847A768296860691431AFB9D8F800000A270026835B33B109696069884729680B
:201C7000D8F8000014317F1E06F10206F2D107E09C19002017D8000009698847296814311E
:201C900009684FF0FF3088472DE7C0463117010039200100341A002024160020902D002024
:201CB000F4130020740D0020A22D002015060100844001008EC2F528242D00202DE9F04F49
:201CD0004FF48070ADF1440D0EF066FFD34C04F1300704F11806B4F8842139883060120558
:201CF00001F4704141EA125038800DF0FFFE0DF09DFE08F0ADFE0DF099FFC9484FF0000BC4
:201D100059462030C0F800B0052006F06BFB052059460CF0E5FF06F5B6700F9004205946B4
:201D300006F060FB042059460CF0DAFF5846014606F058FB584601460CF0D2FF04F1680865
:201D5000404610F04DFB5D46C4F898504D2184F8BC105A46C4F8B420C4F8D0204C2384F8E1
:201D7000A030012084F87000C4F89CB0C4F8B8B0C4F8D4B04FF00209C4F89490C4F8B090E4
:201D900004F10805C4F8CC9004F10A01C4F8AC102C22C4F89050012384F8D820881CC4F8BF
:201DB000C800D14988F800306846E16610F0CAFA8DF800B04FF0220A8DF806B069465846A0
:201DD000ADF802A007F038FE103EAD1C6063002800F0208102A811F0FDF8606B44F61F61C7
:201DF00010F042FD606BC14901220DF0B3F9584641460DF09BFEA063002800F00A8104F19D
:201E10004C0004F1780109F0BBF80028206100F0FF801C215A460EF0F9FA04A810F092FA2E
:201E30008DF810B0ADF812A08DF816B0484604A907F002FEE06210B911F0C8F8E06AAC496E
:201E500010F012FDE06AAB4901220DF083F90DF08DFF06A810F094F801208DF82EB04FF4FF
:201E7000E1238DF81900A44A0C9306A90A9258460DF09CFF04F144082064404610F07EFCDD
:201E9000584641460DF0F2FDE063002800F0BF8060780F9B810038885A5A00F47040120555
:201EB00040EA12503880788800F470407880585AC0F303203070585AC0F30B00707085F83D
:201ED00000B085F801B0A06B04F1900110F06FFCA06B04F1AC0110F06AFC20691C215A469F
:201EF0000EF094FA206916215A460EF08FFA206917215A460EF08AFA20690C215A460EF028
:201F100085FA20690F215A460EF080FA584659460DF0ACFE424D686000284AD010F06AFC7E
:201F3000002843D1686810F060FC2861686810F057FC461E28696E6107460EF02DFE7E4382
:201F50000027E86105F1280080E8C000E96968685A46012310F053FC28BB286970B1EE699A
:201F70005F465946721E12F8013F3A2B04D0401E01F10101F7D100E00F461FB9C5F808B05E
:201F9000584608E030460DF07DF90146F019A960401C0DF077F9E8604FF0FF3085F800B0BD
:201FB0000123A86107E06FF0020304E06FF0010301E04FF0FF33A169184621A2401D0D4625
:201FD00018D0401E14D0401E10D0401E0CD0401E08D0801E04D0284612A10FF02FFF0DE06C
:201FF0001BA108E01EA106E023A104E02BA102E031A100E037A128460FF020FFA06910F013
:2020100079F90246A169206C10F01CFC03E0FEE7FEE7FEE7FEE711B0BDE8F08FB00B002011
:20203000502C002025733A20556E6B6E6F776E207374617475733A2025640A0000C046C09B
:202050004C6F6164696E67204469736B00C046C025733A20537563636573730A0000C04666
:2020700025733A2053442068616E646C65206E756C6C0A0000C046C025733A204661696C22
:20209000656420746F20696E697469616C697A6520534420636172640A0000C025733A20E5
:2020B000536563746F722072656164696E67206572726F720A0000C025733A205365637411
:2020D0006F722077726974696E67206572726F720A0000C025733A204469736B206C6F63FC
:2020F0006B65640A0000C0462D270100311300007F380100CD68000093EE00002DE9F0433C
:20211000C04C04F108012046ADF18C0D0CF032FFFFF7D4FD00212422082304A810F052FF85
:202130000126002104AA04F17C008DF8286010F045FFB54D04F17C0000212422082368600A
:202150000DA810F03FFF00210DAA04F1B4008DF84C6010F033FF04F1B400A8600021242280
:20217000082316A810F02EFF04F198008DF87060002116AA10F022FF04F1980104F1D00002
:2021900004AAE960002110F019FF04F1D00104F1EC0004AA6961002110F010FF04F12C0788
:2021B00004F1EC0000212861384610F003FF04F584709649E76041F2883233460DF068F92D
:2021D0004FF0804000210CF053F9DFF8449260601F2206234946102002F00AFB5020ADF8E5
:2021F0007C004FF44872ADF87E204FF47A71ADF8821000278DF88470DFF83C82ADF88070E4
:2022100008F10E0004F161021A2107804FF4427001F0B2FB04F11C0240F20730072101F065
:20223000ABFB4FF44470314621AA01F0A5FB40F2113002211FAA01F09FFB40F2123002219D
:202250000DF17E0201F098FB40F21330022120AA01F092FB4FF4457002210DF1820201F0FE
:202270008BFB04F14C003A4615236A490090102002F0BEFA494610200622A02302F0B8FA64
:20229000494610200722A02302F0B2FA494610200822A02302F0ACFA494610200922A023F4
:2022B00002F0A6FA8DF885608DF886608DF887708DF888600DF185008DF889704FF4806298
:2022D0003346DFF8549100901020494602F090FA0DF186004946009040F20242334610202C
:2022F00002F086FA0DF18700494640F2034233460090102002F07CFA22A8494640F206425D
:2023100033460090102002F073FA0DF1890049464FF4836233460090102002F069FA3F49C1
:2023300010204FF0FF3202F063FA3D4910204FF0FF3202F05DFA10263B4800961323DFF8D3
:20235000E4903A4A01904946304602F051FA38480078800010F0FAFA0146296269B14FF605
:20237000FF700EF02DFA3835324800960B2349462A460190304602F03BFA454669782878D5
:20239000A1B904F1100129620EF05AFE0097024605F1540305F1440001902849029305F1F9
:2023B0001C030393AB78304602F022FA244904F12402304602F01CFA20780EF041FE21496C
:2023D0000246304602F014FA20780EF039FE1E490246304602F00CFA1C49304602F008FA76
:2023F0006068394603A30A460EF0B5FF23B0BDE8F083C046424C45205065726970686572BB
:20241000616C0A00200500207012002051240100D90901009DC9000029410000C5160100E9
:202430008D190100DD110100F0430100800A0020694F0020683F0100E80E002077F9000012
:202450001D1C01005188011031810110C5AB00102DE9F84FC04CA178FF2904BF00200FF079
:202470007DFCA0780FF00AFF044604F1680504F190062968086810B10021E1830CE0A87B26
:20249000002804BFA97E002906D13078002801BF207F0128608CE0832189E08B4118491CA0
:2024B0006181204610F082FD01281EBFAB480178012904D121890020491CE08361814FF61B
:2024D000FF77A87E01280DD1AA8B6189208910F069FD38B1218960894A1C93B298421BD02F
:2024F000A88B0FE03078012816D172886189208910F058FD80B1218960894A1C93B29842C7
:202510000AD0708892B2904206D03818608180B210F044FD3F18E78304F5967999F80400EB
:2025300020B120890021401CE183608104F12E07A87E012811D12189A88B4B1C9BB2984289
:202550000BD1608110F02AFD8046B988288C01FB080820460BF078F801E0B7F80480B4F82F
:202570001EC022687E4ED2F80CE00CF1010000FB08F340F6C41000FB03F18E44C2F80CE0FC
:202590003668DFF8E0E13678BEF80080764AB609032E11D1D67BF60748BF4FF000080BD404
:2025B00008F101081FFA88F6012E12BF668AB9F8066006F2DC5600E0668A5E434FF4C87A4B
:2025D000B6FBFAF6761C6661AEF80080A3614FF0180894F806A084F820C008FB0AFADFF8FC
:2025F0008CC1DCF800E023680EF1080656F80AB0C3F810B094F806A008FB0AFACDF800A011
:20261000D3F80CB0D4F814A0ABEB0A0ADDF800B046F80BA094F806A008FB0AFA56F80A609A
:202630009E600EF10C06A37908FB03F30EF10C0EF65C06F0F00646F002060EF803604FF029
:20265000000ADCF800E0A6790EF1020308FB06F623F806A0464BA6791B68760103F1140A0D
:20267000D4F814B05AF806A00AEB4B0A03F1140B4BF806A0AD7E022D0BD1A5796D0103F1C6
:20269000140697F800B056F805A000FB0BAA46F805A0BD88D27BA779D60736D508FB07F7B0
:2026B0000EF10802D659A6F5A86A0EF1080646F807A0A77908FB07F7D2592768511A396153
:2026D000BA6003F11402A1794901575807F5F667575003F11401A27952018958C9F800108A
:2026F0006843244AA179156B03EB41162968401AA0F51670F0612049A07903EB40100B7838
:20271000012B14D10121C17214E003F114027F01D1592A464243A1F5E661A2F516729142D7
:20273000DED30821204610F035FC012011E0916A4A78C272A179DCF8000008FB01F2811898
:202750002268516007200D49087020460AF08AFC0020BDE8F28F00BF684E0020784F002091
:20277000084F0020982D00205C4D0020804E0020844E0020C8440100734F00206F4F002077
:202790002DE9F84F0C46E00788B00BD50FF080FE28B100218160B348006800B1804784F0D4
:2027B00001005CE1A0070FD500210023069105910491039302910191009101223C2010F06F
:2027D000E5FB84F002004AE11D256007A64EA74F40F18A80002107918B46A5488178FF2902
:2027F00004BF00200FF0BAFA386890F8A0000FF045FD80463868C07A98F82691022818BF42
:20281000032808F5907A06D106F10D0010F0BAFB08B906F1070B5146484610F0AFFB88B312
:202830003868807A002818BF012804D13146504610F0A0FB04E052464946304610F096FB37
:20285000FF2834D005FB00F906EB090506225146E81D0FF001FC16F80900396840F0020992
:20287000E81D07900622887E00F0010088F8260105F1010A386800F1140108F590700FF043
:20289000EBFB14E05146484610F06CFB78B152464946304610F06AFBFF2808D006F10D0193
:2028B0004543481910F06EFB08B949F0020908F12C004B460178069142891209059201224B
:2028D000B8F822100491C0880799029140080390CDF804B0CDF800A0002098F8061010F077
:2028F00055FB84F00400BAE020060FD50021002306910591049103930291019100910122E7
:202910003B2010F043FB84F08000A8E0E0044BD5F11D06F10D0010F021FB3868017A01291B
:2029300018BF042931D1C17A02291EBF0329817E01292AD1817E00F11402304610F016FB61
:20295000FF2811D04543354405F10D0010F01AFB50B9E91D05F10D0010F000FB3868062271
:20297000E91D14300FF078FB3868C07A022818BF03280AD106F10D0010F004FB28B9386826
:202990000622F11D0C300FF067FB3A4842683A4800784FF480510CF081FF10B18E200AF035
:2029B00037F984F480505AE0A00505D50FF03EFE324901200860FEE7600504D508F0E9F99A
:2029D00084F480604BE0600405D581200AF020F984F4804043E0A10440D5294D286810B196
:2029F00000200FF0BBF9274E4FF0FF30286010F0B1FA3168244D51F8202F6846904723494B
:202A1000234B486A8A6A009001920293C86A0268086A0392ADF810000A6B1178002904BF98
:202A30005068002805D19068002804BFD068002806D02970506868609168A960D068E8601C
:202A500029463568134A2E6813486B46B0471349086004F08FF984F4005000E0002009B0A3
:202A7000BDE8F08F204F0020AC450020104F0020684E0020784E00206E4F0020FC0020430B
:202A9000044F0020F04E002068450020B0160020912401002C4D0020D82B0020EC4E0020D6
:202AB0002DE9F04F09AFADF13C0D08900A92388809911E46ADF81800101C08BF002000F060
:202AD0007581017800274FF0010B401C4FF0FF39B846DA460A9061E1252940F0568101786A
:202AF000401C0A902D2918BFADF8068004D10178ADF806B0401C0A9030291CBF4246434694
:202B100004D10178401C5A465B460A902A29CDF800804D4617D1049330680A9BCDF80890DC
:202B3000C01C20F00300001D306050F8044C1978002C009403F101000A9018D5ADF806A039
:202B50006442009413E044460AE0600000EBC4004018A0F130040A9801780094401C0A90F3
:202B7000302901DB3A29F0DBCDF8089004932E2929D10178401C2A290A9011D13168CDF89B
:202B90000880C91C21F00301091D316051F8045C002D48BF454601782B46401C0A9011E0B3
:202BB000454643460AE0680000EBC5004018A0F130050A9801782B46401C0A90302901DB1A
:202BD0003A29F0DB02930AB1224604926C2904D04C2918BFADF8048004D10178ADF804A0F4
:202BF000401C0A900BA8CDF80C800FAB07906429059300F0828069297FD0BDF818C0752957
:202C10006DD0782969D06F2965D070294ED063293ED0732922D00A98401E0A90099801287D
:202C30001AD966490C68B5F1FF3F03D0A84288BF6D1C05D86FF00041814294BF0D1C099D9B
:202C5000029508A80AA932466B46A04709993F18091A0398099165E0454617E03068C01CCE
:202C700020F00300001D306050F8040CBCF1010F014608B94FA0014607910FF03BFB0390D1
:202C9000B5F1FF3F4FD0A8424DD9039528464AE03068C01C20F00300001D306010F8040C95
:202CB0008DF82C005D46039558463CE0082035680490E81C20F00300001D306050F8041CD9
:202CD000082210230FA80AF09FFD401E079040210170079823E0082302E0102300E00A2384
:202CF0003068C01C20F00300001D306050F8041CAA42BCBF2A1C04920DE03068C01C20F074
:202D10000300001D306050F8041CAA42BCBF2A1C04926FF009030FA80AF076FD0790059984
:202D3000081A0390009C241ABDF8065000945DB906E008A8202109AA0EF037FB7F1C009C4E
:202D5000641E0094F5D50398401EB0F1FF3F03900FD1BDF8060001281CD10098401E0090E1
:202D700018D408A8202109AA0EF01FFB00987F1CF4E70798017809AA08A80EF016FB079864
:202D9000401C079003987F1CDEE708A809AA0EF00CFB7F1C0A980178401C0A9000297FF485
:202DB0009BAE089808B14146017038460FB0BDE8F08FC046286E756C6C2900C0AC44010045
:202DD000BB482DE9F84F0025BA4CB849056094F8E200002800F06581012800F02F81B64EB9
:202DF00002283CD0032840F05C8151F8250CD4F8B8100029A0F5C060C4F8D400B8BF4942D7
:202E10000028B8BF4042814226DA4FF08057D7F8A4014568B4F8BC0030214FF47F4208239F
:202E300000903046A847D7F8A4014568B4F8C00004214FF4F802122300903046A847D7F8A5
:202E5000A401B4F8D070456820214FF440620A2330460097A847012584F8D8501CE151F8C5
:202E7000258C0FF0E3FB2F4600B901273946934F38680028FCD0B146012609F10409D9F873
:202E90002CA03E6009B10FF0D7FBCAF30720C4F8BC000FF0CBFBAA4600B9B2463B68002B9D
:202EB000FCD0D9F800B0BAF1000F3E6001D00FF0C3FBCBF38440C4F8C0000FF0B7FBAA4630
:202ED00000B9B2463B68002BFCD0D9F81C90BAF1000F3E6001D00FF0AFFBC9F38120C4F82F
:202EF000D000B8F5C061C4F8B81000F09C8094F8D80068B9C4F8D410D4F8C000C4F8C8005F
:202F1000D4F8BC70C4F8C470D4F8D030C4F8CC30D4F8D400D4F8BC30002854BF02226FF01F
:202F3000010204F1C8010F6800EB40008018421000EB927207EBA2000860D4F8C810C4F8E9
:202F5000C43000291CDD1E293CDDD4F8CC0030B93429B4BF15391E21C4F8C81025E02A2921
:202F7000BABFD4F8C8000B381E20C4F8C800D4F8C4003F28B4BF401C3F20C4F8C4001FE08B
:202F9000D4F8CC00032812D011F10B0FC6BFD4F8C8000B30301CC4F8C800D4F8C400002884
:202FB000C4BF401E051CC4F8C450032508E011F1150FC6BFD4F8C8001530301CC4F8C800CB
:202FD000C4F8CC504FF08057D7F8A401B4F8C43030214FF47F424568374800930823A847B1
:202FF000D7F8A40104214FF400321123456832480096A847B4F8C860D7F8A40104214FF423
:20301000F802122345682C480096A847D7F8A40120214FF440620A23B4F8CC604568264811
:203030000096A84701E084F8D85040F2FF50404502D8801C40452FD2082030E051F8251CB2
:203050001F4F4BF2F5204843060A3868C0F3814001280CD11B480068006880470CF0FCFFFA
:203070000FF0F0FA3111C010484306EBE03694F8E50030B91448006820F07F4036187608FA
:2030900001E084F8E5501148310C0660012741600F4D8760287808B90B2000E0052084F879
:2030B000E40003F0D7FCBDE8F88FC0462D400C402C500C405C11002000A00C4000800C405E
:2030D000B43F0050EC010010102009403C600C40AD4201002DE9F84FB34D696884B001915B
:2030F00021B905B0BDE8F04F0FF030BF0978DFF8BC82AF4EDFF8BC92DFF8BCA201291CBF6D
:203110000229042946F2A81741F64C5B05D0402918BF802900F096803CE10FF0D5FA00289B
:20313000FAD00198007804F009FE0090446814B900200EF013FE9AF8010000285CD000F09A
:2031500043F90FF09BF802900168009801914F680AF0A0FC022825D000990A78012ADBD10E
:2031700096490A68137A19F80310317018B90FF0E9FE5844A0602069C17E01F0EF01C17669
:203190002069C17E41F08001C1762069C17E01F0F00141F00201C1762269B9688848411884
:2031B000D1614BE001980178802911D10820854930700A78012A03D09AF80100022801DB56
:2031D00038690CE0D8F828003A690178D1720DE07C49072030700A783869012A02D101213F
:2031F000C17203E0D8F828104A78C2720298817901988AF80210C8E0009800288CD001998C
:20321000009A0078914205D101281CBF00200EF0A5FD15E0012840F0BD80684801680A7AF7
:2032300019F8020030700FF08DFE3918A0680FF085FE18B90FF086FE5844A0600120A8703D
:203250000098A2E09AF8010000287AD000F0BCF80FF014F804462068029047689AF80200E9
:203270000FF00CF803900FF035FA10F0070F3DD0A87804F063FD01904168019800910299E4
:203290000AF008FC022831D001990A78012A2AD14A490A68137A19F80310317028B90FF07C
:2032B00051FE83440098C0F808B000980069C17E01F0EF01C17600980069C17E41F0800196
:2032D000C17600980069C17E01F0F00141F00201C176009AB9683A4841181069C1610121C7
:2032F0000198A97051E000200EF038FD0398A04225D0029833490278802A12D10820307031
:203310000978012903D09AF80100022803DB38690121C17210E0D8F828003A690178D17247
:203330000AE0072030700978386901290EBF0122D8F828104A78C272A0798AF8020002985B
:2033500023E00FF0C7F910F0070F29D0A87804F0F5FC04462078D4F80480012820D11749DB
:203370000868027A19F8021031700FF0EBFD3918D8F808000FF0E2FD20B90FF0E3FD58444B
:20339000C8F808000120A870204605B0BDE8F04F06F0CEBE05B0BDE8F04F00200EF0DEBC4A
:2033B00005B0BDE8F08F00BF302D0020C84401006F4F0020289A0110684E0020104F0020D5
:2033D000F0D8FFFF734F00202DE9FE4FB24C617811B900200EF0C2FC0FF0B4FD4FF000085E
:2033F000074607F6C417C246AC4DDFF8B49228E050460EF043FF06467079F0B12968B0790C
:2034100001F80800394608F101005FFA80F830460FF090FD30680178402902BF06F182009B
:203430000178012902BF41887289914205D1B169C088411830460CF077FF0AF101005FFAB3
:2034500080FA99F800008245D2DB6178884505D000200EF083FC82200FF068FD60780128BE
:2034700040F0F180002701E07F1CFFB299F80000874280F2E28038460EF000FF0646707969
:203490000028F1D02968B0790A7890421CBF00200EF064FCB079FDE0286810F809000EF027
:2034B000EDFE00684268DAF808109068814204BF3E4609F1010900F0D480D6E0286890F8FD
:2034D00000B001224FF4C0710FE0636803F5AD76835C01FB03F901FB0BFE36F809C036F8BF
:2034F0000E60B44538BF9B46521CFBB29A42ECDB4FF6FF700FF016FD064658460EF0BEFE55
:2035100068490068D0F804A00868D94630F8192060684FF4C07300F10E0103FB09F3C85ACC
:20353000B2EBD00F52D2720840F6C4104243009200275D4A0190029217E058460EF09EFE1E
:2035500001680A78802A03D1DAF81030009A5A610978402908D1029980790A6802EB401184
:20357000009800F5A060C8617F1C47452EDA2868C05D8345F8D001464FF4C07359436368F5
:203590005A1803F5AD73D289595A53088B4202D2521A9045E8DA0EF071FE01684A68019B60
:2035B0009168DAF808207008A1F6C41103FB00200FF0C4FC0028C0D03A48006830F8191054
:2035D000491C20F81910286810F807B0296808780EF054FE0026006847684FF4C079464541
:2035F00051DA2868805D0EF049FE0068296842688B5D606809FB03F3034403F18201087853
:2036100030B15889B1F802C0401C80B2604508DA887B01280ED15889098A401C80B2884281
:2036300008DB6EB3B968906801F5C241A8310FF085FC28B3761CF6B2D1E700200EF08EFB97
:2036500082200FF073FC617828680FF067FC286800780EF013FE00260068D0F804A04FF02F
:203670000109771CC145FFF617AFF6B2002E1CBFF8B200287FF422AF286890F800B037E72F
:20369000296811F806B007490A6800205B4622F813005846BDE8FE8F684E0020004F002005
:2036B0007B4F0020782D0020844E00202DE9F84FDFF8C0B20F460546F80B80F00B81A74E1F
:2036D000DFF89082B80F80F0BD80B80880F0B1803809C0F032819D480178090980F0A48074
:2036F000007830F07F0040F09F80684607F098FC012803D10098002800F096809448007804
:20371000002840F0918001240025E8B20EF0A2FD48B1837A3BB1847290F9090004FA00F057
:20373000C0B20DF0CFF86D1C032DEED345464FF0030A05F1AC0085F810A00FF0F3F8DFF862
:203750002492002109F11402884610681160824952F8080C05F1340042F8088C42460FF013
:20377000F1F83068006B8047AA68A969801A000BC0F1FF328A422CBF01444FF0FF31A96166
:20379000287F20B1E868A969B1EBC02F1ED90EF0B5F8414600B12146A9B1714840F6090120
:2037B000018046464680427B64F303024273027B66F30302027346604B46DE611860418851
:2037D00011F4406FFBD02C774146A9616649086820F0020040F400700860644A42F804AC51
:2037F00041F23006966014605023936014604FF4CA6696601460022042F80C4C44460C6085
:203810000DF046F8112006F035FC287818B9686838300FF0A3F8687F18B16C7705200DF00D
:2038300037F8534868612C740AF0C8F827F0080783E005F0E3FA40467430006808B927F0C6
:2038500002077AE00FF076F834468146606D0068014604208847C8B1287CB8B14046083094
:2038700006689EB12068EC68006B8047801BE860010BE960A14202D209194908E96040F68C
:20389000C41088422CBFB1F5FA7FE86048460FF041FB0CF0D7FD90B1A8696FF480710022C7
:2038B0004FF0007304462846A04740466C300068002808BF47F0020701D00AF07FF86869DB
:2038D00000214FF0806304460A462846A04727F0005732E00FF02EF859460E684EB306F1F4
:2038F000280106C90A234FF0E0450B40154008BF002B1ED106F1280191E8300006F12803C3
:2039100093E8060006F12803AA43A14383E806000FF000FBB16871B1002D08BF002C0AD083
:203930003069B6F93C10B2682B4616462246B04701E00FF0EFFA27F4804727B158463946FD
:2039500050300FF013F8BDE8F88FC0469A2D0020011C0020681A00205DE000008C010010FB
:20397000EC2C002000100440000004600C410440B59C0000E81A00202DE9FC41A0F2013726
:2039900014468846022F40F233819B4E9C493F1F0F2F04D9143F4BD0BF1E1CD011E0DFE8A2
:2039B00017F0CF00C9000E01FB00C100B9002701AF00A700100010009D008F007F00740017
:2039D00065002D2880F21481B8F1020F40F010818849238808E1B8F1010F40F00981F0785B
:2039F000012800F00581324620781179107181B9002800F0FD805078012800F0B5800428EC
:203A100000F0B280062800F0AF80052840F0F080AAE02078002840F0EB805078032800F092
:203A3000B180072800F0AE80052840F0E180A9E0B8F1010F40F0DC802078012840F0D88023
:203A500006F1EC000EF0A6FF002840F0D1803446002004F13A0106F0EDFD002840F0C880DD
:203A700004F1C800FCF79AFDBDE8FC81B8F1020F40F0BE8020880A28C0F2BA80B0F5486F83
:203A900000F3B6800E46B61C17E0B8F1020F40F0AF802088B0F5FA7F80F2AA800E460CE015
:203AB000B8F1020F40F0A48020880628C0F2A080B0F5486F00F39C803E363080BDE8FC818F
:203AD000B8F1020F40F0948020880628C0F29080B0F5486F00F38C803C36EEE7B8F1010FE5
:203AF00040F086802078062880F28280454E0EE0B8F1010F7CD12078042879DA0A3606E082
:203B1000B8F1010F74D12078082871DA09363070BDE8FC81B8F1010F6AD12078042867DA8A
:203B30000836F4E7B8F1010F62D1207804285FDCF61DECE7B8F1020F5AD120880E36BCE717
:203B5000B8F1010F54D13079012851D032462078D178D07071B900284AD05078012803D0BB
:203B7000042818BF052843D190690121FCF71EFDBDE8FC81207800283AD15078022818BF12
:203B9000052835D110780DF05BFA1C490246102000F02EFEBDE8FC8106F1830500211F220C
:203BB000284609F0EAF942462146284607F052FD44463078B4710DF043FA002311E006F16C
:203BD000640500211F22284609F0D7F942462146284607F03FFD4446307874710DF030FA05
:203BF00001230094084901950246102000F000FEBDE8FC81D9090100E80E002099450110A6
:203C1000280F0020220F0020094501102DE9FC418E488F4A04788F488F4B90490D2C6FD805
:203C3000DFE814F012010E000E000E000E000A010A018E000A01C900C900E700E700EE0061
:203C5000106041F204478648864DB0F802C08649BC451FBFB0F81AE0BE45B0F83280B845B1
:203C70004FF4A0561ED181480068D0F800C09CF8040003280CF1080E0BD1DEF80E00002895
:203C90001CBFBEF81800002803D01F80784911608AE0022C1CBF1E800D46156000208CF822
:203CB000040081E0BCF1000FA3F800C041D0BCF1010743D0B7F1010C3BD040F2FE37BCEBD1
:203CD00007071ED0A7F1040CBCF1010F20D94FF47F77BCEB070C1DD04FF44067BCEB0707FB
:203CF0000FD0BF1E012F0CD93F1F0AD07B1E012B0ED940F2F937DB1B012B1AD91B1F09D075
:203D10009AE0022C01D115604EE01E800D46FAE7584DF8E7584B1C68257A012D05D141F223
:203D30000243438043834386F0E7468046834686ECE700200EF012F8832081E08F207FE09D
:203D50004E498978FF290CD0106018204C4C41432068851C40F204466C5A1C80A41B012C00
:203D7000484B71D94FF47F76A41B0FD04FF44066A41B032C84BF641F012C0BD9A41E012CE3
:203D900062D940F2FD36A41B08D103E0801C41F201444452136005F077FA05E000200DF073
:203DB000DDFF85200FF0C2F8BDE8FC4136480078012105F02BBC40F2044248881880904231
:203DD0001CBF41F2084290423ED041F60402904211D12E4C2E482F4B00680025CDE90045B8
:203DF00002222D4C256855F8086FB0472B4908802AE04888188000200DF0B0FF85201FE0F0
:203E10004888188002280DD940F20442801A1BD040F6FC72801A05D0083815D04FF47F72B1
:203E3000801AE8D1887B801CC2B2B52AA8BF662088730020488007E000200DF08FFF842027
:203E5000BDE8F6410FF072B8BDE8F3816F4F0020204F002005290100504F0020CC4C0020A1
:203E7000204A0020B1540110615A0110F44B002059550110755B0110104F0020684E002072
:203E9000804E0020313901106E4F002002000080EC4E002071090100F04E0020424F002066
:203EB0002DE9F04F8246DAF80070DAF804600C465FEA0208ADF11C0D14BF00214FF0FF318E
:203ED000DFF8409248460EF04FFA002818BF0B2040F0158100258F488C4905708A48FC60F0
:203EF00052460EF02FFD317B27200EF02DFDB8F1010F07D0657002200CF010FF06200CF021
:203F10000DFF01E0012060702078012840F2AA80801E012868D9801E012833D9801E0128F4
:203F300000F2DE800EF006FD83464FF0805000F5EE77D0F8DC01A378466A009321782846E4
:203F5000062908BF0120019001200290A068228AE1686368B047814658460EF0DBFFB9F150
:203F7000000F40F0BF80B8F1000F02D00EF044F802E050460CF042FD002800F0A380386861
:203F9000806A2AE00EF0D6FC83464FF0805000F5EE77D0F8DC01012306680093A168A2782E
:203FB00060682478AC46042C08BF9C466346B047814658460EF0AEFFB9F1000F40F0928017
:203FD000B8F1000F02D00EF017F802E050460CF015FD002876D03868406880474C49C1F8E9
:203FF000B0510D6081467DE00EF0A4FC83464FF0805000F5EE77D0F8DC01E38A86690093BB
:20401000E0680190208B0290A0780390207D04900121059122782846022A08BF081CE1786E
:204030006268A368B047814658460EF073FFB9F1000F57D1B8F1000F02D00DF0DDFF02E0A9
:2040500050460CF0DBFC00283CD03868006A80475FEA000946D1E078A168E28A236908F028
:20407000CFFBBFE70EF066FC83464FF0805000F5EE76D0F8DC01E38AC7680093E068019082
:20409000208B0290A0780390207D2946049001200590257805B9014608466268A368E178B4
:2040B000B847814658460EF035FFB9F1000F19D1B8F1000F02D00DF09FFF02E050460CF01E
:2040D0009DFC08B914201AE03068406980475FEA000907D1306802692169E078904781E7F2
:2040F0004FF0FF39B8F1010F05D002200CF0D0FB06200CF0CDFB03480EF030FC484607B01E
:20411000BDE8F08FE41400201C150020E513010050450240A02D0020FEB5954E954F144671
:2041300002460025A2F58062182A1AD8DFE812F01601100109010101FA00F400ED00E80095
:204150001900CC00C500BE00B500AA001900190080006F00680054004C00420039002C00B8
:2041700024002D2880F28C80022940F0898021880CF02AFC0546F9E0012940F0F680002CE9
:2041900000F0F3801136BEE0102940F0EE80002C00F0EB8030465030102221460DF05CFF82
:2041B000E4E0012940F0E180002C00F0DE8031468E1DA8E0262940F0D880002C00F0D58004
:2041D00006F160002622E8E7012940F0CE80002C00F0CB80761D96E0602900D13CB90129D0
:2041F00040F0C380002C00F0C0800D368BE006F18600214660220DF02FFF01207073B5E008
:20421000012940F0B28020780EF080FEAEE0012940F0AB802078022800F3A7800C3630701D
:204230002078022814BF281C01200EF06BFE9DE0072940F09A80611C684606220DF0B8FD11
:20425000207869462A4606F04FFA04460A2C17DA0EF054FE70B9204603F004FE3C462078F9
:20427000002847D16088C0F5805080B2B0F54D7F40DA3AE03246012002F12C06305575E012
:20429000022573E0012970D1B07B21780028B1736CD1207801282DD068E0012965D12478DA
:2042B000072C62DB102C60DC0B3648E001295CD124780A2C59DA093641E0012955D12478F5
:2042D000022C52DA08363AE000294ED10EF016FE98B90DF061FF3C46207858B96088C0F54C
:2042F000805080B2B0F54D7F04DA0EF011F9657003F0D8FE0AF070FC38E001240F361EE0D1
:20431000012932D10A36247819E001292DD12478022C2ADAF61D12E0102926D1334603F1F3
:20433000400039E7012920D12478022C1DDA361D05E0012919D12478042C16DCF61C347071
:2043500014E0012911D12478022C0EDAB61CF6E702290AD120881436308007E0012904D15E
:204370002478022CD8BF761CE9DD18252846FEBD740D0020341A00202DE9F04385B011F878
:20439000017B0446082F04F1FD0004F1FC0804F1760504F5A076844A844BDFF8149213D0A9
:2043B000092F21D00F2F2FD0112F01BF287801286878102840F0D5800A7832764878707651
:2043D000012184F83D11EBE00025521C4E5D5F5D3E434E55575D3E4046556D1C082DF5DB9D
:2043F000204609F021FB74E00024571C0D5D1E5D35430D553A5D15400555641C082CF5DBBE
:20441000022088F80000CBE098F80100820704D410F0110F57D01A2266E008784A7800EB57
:2044300002203080CA78887800EB022070804A79087900EB0220B080CA79887900EB022089
:20445000F080087A30724A7A887A02EB00227281C87A0A7B00EB0220B0818A7B487B00EB38
:204470000220F0810A7CC87B00EB022030828A7C487C00EB022070820A7DC87C00EB022070
:20449000B082487D897D00EB0120F082494801788A0658BF1A2212D504F5A6700490718920
:2044B0000391307A029021890191F0880090B38872883188204608F0ADFFE0B11E2298F87F
:2044D0000100410710D40F2088F8150020460EF011FD002864D199F8000005B0BDE8F043EE
:2044F0004FF4804105F092B8204605B0BDE8F0430F210EF0FBBC7088A882B188E9820221A8
:20451000F0882883297400206882A18EA88AC91DE981618EB0EB510F02BFE88AA18E8842FA
:2045300002BF288BE18EB0EB111F18D02878012804BF68780F2805D0687918B10F21A97268
:20455000FE2127E0FC2120460EF0CCFCF0880090B38872883188A0790EF0C0FC20E01021E2
:2045700018E0491E20460EF0B5FC032F18D1A878042818BF0D2813D16E78142E18BF0E2E25
:204590000ED12F7820460EF0A1FC012F06BFAE72FD213146204605B0BDE8F0430EF0A2BC8B
:2045B00005B0BDE8F08300BFEC4D0020642D00206E4F0020144E002010B50B7884074CBF18
:2045D00043F0020303F0FD0304064CBF43F0800303F07F0304074CBF43F0080303F0F7031F
:2045F00084064CBF43F0200303F0DF0310F0AA0F0B7003D0107840F00C0003E018B91078E4
:2046100000F0F300107010BD2DE9F8430D4600272878022814461E4667D1696808784978BD
:20463000DDF8208000EB012080B25FEA08021CBFB0F5285F0B205BD14FF42851401A08D018
:20465000401E21D0401E2FD0401E25D0401E31D04BE0DDF82490E8680EF098F980B2A0EB9C
:2046700008024A45BCBFA0EB08001FFA80F909EB0800162806DAA6F800904A46E86800EBDE
:2046900008010DE00D2732E0E8680088022131802070000A60702AE0062030800622E9685F
:2046B00020460DF0D9FC22E001203080E9680A7822701CE0E868B0B10821318002882270D7
:2046D00003881B0A63704188A1704288120AE270818821718288120A6271C188A171C088FE
:2046F000000AE07103E0308001E0378001273846BDE8F2832DE9F0470F4681463878002427
:20471000022890461D466DD17868089E01784078DFF8D8A001EB002189B24FF42852891A3A
:2047300006D0491E29D0491E4ED0491E39D059E0F8680EF02BF980B2B04204D3A919162987
:2047500003DB0D244FE007244DE0FB682A46414698190DF081FCAD19F868ADB2C5F11602DB
:20477000002140190EF010F9DAF8000000281CBF0268002A37D0002123E08EBB022DE0D1EB
:2047900098F8000098F80110FA6800EB01201080DAF8000000281CBF0268002A23D001215C
:2047B0000FE0EEB9062DCCD1F868062241460DF053FCDAF8000000281CBF0268002A12D0DD
:2047D0000321484690470EE056B9012DB9D198F80000002813BF0128F9680870802402E079
:2047F0000B2400E001242046BDE8F087882D00200FB42DE9F04F09AF8246ADF11C0D0DF0C2
:20481000B1FF391D30F0010021F0030101F1040100F0FD8004911420ADF80C0000260196B1
:20483000FF258DF80E507C6805940EF04BFB04460DF098FFDFF8E49130F0010008BF2C1C46
:204850001FD00EF03BFB05460EF034FBA9B24A4680B261F30F08062160F31F48304632F8A4
:204870000C7F57B153681B689C4204D0491E00F10100F4D101E0C4B200E0FF2440460DF0AA
:204890003EFC50460AF0D8FE0146FF2904D02046032204AB08F0FCF80EF014FB09F072FE89
:2048B0000546304600900DF05DFF30F0010000F0AD80002D00F0AA80594FDFF868B13A687F
:2048D000002431462346584607F0C0F982460EF0EDFA3A68064600212346584607F0B6F90D
:2048F000044600984FF00109514606EB010A06900BE0069810B10C380AF03AF80498006896
:2049100086E0FEE701466EE00446686800214FF000522346FBF746FE002852D00EF0D2FA28
:2049300009F030FE061C40D00EF0C8FA83460EF0C1FAB7681FFA8BF180B261F30F08002F4C
:2049500060F31F4808BF002708D057F80C1CB160002047F80C0CFF2307F8023C40460DF0E6
:20497000CEFB381C21D010F8081C062914DA2B4A084681000C3201EBC001565A66B14FF695
:20499000F870B04208D03A460DF0CEFE00281CBF06924FF0000914D1684639460AF014F891
:2049B00068684FF00051FBF701FEB4F1FF3FACD0002CAAD00EF07AFABAEB000001D08442E3
:2049D000A2D20DF04DF9009F0EF078FA82460EF071FA08351FFA8AF180B261F30F0860F30F
:2049F0001F4847B1394651F80C0C00288AD1286841F80C0C2F6040460DF081FBB9F1010FBC
:204A10003FF47FAFB9F1000F3FF473AFFEE7FEE707B0BDE8F04F04B07047C046A01300206E
:204A30009C440100404B4C002DE9FE4F05467B48002400680094C00905D37948007810B97A
:204A500020200CF00FF8012D40F0E280DFF80092D9F8DC00012840F0D8800220C9F8DC00BD
:204A70000DF052FA01200BF0FDFF5FEA000805D00120C9F8DC000DF053FACBE00DF072FF7E
:204A9000A34602906748684DC0F800B0A86A016801208847012804D1584609F031F8012075
:204AB00000906248624FC0F800B0386811200DF0E1FD00B1012410200DF0DCFD08B144F01E
:204AD00002040F200DF0D6FD08B144F004040B200DF0D0FD20B12868564E016B30888847DF
:204AF0000A200DF0C7FD20B12868534E016B308888475248012606602868816944F02000D1
:204B100088474F4806600DF0AFFD00F001010191400814D2286A81684A4888478246BAF10F
:204B3000040FF7D0BAF1010F04D1286A42684548032190474449086820F003000860584621
:204B500000F088F82B683868986B8047019801280CD0BAF1010F04D1286A42683948314676
:204B700090473949086840F0030008602F48066028684169204688470B200DF07BFD20B104
:204B900028682C4BC16A188888470A200DF072FD20B12868284BC16A18888847274806608B
:204BB0000322C9F8DC20264BC3F800B02868416B204688470128F9D1386804200BF052FFB3
:204BD0000446184806603868144800688009FBD30098012802D1304608F092FF0DF02CFD41
:204BF00008200BF03FFF07460298C9F8DC600EF059F91648008808F0B7FC0DF091F957EAB7
:204C1000040018BF4FF0FF3804E06FF0040801E06FF001084046BDE8FE8FC0461410094070
:204C3000441200200C400940B8010010000222432C200940B43D0100B03D01002820086004
:204C5000800104430040034024220840A84201005C1100202DE9F84FDFF804B20746ABF120
:204C70003500DFF8F0810068800880F0E28075480068006880477E490831D1F80090002513
:204C90004FEA29715FEA995201F101010AD2C0F13E0210F10A0F4FEAE202D8BF0822914271
:204CB000B8BF111C684BD3F87C21C2F30462162AA8BF203A1B68C3F30443162BA8BF203B86
:204CD0009A465218162A05DA12F10A0FB8BF6FF0090200E015225D4B5D4E02F01F0141F4AD
:204CF000F8511980316811F0030F18BF0125C90828BF45F002050FB145F00405434693F912
:204D10000710411A052904DA9979A94208BF99886FD0DFF844E10F28A0F10F0829DB08EB0F
:204D30000011A1F1F0084FEA28210091072984BF07210091062988BF06215EF821600424ED
:204D5000774604EB81043C594FEA950CA41BEE0804F0FF0124BFC4F3072631446F08AE0891
:204D700024BFC4F3074631446E0828BF01EB146104E000214FEA950C6F080091009C5EF830
:204D900024E05FEA5C060EF0FF0424BFCEF3072634447E0824BFCEF3074634446E0828BFBE
:204DB00004EB1E64009E89B2A8EB06267143803104EB1124AAEB02010029D8BF0121342281
:204DD00009F0FF074A4391B24FF6FF727943B1FBF4F18A4238BF111C802889B205DA10F13E
:204DF000800FB8BF6FF07F0000E07F209980D8719D711A4800681F2918604FF0000008D32C
:204E100040F2FF128A4206D24908401C8A42FBD301E01F219980134F0F39090940EAC10073
:204E300047EA0001CBF8FB1F0026CBF8FF6FBDE8F88F0D490D4F434608200F609B1D1870BE
:204E5000BDE8F88FEC0100103C1100506E620840242208406C2D00209C13005008200940AD
:204E70003500094000E7A48030100940FDFDA400AC3F00502DE9F04F044675488A460168A2
:204E900094461F46BAF1000FADF13C0D4DD0BCF1000F4AD09AF8002001209040014244D035
:204EB000BCF80000B0F5C15F32D1DCF81430DCF818206848DCF81C104FF0030E0DF1280814
:204ED0000B93DFF894B10C9200680D91C0F3036958F8046FCEB10021351F05200B4655F8CB
:204EF000042FB2F1FF3F10D0934506D0401E01F1040103F10103F2D107E0052B05DA705832
:204F100020F4702040EA09407050BEF1010EDFD1C4F804A0C4F808C00DF00CFD4F4D8046F0
:204F3000287820B140460DF0F5FF00208DE002F06FFE4B49086840F00200086007A80DF043
:204F500087FA002605F1D00007AA464909960BF0BFF8454905F5827007AA0BF0B9F807A8BD
:204F70000DF02DFAFF2105F1340007AB3F4A089119210AF0BBFF3E4A05F150001A2107AB36
:204F90000AF0B4FF3B49324605F18800134609F079FF3949324605F1AC00134609F072FFB1
:204FB000364A05F12000042133460CF04FFA0E2005F0E6FA05F174000DF024F905F16C007F
:204FD0000DF020F92E74072085F898012E77AE616E770523AE602B49EB602A786961501C66
:204FF0002870274B1E7040460DF094FFB1464FB92548B0E88C106946A1E88C100DC86F46F5
:2050100081E80D0038682060398A6182012060747B6813B940F6C4130646E3601B48A061A0
:2050300026746061F86800B1A061B86800B160615822494604F1200007F09FFF04F1380081
:2050500049460CF06BF820466C600FB0BDE8F08FD4210840541300500200F844681A002069
:2050700000200940611F0100199B00005DE00000F1DD0000ED180100C51C010049F2000054
:205090009A2D0020B59C0000184201008FAF00002DE9FE4F0E46074630687C68D7F808B028
:2050B000F8B1B5680DB97368DBB194F894100020012908BF0120284202D17168084205D056
:2050D000012080F00100C0B201280AD10DF032FC8146D4F8880038B148460DF01BFF0320C1
:2050F00030740020BDE8FE8F01253574C4F8886000200190C4F88C00C4F8900048460DF067
:2051100009FF94F8AC0038B194F895206649D4F8A40011430BF05EF9D6F804800DF00AFCFB
:20513000824694F8E00080B918F0704F08D1B8F1000F05D004200BF0F1FD06200BF0EEFDAC
:2051500002200BF0EBFD84F8E05050460DF0E2FEDBF80010486840F00200486020780028EE
:205170007BD1DBF81C003168884276D9207B18B16068B0F1FF3F70D148460DF0CBFEB0687A
:205190005D4600280CBF04F1AE088046706828B9E88904F1AE07A4F8AE0000E007466069E4
:2051B00009282CBF4FF0020A4FF0010AD6F80090B9F1000F24D0606909280CD328683988F9
:2051D0000DF004FB286869460DF042FABDF80000A8F800000BE0286839780DF0F7FA28684C
:2051F00069460DF035FA9DF8000088F80000B36803B1D044736803B15744B9F10109DAD143
:205210002968C8684008FCD3DBF80010486820F00200486077680DF08DFB054694F8E0003E
:2052300078B117F0704F06D12FB106200BF030FB04200BF02DFB02200BF02AFB019884F8CE
:20525000E00028460DF066FE0198D4F888100874C4F888000120019022E02046594603F026
:2052700059FADBF80010486940F00100486120780028EFD1616804F16C0005460DF074F8FF
:205290000028E7D0D4F88800017C012904BF03210174384603F086FF019928460DF064F871
:2052B0000198BDE8FE8FC046000006802DE9F04F05468248066800680F461C469246C4F301
:2052D00099018900ADF12C0D0A010021803207F054FEDFF8D091A9F18800024670480168DA
:2052F00030469047A3088046610801979F1C21F00101F819009506EB80000390091DCDF87C
:2053100008A07818434506EB800206EB870B3844049206EB80000690C4F39C004FEA8000A2
:2053300000F1080007EB400000EB070206EB82020A9224F0030202F1080200EB020506EB34
:2053500085053A44059506EB82050A4407953A4406EB8202089206EB80020992084406EB61
:20537000800A384406EB800518BF6FF0010040F0948009F168000246414630469047002385
:205390003CB10199264611F8010B761E40EA0303F9D1002B08BF01207FD000263CB1029957
:2053B000234611F8010B5B1E40EA0606F9D1002E08BF022071D001994C465846A047039842
:2053D0000299A047009881680498A0473648049A594681462846C847012803D14FEA880476
:2053F0002E590EB1032058E0BE0028460021324607F0C3FD0399049A2846C847012801D1CE
:205410002F590FB1042048E0284F294C069859463A46A047079803993A46A0470699089877
:205430000A46A04709980899069A2746B8470A980699204C2246B84728460021282207F0F3
:205450009CFD1D4809990A9A81462846C8472034284622460146C847079950460A46B847AF
:2054700005980021324607F088FD5FFA88F450462CB95FFA88F10229B8BF012201DB5FFA4E
:2054900088F200216B5C445CA34218BF052004D1491C521EC9B2F5D100200BB0BDE8F08F2F
:2054B0008C4F0020B9DB0010C9DE001044180020F9E00010E83E0100C9E60010884F002044
:2054D0002DE9F0410446804DA178A869ADF1180D891F00F0F280C91E00F0DD80491E5FD09D
:2054F000491E48D0C91E3CD0481E40F0E980287A697AB8B96878002831D0A0880DF0CEFC3D
:20551000071C00F0DD80A07A40080FD3787968B1E168890A0AD2B91D01AA05F0E5F80A2880
:2055300004D10321A0880DF0B5FCC9E0287B022802D1A07A0009F4D3A088797904F1080240
:2055500001F050FBA869002800F0BA804368002B00F0B68000210A46A0889847B0E0052172
:20557000E0E7002800F0AC804368002B00F0A88062780221F0E70CF093FF002800F0A08088
:20559000A86950B1076847B1206900906189227B637BE01C3C46A04792E060890121C2E779
:2055B00067784FF00008002F66D1A179490863D3EF69002F60D101A841460E2207F0DDFCC6
:2055D000A0880DF06BFC071C7AD0606940B97879B91D06228DF80A0001A80CF03DFD19E0AA
:2055F0006669307C062206F111018DF80A0001A80CF032FD07F10C00B91D06220CF02CFD65
:20561000B81D062206F111010CF026FD307C40F002007871A079C00839BF387900F0FD0017
:20563000387940F002003871A079000939BF387900F0DF00387940F020003871A1799DF8DB
:205650001120C1F3800010438DF81100080905D39DF8110040F008008DF8110001A821467F
:2056700000F024FB28B92878022103F0CFFF404627E0A8694FF0150810B3436803B3A08860
:20569000627801219847B8F1000F19D0A86943680321424660E7E078211D002205F024F806
:2056B0000A280DDA410001EB800004F10C0225300421C0B203F0AEFA02E0A08807F0E4FEA7
:2056D000012006B0BDE8F081740D00202DE9FE4F0E468246307AC10693461F464FF00009B6
:2056F0000CD558460DF0D2FB030000F0E8800A223146504698475FEA00094DD130780C9D1D
:205710000D9CDDF8388002281AD170680178407801EB002189B24FF42052891A012910D972
:20573000891E3AD0491E14D0FD397AD0491E00F08180491E6DD0491E73D0491E00F09580CB
:20575000ABE0002C2AD1F068017829800278416887E0002C22D101202880F1680A783A7016
:2057700000217089401C80B20DF08CFB298860B10278921C51182980418979704289120A57
:20579000BA7041680278F81C6CE0091D298004220021781C0DF0F8F893E0002C66D1F06887
:2057B0000688042129803E70320A7A700DF1020130460DF067FB040021D0D4F80C80BDF8D1
:2057D00002204FF6FF766B4631460DF057FB40B9237862683C4802210DF04CFB08B9ADF8B7
:2057F000006098F8000002280BD1D8F804100222381D0CF031FC2888801C288001E0ADF8A3
:205810000060BDF80000B870BDF80010090AF97057E0002C2AD1F068016850460CF0C7FD85
:2058300002E01CBBF0680088022129803870000A787046E0F0680DF0A9F880B2A042B8BFB2
:205850004FF007093DDB844208BF002205D008EB04028242B4BF4246021B2A8092B2F06832
:20587000011938460CF0F8FB2BE014B14FF00B0927E0F0680721298002783A7043787B7074
:205890004188B9704288120AFA7001793971C2887A71C088000AB87113E058460DF0E6FA74
:2058B0005FEA00090BD00F980290CDF8048000942B463A4631465046C847814601E04FF0A1
:2058D0000E094846BDE8FE8FE83F0100F0B5774C794E6568401EADF12C0D70D0401E6BA7D8
:2058F0006BD0801E52D0401E41D0401E04D0401E36D0401E32D02DE004F584700DF0B2FA95
:205910006B491020FEF774FF6A49C5B201AB10206A1EFEF76DFF48B9009560680221002299
:2059300048A30BF018FD0DF106000DE00C363046016806AF39608088B8806068002245A3EA
:2059500002210BF008FD3846656809F063FB0321034607E028460221002214E040A300E0B4
:2059700041A30221284600220BF0F5FC67E014200BF0D0FD60680221002241A30BF0EBFC7E
:205990006068032105220CF04BFE58E0012504F584708DF82950FAF701FE14200BF0BAFD80
:2059B0006068032105220CF03BFE40F205300DF129022946FDF7E0FF65683B46D1E7314640
:2059D0000A6808A802608988818000268DF808609DF824708DF807609DF821108DF80A7034
:2059F0009DF825308DF805109DF822208DF80B309DF820008DF806209DF823108DF80400CB
:205A100001AF8DF809102D49786848603A680A6008A809F0FFFA03460121324628460BF030
:205A30009AFC606802211DA332460BF094FC012140F205300AAA8DF82810FDF79DFF0BB0CD
:205A5000F0BDC0464E756D20436F6E6E733A2025640A00C0436F6E6E65637465640A00C028
:205A70004572726F720A00C0436F6E6E6563746564204164766572746973696E670A00C045
:205A900054696D6564204F75740A00C04164766572746973696E670A00C046C0496E6974FD
:205AB00069616C697A65640A00C046C020050020F17F0110097F0110100F0020EB09002072
:205AD0002DE9F04F0646880FADF1140DC0F0D7806C4F381D006841688D68CC68486800B10D
:205AF0008047B946694F002D08BF002C0DD038461C300368002BFCD00021016005B1A847C8
:205B100004B1A04760480BF08DFC3C4600256049E5616048216040F60A0CA0F800C0458085
:205B3000017B65F303010173AA46C0F804A0417B4FF0010B6BF303014173B268737C5580C2
:205B500011888646A1F60201C9B141F21E07C91B15D041F6E677C91B012920D8507E012B07
:205B700065F38200507606D0108B20F47C7040F43470108313E0108B65F30910F9E7507CEE
:205B9000012B65F38200507405D0108A20F47C7040F4347002E0108A65F309101082D6F897
:205BB000088075746046474600E01F467B6813B119888842F9D1C7F804E0797B65F303011D
:205BD0007973D9F86C303BB1D9680988C21F8A421ED0801F88421BD0338CDBB1C6F824A0E2
:205BF00006F12000458096F82C1065F3030186F82C1096F82D106BF3030186F82D10CEF82B
:205C100004009EF80D0065F303008EF80D0001E0C9F808502048036882680192C168406BC1
:205C30000093102220F0784040F0805003901B480291694605F00EFDE0690028FCD01848F2
:205C5000C9F8140099F81D00E56178B915480068006801465846884701280DD0787B6BF302
:205C700003007873104EC9F8146005E009F0BEFF0028FBD00CF06EFEE561C4F8008005B066
:205C9000BDE8F08F681A0020010007060010044001010E04EC2C00204C1300501800002198
:205CB000BD360000E001001045E200002DE9F04F734CDFF8C8A1E56988468146ADF1140DD3
:205CD000002D4ED1B9F1000F00F09680B8F1000F00F092800BF0E8FA06460A2E27DAD8F8BD
:205CF00014702674002F3DD0700010216A4600EB86002330C0B20BF06BFFB0B91020ADF117
:205D1000010111F8012FFF2A02D1401EF9D10CE05046007838B999F80600494600F0010012
:205D30000DF09CF801E00120A074E56919E004F1E60B0A2700265846FF2106220CF0A6F8A8
:205D500068B97F1E0BF10E0B06F10106F3D1607C002804BF0A2020744ED094F8366026743F
:205D700000E0267C0A2E47DA002D35D170000E214A4600EB86002030C0B202F04BFF207CCB
:205D900009F0CCFA6846FF21102207F0F6F8207C10216A467030C0B202F03CFF217C0E22C6
:205DB0000801A0EB410000194946E6300CF054F9D8F814206AB15046007840B9107C02F152
:205DD0001101002300F001000DF044F801E00120A074C4F81C804CE0AA68002A3ED12A69DC
:205DF000002A2FD16A690ABBEA683AB9A07B08B10AF01EFE0BF0DDFE01203BE070001021EF
:205E100000EB86002430C0B202F004FFE769217CFA68480000EB8100103225300421C0B215
:205E300002F0F8FEE1690020C86022E07000102100EB86002330C0B202F0ECFEE1690020B9
:205E5000486116E070001C2100EB86002230C0B202F0E0FEE169002008610AE070001C2177
:205E700000EB86002130C0B202F0D4FEE16900208860002005B0BDE8F08FC0465A4F002000
:205E9000740D00207CB56D4D044668680E4628B94FF00040002108F0EBFA686000213CA3D2
:205EB0000A460BF058FA20463DA3801E08D0801E61D0401E4CD0401E37D0401E22D00EE08D
:205ED0006868012E05D000210A460BF044FA37A357E000210A460BF03EFA39A351E06868A2
:205EF00000210A460BF037FA6868022100223AA30BF031FA01208DF803009DF80300002874
:205F1000FBD17CBD686800210A460BF024FA68680221002236A30BF01EFA01208DF8020069
:205F30009DF802000028FBD17CBD686800210A460BF011FA68680221002232A30BF00BFA5C
:205F500001208DF801009DF801000028FBD17CBD686800210A460BF0FEF96868022100227F
:205F70002DA30BF0F8F901208DF800009DF800000028FBD17CBD686800210A460BF0EBF9CD
:205F900029A36868022100220BF0E5F97CBDC0463E3E3E535441434B2041535345525400D6
:205FB0002A2A2A4552524F522A2A2A003E3E20494E5445524E414C204552524F522100C0C7
:205FD0003E3E20494E5445524E414C204657204552524F522100C0463E3E20444546415529
:205FF0004C54205350494E4C4F434B2100C046C03E3E2057524F4E47204150492043414C74
:206010004C2100C03E3E204943414C4C2054494D454F55542100C0463E3E204943414C4CD3
:206030002041424F525421003E3E204F5554204F46204D454D4F52592100C04620050020E9
:206050002DE9FC4F83F0004301E02DE9FC4F1F03FF0847EAD2574FEA42284FEA43095FEAE3
:20607000595906D147EA080A1CBF00210020BDE8FC8F57F000575FF4E06E1EF1FF0EF14567
:2060900005D14FF00000190D0905BDE8FC8F002B05D55FF0000AD8F100086AEB07070C03D6
:2060B000E40844EAD0544FEA40254FEA4106760D08D144EA050A19BF00210020191C101C61
:2060D000BDE8FC8F44F00054764504D10020090D0905BDE8FC8F002904D55FF0000A6D42EA
:2060F0006AEB0404B6EB090E08D5A2463C465746AA464546D046CEF1000E4E46BEF1360FB1
:206110005CBF4FF0000B23E0BEF1000F04BF4FF0000B1AE0CEF1390ABAF120092EBF08FA7D
:2061300009FB07FA0AFB4BEA080BDEF1200A07FA0AFA38BFBA4647FA0EF72DBF28FA0EF8AE
:20615000AEF1200E4AFA0EF8D04415EB08057C4154EA050A02BF00210020BDE8FC8F002C8F
:2061700058BF4FF0000A06D55FF0010A5FF0000E6D426EEB0404A6F101066D006441FAD58E
:2061900015F4806E11D005F480794BEA090B15F5806554F1000428BF761C0BD205F40079DC
:2061B0005BEA090B08BF25F4006525F4E0656D0044EB0404B61CDEBF00210020BDE8FC8F4F
:2061D0005FF4E06E1EF1FF0E76450AD34FF0000013F00043FF21C900C91D09051943BDE8F7
:2061F000FC8F270547EA1530210B41EA065141EACA71BDE8FC8F70472DE9F041684D4468BF
:20621000D0F80880ADF1380D696820680C914FF0FF310CF0A9F8083560682A6808A90A6087
:206230006A684A602A890A230A81002108AA0BF025FC98F80200002108F052FD00270A2528
:20625000606840213A4605F0E1FD012802D06D1EF6D183E0606848214FF4D57205F0D6FD7F
:20627000504D01283CD0606877213A4605F0CEFD022808DA606869213A4605F0C7FD0228DB
:20629000B8BF022700DB01270CF0C4F9B5FBF0F50CF00CFE0646022F06D060684121002258
:2062B00005F0B4FD68B114E060687721002205F0ADFD02280DDA60686921002205F0A6FDDD
:2062D00038B9606850214FF4007205F09FFD28B944E00CF0EBFD801B8542DCD800273DE0FB
:2062F00060680BA90CAA04230BF0C8FB002835D19DF82E00012831D19DF82F00AA282DD1C7
:206310000CF088F9B5FBF0F50CF0D0FD0646606877213A4605F07AFD02281ADA606869218A
:206330004FF0804205F072FD98B960687A213A4605F06CFD90B960680BA90CAA04230BF0B9
:206350009DFB58B99DF82C00C00934BF0227032704E00CF0ABFD801B8542D8D8277298F8F1
:206370000200012108F0BCFC8FB160680CF051FA68460BF079FF0C48049098F800006946A2
:2063900009F0B4FC6060002818BF002501D14FF0FF3520680CF0E2FA28460EB0BDE8F08179
:2063B0001043010040420F00A02526002DE9F04FADF11C0D0190049300280392109D0291BC
:2063D000119C059500F0BC80081C00F0B980101C00F0B680181C00F0B380281C00F0B080E0
:2063F000002C00F0B280206A002800F0A9805A4D676A281D0068002F00F0A280A16AFAF712
:2064100087FB40B2071C08BF6FF0020700F0948020786288216A84F82C7000EB80001218E8
:20643000143290B288474B49086030B928464068FAF772FB4FF0FF377EE00846B4F802B01D
:206450006688277894F800900568204608F06AFD2078AB44C01C8010CBF800002078B91931
:20647000491901F1040AC01C8010CAF80000207806EB4703591901F10808C01C8010C8F809
:206490000000217809EB49094B469A19521902F10C09C91C8910C9F800102178D8198019E4
:2064B000401900F11005C91C88100199286022780BF1040005F0CEF8227802990AF1040045
:2064D00005F0C8F82278039908F1040005F0C2F82378204651464246FEF7E8FE071C14D112
:2064F00000955846514642464B460CF0AFFC80462278049809F1040105F0ACF82278059837
:20651000291D05F0A7F84FFA88F7124821786288006801EB81015218002106F02EFD0D4E0F
:20653000606A0146306888470B484068FAF7F4FAF8B2992808BF002784F82C70384606E024
:206550001CB16FF0010084F82C006FF0010007B0BDE8F08F884F00203C1800202DE9F04F5B
:20657000ADF1240D079001F053FB5F4800780BF059F85E4D0024012806D90C3804D0401EAE
:206590000ED0401E09D006E00BF09AFC022804BF01210C1C06D0696805E005211F2401E052
:2065B000032107246960524A1068C0F38150012806D152F80C0C0127020E07FA02F0044347
:2065D0000BF036FF05F1440AFF2253464018401E471C28607F1E03F8012BFBD1079A126831
:2065F000002602F0FF03FE2B1DD0DDF81CC0964633460EF0FF07FF2F0ED0B84205D3B94278
:2066100003D80122BA40144201D0022069E016430EF0FF020AF802305CF804EF5B1C0EF098
:20663000FF07FE2FE7D1092003F0AAFF07980121A86005F128000AF071FD00274FF0010BD9
:20665000B9462846804600F198050BFA07F0044216D1064204BF07F0FF0141F4C04104D034
:206670001AF80700079951F82010224801F042FFF8B24FF0FF310AF0F9FFC5F8009001E003
:2066900004202860D8F800007F1C2D1D8742DCD904A80BF094FE184C184A2078102104AB94
:2066B000059008F10C0009F021FC68460BF0D0FECDF80C906A4660681149029008F1640081
:2066D00009F006FD0F4951F80D0C20F4F85040F4005041F80D0C0C4FC1F8FFBF4846C7F8A3
:2066F00000B009B0BDE8F08FA12D002048100020B43F0050007FC76724440100A91C010078
:20671000BDFB00000D3009400800094061480178002900D170472DE9F843491E032984B0EF
:2067300004D9891F012940F2B180A9E05A4CDFF86C912068DFF8688103685A4E03F10805D8
:20675000062205F1080102A80BF086FC0622A91C68460BF081FC2878C1091D2700F00F0219
:20677000032AC0F3801537D16079C0F3800081421ED12169062202A80BF040F900287AD0CC
:20679000694628460CF0FAFB002874D0314668460CF0F0FBFF286ED04743D8F80000807AAA
