:200000000040002031C2000001C9011001C9011001C9011001C9011001C9011001C901106B
:1C00200001C9011001C9011001C9011001C9011001C9011001C901103FC9011089
:20003C002DE9F04FD14C04F108012046ADF1340D0BF0EAFD04F128050021284600F0B6FABC
:20005C00CB4904F1640741F2883201233846E5600BF0A6FF4FF0804000210BF0B3F9DFF8FE
:20007C0030831F22062360604146102004F034FE00265020ADF816004FF44871ADF8181090
:20009C00C44D8DF8276004F14902ADF81A604FF47A70EE811A21ADF81C004FF4427002F049
:2000BC00AFFE40F20730072104F1180202F0A8FE4FF4447001210DF1270202F0A1FE40F23C
:2000DC00113002210DF1160202F09AFE40F21230022106AA02F094FE40F2133002210DF19F
:2000FC001A0202F08DFE4FF44570022107AA02F087FE04F1340032461523C5490090102061
:20011C0004F0EAFD414610200622A02304F0E4FD414610200722A02304F0DEFD4146102048
:20013C000822A02304F0D8FD414610200922A02304F0D2FD01208DF828008DF829008DF884
:20015C002A60BD4F8DF82C604FF4806203468DF82B0039460AA80090102004F0BDFD0DF121
:20017C0029003946009040F202420123102004F0B3FD0DF12A00394640F2034201230090EB
:20019C00102004F0A9FD0DF12B00394640F2064201230090102004F09FFD0BA839464FF46E
:2001BC00836201230090102004F096FDB54910204FF0FF3204F090FDB34910204FF0FF3218
:2001DC0004F08AFD1027DFF8EC82BB48BB4A0097132341460190384604F07EFD3846B84BB1
:2001FC00B84A0090414601930B2304F075FD69782878A1B904F1100129620DF033F905F117
:20021C0054070096024605F14400019005F11C030297AD490393AB78102004F05DFDAB49EF
:20023C0004F12002102004F057FD20780DF01AF9A7490246102004F04FFD20780DF012F923
:20025C00A4490246102004F047FDA349102004F043FD60683146A4A30A460DF078FA4FF60B
:20027C00FD7BDFF880A2DFF87492A0689C4A00214FF0FF3300F09EF95FEA0008F5D00020D7
:20029C0004900DF1260104AA05A80CF0C7FE002879D1BDF814100120074610296ED12078A4
:2002BC009DF82610884269D1049E30884FF6FF71814263D03378913B36D01F3B5ED1707860
:2002DC00162818BF002005D138460DF0F7FA3846C9F80060636980B9317960687E2904D0FA
:2002FC007F2916D1318984A301E0317A86A30091002205210DF02BFA0BE083B9A849A94AB7
:20031C00CDF800B01020002304F0E6FC6369C2B22AB131790836304600F050F92EE043F030
:20033C0002030027636129E073780E3B02D09B1E20D023E0B08842F2030181421ED1B168BB
:20035C000E78DEB9491C0DF11E000A68496802600DF11E064160307890490DF11E0200F00C
:20037C00FD003070102004F0B7FC07E00802002015E600000820002104F080FF049810B1C8
:20039C000FB10EF0EBFA5FEAD870C0F08B8083E001CF0000AC080020E668304600F012F98C
:2003BC00864208BF002702D087680BF0A9F9381C72D03888401E69D0C01E3FD0001F29D01B
:2003DC00083866D1606980081DD3D9F80060D6B1708831790836324600F0F8F80646162EC9
:2003FC0003D0042E01D00DF069FA63695EB933F00203636107D16A496A4ACDF800B0012304
:20041C00102004F069FC78680BF07AF941E0C046A99D0000786806783EB1CDF800A0606802
:20043C00042100223CA30DF092F9CDF800A05A492A8A0023E4E7C046BD3500007968BE7839
:20045C0062680878AEB1012E0CD0022E07D0032E16D1002808BF34A30CD038A307E078B918
:20047C003CA307E0002808BF3EA303D041A3009000E045A31046022100220DF068F97968E1
:20049C000846C1E759DA00009DDC0000B87804F02DFB38460BF034F9E06800F09BF80028B9
:2004BC003FF47AAF5FEA5800FFF4DFAE3E4800F095F8DAE6E1D50000DCFF00000806002021
:2004DC00BCFC0000980A00200BC400002DDF00005188011031810110C5AB0010841D0020BD
:2004FC00010000C040E20100424C45205065726970686572616C00C04D54552053697A658C
:20051C003A20256400C046C046432056696F6C617465643A2025640050617373636F646520
:20053C003A20256400C046C0426F6E642073617665207375636365737300C046426F6E6402
:20055C002073617665206661696C65643A20256400C046C0426F6E64696E672073756363F3
:20057C006573730050616972696E6720737563636573730050616972696E67206661696CAB
:20059C003A20256400C046C050616972696E672073746172746564009DD0000095B40010EF
:2005BC00D5B80000E9E100006C020020DFF800F0A1B60110DFF800F0F99B0110DFF800F0D8
:2005DC0089840110DFF800F019BD0110DFF800F0DDFE0010DFF800F04FBF0110DFF800F0D4
:2005FC001FBE01102DE9F04FD04C04F118012046ADF1340D0BF008FBD24D002604F1A40A47
:20061C004FF6FF700123667032462082294650460BF0C6FCCC480223324629460BF0C0FC5D
:20063C00CF480423324629460BF0BAFC04F14408042010223146A070404609F027FE04F111
:20065C00540910224846314609F020FE04F11C073E6004F10A052E7007206072DFF80CB3EC
:20067C00E67102222672594610200346CDF8008004F032FB102003225946CDF8009003463B
:20069C0004F02AFB0422102059460097134604F023FB4FF0080A4FF003094FF0010B05F151
:2006BC002A00079005F17900089005F11E00099005F15A000A9024350B9517E06078A28FC6
:2006DC00E18FB4F84050B4F8423006280ED1ADF80A20ADF80C10ADF80E509B48ADF81030CC
:2006FC0000F03AFA584602A907F0B8FDA069B64A31464FF0FF33FFF75DFF071CF6D00596FE
:20071C0006A80DF11A0105AA0CF088FC002840F0C281BDF818102078102940F0B7819DF881
:20073C001A10884240F0B281059D29884FF6FF728A4200F0A0812B78A23B00F083812E3B83
:20075C0040F0A481A978B046002900F03F81891E00F00E81491E012940F2D680891E00F062
:20077C009A80491E6ED0491E5BD0083900F05A81891E40F05D8194F83A10A8880529ADF872
:20079C00080046D070488DF812B000F0E5F994F83A0001281ED004281CD003280DD002282B
:2007BC000BD00598C188ADF80A100189ADF80C104189ADF80E10818927E0A18FE08FADF870
:2007DC000A10B4F84020ADF80C00B4F84210ADF80E201AE0A08FE9888842D8BF081CADF891
:2007FC000A002989E08F8842D8BF081CADF80C006989B4F840008842D8BF081CADF80E0066
:20081C00A989B4F84200884200DC0846ADF8100001E08DF81260AD49102002AA04F05CFAFF
:20083C0006E14F4800F098F96B78002B40F00081E88860822889A0826889E08242480DF0DF
:20085C00EBFEF5E0AA88A049102004F045FA07984146062209F01AFD6682A682E682A87949
:20087C002073394800F078F93D4800F075F9D8464FF6FF702379208253B9A879082814BFC4
:20089C00042005206070A069594600F069F9CFE084F80190CCE06B787BBB291D0A68079851
:2008BC000260898881800623637068892082E8896082288AA082688A94F83A10E082E87868
:2008DC000129E07218BF02290BD19C4910201F2204F002FA4FF47A7180B241431A480CF01A
:2008FC0019F968890423009093490193EA7810202D1D2B4604F0F0F99DE06878312840F0A2
:20091C008E80E67004202EE06B78002B40F08780A878E1896278032818D0E078257939B981
:20093C00012814BF2671E67008E0C046AC080020054303D082480CF0EDF86278072AE1D16D
:20095C00062010E095E6000074090020062A09D0E578002D08BF84F801906CD0022002E0A6
:20097C00980900200720607065E0C046F1DE00006B78002B53D1EB7861789BB902291ED0AE
:20099C0007291CD0062902D12079012817D1032915D06B480DF040FE88B9A069594600F09B
:2009BC00DFF80CE00CF05EFD0246A07961490090089843460190102004F08EF968706D7844
:2009DC00002D2CD134E0C046070000806B7833BB5C485749009002221020034604F07CF985
:2009FC0059484A46524900901020034604F074F9ED1C296809980160A9888180207884F8C3
:200A1C0001B00CF02FFD02465B460A9D6079494900901020019504F05FF9C0B258B184F84D
:200A3C0001A008E0AA8841491020052304F054F9B8F1010F2AD1256A45B3296831B3607834
:200A5C00884723E06879132820D12889012808D1607B022805D13F4800F07EF80CF028FB01
:200A7C0014E036491020052204F036F981B239480CF050F80AE06888C00B07D33348042255
:200A9C002B4900901346102004F026F9059810B10C380AF035FE2579E078790831D355EA11
:200ABC0000032ED02046007895B9E279217A8DF808200B9D8DF809102B680DF10A010B60FD
:200ADC00AA888A8006E0C046CDA60000051601108DF80890627A8DF81020A17A8DF81110C4
:200AFC000CF0C0FC1049024602AB102004F0F4F838B1256A84F801A01DB1296809B1504680
:200B1C008847B80803D31249304607F0A7FBF808FFF4ECAD607B401E3FF4D0AD401E7FF4A4
:200B3C00E5AD0CF0C5FAE1E559440110C1170110416D0000094501105576000061E20000D4
:200B5C0050090020F008002000090020C8080020E608002098090020DFF800F0B9BA0110B5
:200B7C00DFF800F055A401102DE9F84FC04CA178FF2904BF00200DF065FAA0780DF086FC08
:200B9C00044604F1680504F190062968086810B10021E1830CE0A87B002804BFA97E002971
:200BBC0006D13078002801BF207F0128608CE0832189E08B4118491C6181204600F06CF92B
:200BDC0001281EBFAB480178012904D121890020491CE08361814FF6FF77A87E01280DD12C
:200BFC00AA8B6189208900F05BF938B1218960894A1C93B298421BD0A88B0FE030780128EE
:200C1C0016D172886189208900F04AF980B1218960894A1C93B298420AD0708892B29042E0
:200C3C0006D03818608180B200F03EF93F18E78304F5967999F8040020B120890021401CE3
:200C5C00E183608104F12E07A87E012811D12189A88B4B1C9BB298420BD1608100F024F9A3
:200C7C008046B988288C01FB0808204609F000FE01E0B7F80480B4F81EC022687E4ED2F876
:200C9C000CE00CF1010000FB08F340F6C41000FB03F18E44C2F80CE03668DFF8E0E1367803
:200CBC00BEF80080764AB609032E11D1D67BF60748BF4FF000080BD408F101081FFA88F63C
:200CDC00012E12BF668AB9F8066006F2DC5600E0668A5E434FF4C87AB6FBFAF6761C6661D7
:200CFC00AEF80080A3614FF0180894F806A084F820C008FB0AFADFF88CC1DCF800E0236857
:200D1C000EF1080656F80AB0C3F810B094F806A008FB0AFACDF800A0D3F80CB0D4F814A082
:200D3C00ABEB0A0ADDF800B046F80BA094F806A008FB0AFA56F80A609E600EF10C06A37963
:200D5C0008FB03F30EF10C0EF65C06F0F00646F002060EF803604FF0000ADCF800E0A67964
:200D7C000EF1020308FB06F623F806A0464BA6791B68760103F1140AD4F814B05AF806A04F
:200D9C000AEB4B0A03F1140B4BF806A0AD7E022D0BD1A5796D0103F1140697F800B056F894
:200DBC0005A000FB0BAA46F805A0BD88D27BA779D60736D508FB07F70EF10802D659A6F571
:200DDC00A86A0EF1080646F807A0A77908FB07F7D2592768511A3961BA6003F11402A179D5
:200DFC004901575807F5F667575003F11401A27952018958C9F800106843244AA179156B02
:200E1C0003EB41162968401AA0F51670F0612049A07903EB40100B78012B14D10121C17271
:200E3C0014E003F114027F01D1592A464243A1F5E661A2F516729142DED30821204600F0FA
:200E5C0037F8012011E0916A4A78C272A179DCF8000008FB01F281182268516007200D490F
:200E7C000870204609F088FA0020BDE8F28F00BF684E0020784F0020084F0020EC1E00209A
:200E9C005C4D0020804E0020844E002090000100734F00206F4F0020DFF800F035440110EB
:200EBC00DFF800F069860010DFF800F091860010DFF800F0A98500102DE9FF47484C94F8E1
:200EDC00E700002876D13E4E01273C48F57C84F8E770736884F8E6500068C4F81031C0F37F
:200EFC00801084F8E80068460DF0F0FC002504F10C0001956B468DF80050324902952A4687
:200F1C000AF00AFE304904F130006B462A460AF003FE2E4904F154006B4681462A460AF057
:200F3C00FBFDB16838468847DFF8B0802848327D08F104030078284E1868C0F3815A22B142
:200F5C00BAF1030F04D184F8E170BAF1030F17D0BAF1020F14D0BAF1010F0ED002200CF01B
:200F7C0007F91C480068016804208847012804D030683221B1FBF0F10DE00BF0C5FC12E01D
:200F9C0002200CF0F5F8BAF1030F0CBF4FF47A7142F210713068B1FBF0F148460DF004FD0E
:200FBC0048460DF003FD40460068C00802D228460CF0DEF800200090BDE8FF871410094078
:200FDC001CFF00004BAA0000C98900006DA90000F51E0020E0010010E01E0020B03F0050FC
:040FFC005C0C002069
:20100000B41200001810000035BA0000FDB301106DC00110FDAE011099B5011000000000D9
:08102000000000002D0000009B
:20102800B01200003C100000B1C00110A9BF011067C0011069B80110000000000000000035
:041048003000000074
:20104C00B012000060100000BDC00110CDB30110D9BD01106DB3011000000000000000005B
:04106C00310000004F
:2010700000000000F412002004000000000000000000000020000000E8C901103000000024
:2010900028100000FC1200200400000000000000000000000C000000D8CA011018000000FF
:2010B0004C1000000413002004000000000000000000000024000000F0CA01101800000082
:2010D000000000000C1300200400000000000000000000001000000018CA01102C0000008E
:2010F000001000001C130020040000000000000000000000200000006CCA011024000000F2
:20111000FFFFFFFF241300200400000000000000000000002800000090CA011024000000B1
:20113000FFFFFFFF2C1300200400000000000000000000001400000008CB01101800000030
:20115000FFFFFFFF3413002004000000000000000000000058000000B4C9011034000000FE
:20117000FFFFFFFF3C1300200400000000000000000000001000000020CB011018000000CC
:20119000FFFFFFFF441300200400000000000000000000001C000000B4CA011024000000F9
:2011B000FFFFFFFF4C1300200400000000000000000000003800000044CA01102800000021
:2011D000FFFFFFFF541300200400000000000000000000005400000078C901103C00000096
:0811F000010000006400010091
:0411F80001000000F2
:0411FC0000000E00E1
:0412000000000F00DB
:0412040032000000B4
:0412080001000000E1
:04120C002812002084
:0412100000020000D8
:0412140000000000D6
:0412180001C90110F7
:04121C0000000000CE
:0412200000000000CA
:0412240008000000BE
:0412280000002200A0
:04122C007810002016
:0412300000000000BA
:0412340000000000B6
:0412380008000000AA
:04123C00E811002095
:0412400000000000AA
:0412440000000000A6
:04124800080000009A
:04124C00000000009E
:04125000000000009A
:041254000000000096
:041258000000000092
:04125C00010000008D
:041260001011002049
:041264000600000080
:041268000100000081
:04126C00A80F0020A7
:04127000000000007A
:041274000000000076
:041278000002000070
:04127C00000000006E
:02128000290043
:02128200010069
:02128400250043
:02128600300036
:02128800310033
:02128A002D0035
:02128C0001005F
:01128E00015E
:0812900003000000F4FF000060
:0812980000000000000000004E
:0412A0000000010049
:0412A4000000030043
:0412A80013C401105A
:0412AC0017E4000043
:0412B000B812000070
:0412B400B81200006C
:0412B8000000000032
:0412BC00AC12002050
:0412C00093E50000B2
:0412C4002000000006
:0412C80060FF0000C3
:0412CC0018FE000008
:0412D00029C101101F
:0412D40057E10000DE
:0412D80043E40000EB
:0412DC00A1C7011095
:0412E000A3C701108F
:0412E4000000000006
:0412E80037000100CA
:0412EC00C0FB000043
:0412F000D8FB000027
:0412F400A8FB000053
:0212F8000200F2
:0212FA000900E9
:0212FC000100EF
:0212FE000000EE
:0113000001EB
:0413040021E50000DF
:0413080029CD0000EB
:04130C0031DB0000D1
:04131000D1CF000039
:041314006BD000009A
:041318004DC00000C4
:04131C005D990000D7
:04132000BBE7000027
:0413240065B60000AA
:0413280015C70110D4
:04132C0025C70110C0
:201330002DE9F04F0F46CD4C0168E16241688068ADF11C0DE060C548A1608047C448E16A6A
:201350000160A168DFF810A34160E168DFF804938160CE49002FA346C1606FD03D68E878BC
:201370008DF80C0028798DF80D0003A80DF080FEA86808B1C6490160E86808B1C5490160C2
:20139000C54C287820706878BE686070A878B268A0703178A2607368E1702E696360EA6958
:2013B00026627968E2620868E06068696062A8697B68A062286A9E68206395F8240084F8EF
:2013D00034001EB900200CF043FE00E066617868C06818B900200CF03BFE00E0A0617868FF
:2013F000006918B900200CF033FE00E0E0617868406818B900200CF02BFE00E020612869A5
:201410002062F86881680E6806B9D24ED0494FF001084E60C66881F8018036B900200CF05A
:2014300017FE4D462E68F86801E04D462E6000685446FB68A0615868E06107E000200CF092
:2014500007FE4D462E684FF001085446361DC7493668621C04F114035020B04710B1286829
:2014700080688047DBF808008047C24E002781463B46BF4877706946206104223370384627
:201490000BF0DEFA0098B0F5801F0CD020B90CF0F7F805F09FF908E009F04EFD0DF024F81B
:2014B0000420708001E00CF0EBF83846BA4EA0602B68B760986980477060AF4880F8008091
:2014D0003946418014200DF0E5F8FF211422A06208F0E2FEE01CFF21022208F0DDFE142037
:2014F0000DF0D8F8A54F386038680021142208F0D3FE002000F052F940460BF0B1F9A04855
:201510000188FF2906D1022101807822001D002108F0C2FE03200DF0A7FD04200DF0A0FD7D
:2015300005200DF099FD06200DF092FD07200AF063F8944E0820307006F124000DF084FD72
:201550000AF018FA06F1360A05200A2152460CF0C7FC38B10020C0F10901401C0AF8011B53
:201570000A28F8DB3078102106F000F82B68864909200DF10E025E68087001AB10200021BB
:20159000B047A06AE1690A260A309DF80E20761E00F8012BF9D1891EE161DBF80C104846DB
:2015B000884704F120002B68626A059040461E69DFF8D88104F120034146B04710B128681F
:2015D00080688047B8460CF0BBF95FEA000903D007F084FB4FF0FF39002643E0029821691F
:2015F00010F8062CA0F10C07032A03D1002939D0884737E0A16A9DF810C00A223046491E6B
:2016100011F8013F9C4506D0521E00F10100F7D14FF0FF0A01E05FFA80FA2868BAF1FF0F4B
:2016300000F108001CD038790BF022FBB979012904D0022904BF0299887001E00299087047
:20165000029950460CF092FB0CE0C04641490010F84400207013002070110020700D0020F7
:20167000006880472868C36904A902AA0DF10F0098470028B2D0D8F800007700C35B6BB9F7
:20169000761CF6B20A2EF8DB2BE0C04688F0000089D5000031E20000401000200A2E20DA59
:2016B000DBF808008047D8F80010002231F807A0CA53DBF80C108847354850F8262026702A
:2016D0005146304690470646FF202070DBF808008047D8F800107A5A16437E52DBF80C10AD
:2016F00088470CF02DF90746B9451AD007B9294FE069B84238BF071CDBF8080080478146B6
:201710002868016A206A8847626A28681F49059B521C6262C6683846B047DBF80C104846AF
:201730008847A768296860691431AFB9D8F800000A270026835B33B1096960698847296830
:20175000D8F8000014317F1E06F10206F2D107E0CC1200202BBF000009698847296814311F
:2017700009684FF0FF3088472DE7C046C5DA0000A9E2000064130020F40F0020E41E00208B
:201790000C0E002038070020F61E0020B9CC0000A0FD00008EC2F528841E00202DE9F84FBE
:2017B000DFF8BC13DFF8BC23DFF8BC5308700821002010600D23DFF8B40340F237320170DC
:2017D00043808280DFF8A8030560AC7EDFF8A4030470FF2CE97E417008BFFF292A7F827064
:2017F0006B7FC370AE7F0671ED7F457115D1FF2A08BFFF2B11D1FF2E08BFFF2D0DD1DFF83F
:2018100078130A7802704B7843708A788270CB78C3700A79027149794171DFF8601302782B
:20183000DFF85C83DFF85C93DFF85C730A70FF2543784B7082788A70C378CB7002790A7102
:201850004079487188F8005088F8015088F8025088F8035088F8045088F805500020CB49E3
:201870000880D9F83440CA49607808702278C9493A70A0780870A2681079C74A411E1170BE
:20189000E078C649C64A0870E068106008B90CF0DFFB2069C34E306008B90CF0D9FB3068A7
:2018B000DFF804A301688847326852F8041F50468847BE48BE49CAF82000CAF82410606948
:2018D000BC49086008B90CF0C3FBA069BA49086008B90CF0BDFBE069B849086008B90CF0B8
:2018F000B7FBDFF8DCB2B74C9BF804000CF0D2FE0028206075D09BF80500B34E0CF0CAFE11
:20191000002830606DD09BF80600DFF8C0A20CF0C1FE0028CAF8000063D09BF807000CF082
:20193000B9FEAB49002808605BD039789BF80000891C484380B20CF0ADFEA64900288860E5
:201950004FD03878002862D0BBF80210484380B20CF0A0FEA04A0028506042D038780CF0B2
:2019700099FE9E49002808603BD0387840000CF091FE9B490028086033D0387818214843D8
:201990000CF088FE974A106058B3387840010CF081FE9549086020B3387800010CF07AFEAF
:2019B00092490860E8B1387800010CF073FE90490860B0B13878302148430CF06BFE8D4AB3
:2019D000106070B18C483978007848430CF062FE8A4A106028B138780CF05CFE8849086026
:2019F00018B9BDE8F14F05F01FBA4FF0000B09E00CF020FE00214180816001800223037129
:201A10000BF1010B39785FFA8BF08842F0D32268694F0120107121680D73206845732168E6
:201A30008D732068C57321680D7400212068457400202268D172A0222168487103212068CD
:201A5000C28001720720226850720021206881722821206801224182C2760020216848775B
:201A70000022206880F85E200121226811770120216881F85D0001223068027131680D73BB
:201A90003068457331688D733068C57331680D7400213068457400203268D1720022316839
:201AB0004871306882724FF420703168C88008818A7401213368D974DAF800201573DAF840
:201AD00000104D73DAF800209573DAF80010CD73DAF8002015740022DAF800104D740121A8
:201AF000DAF80030DA720023DAF800201171DAF800104B71DAF80010C88008818B7205207E
:201B1000DAF800209374DAF800103E4AC874106880473968054608688047396851F8042F97
:201B300000209047D9F80C101C4B0A881878364902430A802846354A136898470C213448EA
:201B50000DF07EFA40460DF077FA0DF071FABDE8F44F034800784FF4005105F007BD00BFED
:201B70006E4F0020044F0020B63F0050604E0020084F00202C4E0020E81200503C4E0020ED
:201B9000344E0020900001007B4F00200C4F00206D4F00206B4F0020724F00206C4F00202B
:201BB000F04E0020F44E00207C4B0020A5E60000C5E60000F84E0020FC4E0020C81E002062
:201BD000A0120020104F0020144F0020184F00201C4F0020901E0020684E0020004F0020FC
:201BF000CC1E0020804E0020844E0020884E00208C4E0020904E002087130020D01E002035
:201C1000D41E0020780D0020544F00207C0D0020F84D00202DE9F84F0C46E00788B00BD57E
:201C30000CF018FD28B100218160B348006800B1804784F001005CE1A0070FD5002100234C
:201C5000069105910491039302910191009101223C200DF0E9F984F002004AE11D256007BE
:201C7000A64EA74F40F18A80002107918B46A5488178FF2904BF00200CF0EAF9386890F8AD
:201C9000A0000CF009FC80463868C07A98F82691022818BF032808F5907A06D106F10D009E
:201CB0000DF0BEF908B906F1070B514648460DF0B3F988B33868807A002818BF012804D1F6
:201CD000314650460DF0A4F904E05246494630460DF09AF9FF2834D005FB00F906EB090519
:201CF00006225146E81D0CF0EFFA16F80900396840F00209E81D07900622887E00F001007D
:201D100088F8260105F1010A386800F1140108F590700CF0D9FA14E0514648460DF070F91A
:201D300078B15246494630460DF06EF9FF2808D006F10D01454348190DF072F908B949F01A
:201D5000020908F12C004B46017806914289120905920122B8F822100491C0880799029110
:201D700040080390CDF804B0CDF800A0002098F806100DF059F984F00400BAE020060FD569
:201D900000210023069105910491039302910191009101223B200DF047F984F08000A8E0AA
:201DB000E0044BD5F11D06F10D000DF025F93868017A012918BF042931D1C17A02291EBF54
:201DD0000329817E01292AD1817E00F1140230460DF01AF9FF2811D04543354405F10D000B
:201DF0000DF01EF950B9E91D05F10D000DF004F938680622E91D14300CF066FA3868C07A6B
:201E1000022818BF03280AD106F10D000DF008F928B938680622F11D0C300CF055FA3A48E9
:201E300042683A4800784FF480510AF081FA10B18E2008F035F984F480505AE0A00505D5CF
:201E50000CF0C0FC324901200860FEE7600504D507F0C7FB84F480604BE0600405D5812078
:201E700008F01EF984F4804043E0A10440D5294D286810B100200CF0EBF8274E4FF0FF3085
:201E900028600DF0B5F83168244D51F8202F684690472349234B486A8A6A009001920293A1
:201EB000C86A0268086A0392ADF810000A6B1178002904BF5068002805D19068002804BF37
:201ED000D068002806D02970506868609168A960D068E86029463568134A2E6813486B4616
:201EF000B0471349086003F0EDFD84F4005000E0002009B0BDE8F08F204F0020AC450020F5
:201F1000104F0020684E0020784E00206E4F0020FC002043044F0020F04E0020684500209C
:201F30004010002055E600002C4D0020881D0020EC4E00202DE9F04F09AFADF13C0D0890A2
:201F50000A92388809911E46ADF81800101C08BF002000F07581017800274FF0010B401C1A
:201F70004FF0FF39B846DA460A9061E1252940F056810178401C0A902D2918BFADF80680C4
:201F900004D10178ADF806B0401C0A9030291CBF4246434604D10178401C5A465B460A90C8
:201FB0002A29CDF800804D4617D1049330680A9BCDF80890C01C20F00300001D306050F8E9
:201FD000044C1978002C009403F101000A9018D5ADF806A06442009413E044460AE0600088
:201FF00000EBC4004018A0F130040A9801780094401C0A90302901DB3A29F0DBCDF80890A0
:2020100004932E2929D10178401C2A290A9011D13168CDF80880C91C21F00301091D31608D
:2020300051F8045C002D48BF454601782B46401C0A9011E0454643460AE0680000EBC50041
:202050004018A0F130050A9801782B46401C0A90302901DB3A29F0DB02930AB1224604921F
:202070006C2904D04C2918BFADF8048004D10178ADF804A0401C0A900BA8CDF80C800FAB27
:2020900007906429059300F0828069297FD0BDF818C075296DD0782969D06F2965D07029F9
:2020B0004ED063293ED0732922D00A98401E0A90099801281AD966490C68B5F1FF3F03D099
:2020D000A84288BF6D1C05D86FF00041814294BF0D1C099D029508A80AA932466B46A047CA
:2020F00009993F18091A0398099165E0454617E03068C01C20F00300001D306050F8040C2C
:20211000BCF1010F014608B94FA0014607910CF0F5F90390B5F1FF3F4FD0A8424DD90395F4
:2021300028464AE03068C01C20F00300001D306010F8040C8DF82C005D46039558463CE005
:20215000082035680490E81C20F00300001D306050F8041C082210230FA808F037FC401E4D
:20217000079040210170079823E0082302E0102300E00A233068C01C20F00300001D3060C3
:2021900050F8041CAA42BCBF2A1C04920DE03068C01C20F00300001D306050F8041CAA420F
:2021B000BCBF2A1C04926FF009030FA808F00EFC07900599081A0390009C241ABDF80650C5
:2021D00000945DB906E008A8202109AA0BF0EFFA7F1C009C641E0094F5D50398401EB0F126
:2021F000FF3F03900FD1BDF8060001281CD10098401E009018D408A8202109AA0BF0D7FA6B
:2022100000987F1CF4E70798017809AA08A80BF0CEFA0798401C079003987F1CDEE708A825
:2022300009AA0BF0C4FA7F1C0A980178401C0A9000297FF49BAE089808B1414601703846C2
:202250000FB0BDE8F08FC046286E756C6C2900C070000100BB482DE9F84F0025BA4CB849BC
:20227000056094F8E200002800F06581012800F02F81B64E02283CD0032840F05C8151F8F9
:20229000250CD4F8B8100029A0F5C060C4F8D400B8BF49420028B8BF4042814226DA4FF0D6
:2022B0008057D7F8A4014568B4F8BC0030214FF47F42082300903046A847D7F8A401456818
:2022D000B4F8C00004214FF4F802122300903046A847D7F8A401B4F8D070456820214FF465
:2022F00040620A2330460097A847012584F8D8501CE151F8258C0CF065FA2F4600B9012791
:202310003946934F38680028FCD0B146012609F10409D9F82CA03E6009B10CF059FACAF392
:202330000720C4F8BC000CF04DFAAA4600B9B2463B68002BFCD0D9F800B0BAF1000F3E6097
:2023500001D00CF045FACBF38440C4F8C0000CF039FAAA4600B9B2463B68002BFCD0D9F828
:202370001C90BAF1000F3E6001D00CF031FAC9F38120C4F8D000B8F5C061C4F8B81000F026
:202390009C8094F8D80068B9C4F8D410D4F8C000C4F8C800D4F8BC70C4F8C470D4F8D03028
:2023B000C4F8CC30D4F8D400D4F8BC30002854BF02226FF0010204F1C8010F6800EB4000DC
:2023D0008018421000EB927207EBA2000860D4F8C810C4F8C43000291CDD1E293CDDD4F876
:2023F000CC0030B93429B4BF15391E21C4F8C81025E02A29BABFD4F8C8000B381E20C4F885
:20241000C800D4F8C4003F28B4BF401C3F20C4F8C4001FE0D4F8CC00032812D011F10B0F7F
:20243000C6BFD4F8C8000B30301CC4F8C800D4F8C4000028C4BF401E051CC4F8C4500325B6
:2024500008E011F1150FC6BFD4F8C8001530301CC4F8C800C4F8CC504FF08057D7F8A401CE
:20247000B4F8C43030214FF47F424568374800930823A847D7F8A40104214FF4003211233C
:20249000456832480096A847B4F8C860D7F8A40104214FF4F802122345682C480096A847FB
:2024B000D7F8A40120214FF440620A23B4F8CC60456826480096A84701E084F8D85040F216
:2024D000FF50404502D8801C40452FD2082030E051F8251C1F4F4BF2F5204843060A38685F
:2024F000C0F3814001280CD11B480068006880470AF020F90CF072F93111C010484306EB50
:20251000E03694F8E50030B91448006820F07F403618760801E084F8E5501148310C06604E
:20253000012741600F4D8760287808B90B2000E0052084F8E40003F035F9BDE8F88FC0463B
:202550002D400C402C500C405C0C002000A00C4000800C40B43F0050EC01001010200940F1
:202570003C600C4031FF00002DE9F84FB34D696884B0019121B905B0BDE8F04F0CF034BDDF
:202590000978DFF8BC82AF4EDFF8BC92DFF8BCA201291CBF0229042946F2A81741F64C5B0C
:2025B00005D0402918BF802900F096803CE10CF045F90028FAD00198007803F0E5FF009086
:2025D000446814B900200BF043FD9AF8010000285CD000F043F90BF05FFF02900168009818
:2025F00001914F6808F038FB022825D000990A78012ADBD196490A68137A19F803103170A3
:2026100018B90CF0EDFC5844A0602069C17E01F0EF01C1762069C17E41F08001C17620693E
:20263000C17E01F0F00141F00201C1762269B96888484118D1614BE001980178802911D12F
:202650000820854930700A78012A03D09AF80100022801DB38690CE0D8F828003A6901781A
:20267000D1720DE07C49072030700A783869012A02D10121C17203E0D8F828104A78C27237
:202690000298817901988AF80210C8E0009800288CD00199009A0078914205D101281CBF4C
:2026B00000200BF0D5FC15E0012840F0BD80684801680A7A19F8020030700CF091FC391869
:2026D000A0680CF089FC18B90CF08AFC5844A0600120A8700098A2E09AF8010000287AD01A
:2026F00000F0BCF80BF0D8FE04462068029047689AF802000BF0D0FE03900CF0A5F810F0B9
:20271000070F3DD0A87803F03FFF0190416801980091029908F0A0FA022831D001990A785D
:20273000012A2AD14A490A68137A19F80310317028B90CF055FC83440098C0F808B0009877
:202750000069C17E01F0EF01C17600980069C17E41F08001C17600980069C17E01F0F0015E
:2027700041F00201C176009AB9683A4841181069C16101210198A97051E000200BF068FC29
:202790000398A04225D0029833490278802A12D1082030700978012903D09AF80100022897
:2027B00003DB38690121C17210E0D8F828003A690178D1720AE007203070097838690129F1
:2027D0000EBF0122D8F828104A78C272A0798AF80200029823E00CF037F810F0070F29D087
:2027F000A87803F0D1FE04462078D4F80480012820D117490868027A19F8021031700CF08F
:20281000EFFB3918D8F808000CF0E6FB20B90CF0E7FB5844C8F808000120A870204605B049
:20283000BDE8F04F05F0FABA05B0BDE8F04F00200BF00EBC05B0BDE8F08F00BF901E002017
:20285000900001006F4F0020289A0110684E0020104F0020F0D8FFFF734F00202DE9FE4FC6
:20287000B24C617811B900200BF0F2FB0CF0B8FB4FF00008074607F6C417C246AC4DDFF8AC
:20289000B49228E050460BF007FE06467079F0B12968B07901F80800394608F101005FFAE1
:2028B00080F830460CF094FB30680178402902BF06F182000178012902BF418872899142E0
:2028D00005D1B169C088411830460AF09BF80AF101005FFA80FA99F800008245D2DB6178A7
:2028F000884505D000200BF0B3FB82200CF06CFB6078012840F0F180002701E07F1CFFB262
:2029100099F80000874280F2E28038460BF0C4FD064670790028F1D02968B0790A78904213
:202930001CBF00200BF094FBB079FDE0286810F809000BF0B1FD00684268DAF808109068BE
:20295000814204BF3E4609F1010900F0D480D6E0286890F800B001224FF4C0710FE0636846
:2029700003F5AD76835C01FB03F901FB0BFE36F809C036F80E60B44538BF9B46521CFBB2D1
:202990009A42ECDB4FF6FF700CF01AFB064658460BF082FD68490068D0F804A00868D94647
:2029B00030F8192060684FF4C07300F10E0103FB09F3C85AB2EBD00F52D2720840F6C41028
:2029D0004243009200275D4A0190029217E058460BF062FD01680A78802A03D1DAF8103073
:2029F000009A5A610978402908D1029980790A6802EB4011009800F5A060C8617F1C47458E
:202A10002EDA2868C05D8345F8D001464FF4C073594363685A1803F5AD73D289595A53084A
:202A30008B4202D2521A9045E8DA0BF035FD01684A68019B9168DAF808207008A1F6C41127
:202A500003FB00200CF0C8FA0028C0D03A48006830F81910491C20F81910286810F807B0A2
:202A7000296808780BF018FD0026006847684FF4C079464551DA2868805D0BF00DFD0068DC
:202A9000296842688B5D606809FB03F3034403F18201087830B15889B1F802C0401C80B248
:202AB000604508DA887B01280ED15889098A401C80B2884208DB6EB3B968906801F5C24192
:202AD000A8310CF089FA28B3761CF6B2D1E700200BF0BEFA82200CF077FA617828680CF07A
:202AF0006BFA286800780BF0D7FC00260068D0F804A04FF00109771CC145FFF617AFF6B24C
:202B1000002E1CBFF8B200287FF422AF286890F800B037E7296811F806B007490A6800206E
:202B30005B4622F813005846BDE8FE8F684E0020004F00207B4F0020CC1E0020844E0020BC
:202B50002DE9F84FDFF8C0B20F460546F80B80F00B81A74EDFF89082B80F80F0BD80B8080E
:202B700080F0B1803809C0F032819D480178090980F0A480007830F07F0040F09F806846E8
:202B900005F0BCFF012803D10098002800F0968094480078002840F0918001240025E8B211
:202BB0000BF070FC48B1837A3BB1847290F9090004FA00F0C0B20AF019F96D1C032DEED34E
:202BD00045464FF0030A05F1AC0085F810A00BF0F5FEDFF82492002109F11402884610684D
:202BF0001160824952F8080C05F1340042F8088C42460BF0EFFE3068006B8047AA68A969D5
:202C1000801A000BC0F1FF328A422CBF01444FF0FF31A961287F20B1E868A969B1EBC02F43
:202C30001ED90BF003F8414600B12146A9B1714840F60901018046464680427B64F30302B9
:202C50004273027B66F30302027346604B46DE611860418811F4406FFBD02C774146A961F5
:202C70006649086820F0020040F400700860644A42F804AC41F23006966014605023936036
:202C900014604FF4CA6696601460022042F80C4C44460C600AF090F8112005F061F8287888
:202CB00018B9686838300BF0A1FE687F18B16C7705200AF081F8534868612C7407F060FFDC
:202CD00027F0080783E004F027F940467430006808B927F002077AE00BF076FE34468146CA
:202CF000606D0068014604208847C8B1287CB8B14046083006689EB12068EC68006B804746
:202D1000801BE860010BE960A14202D209194908E96040F6C41088422CBFB1F5FA7FE860D2
:202D300048460CF045F909F0DFFE90B1A8696FF4807100224FF0007304462846A047404646
:202D50006C300068002808BF47F0020701D007F017FF686900214FF0806304460A46284636
:202D7000A04727F0005732E00BF02EFE59460E684EB306F1280106C90A234FF0E0450B40D4
:202D9000154008BF002B1ED106F1280191E8300006F1280393E8060006F12803AA43A1438E
:202DB00083E806000CF004F9B16871B1002D08BF002C0AD03069B6F93C10B2682B461646E9
:202DD0002246B04701E00CF0F3F827F4804727B15846394650300BF011FEBDE8F88FC04629
:202DF000EE1E002029150020901300207DB000008C0100104C1E002000100440000004606A
:202E10000C410440657A0000101400202DE9FC41A0F2013714468846022F40F233819B4EA9
:202E30009C493F1F0F2F04D9143F4BD0BF1E1CD011E0DFE817F0CF00C9000E01FB00C100CB
:202E5000B9002701AF00A700100010009D008F007F00740065002D2880F21481B8F1020F71
:202E700040F010818849238808E1B8F1010F40F00981F078012800F0058132462078117908
:202E9000107181B9002800F0FD805078012800F0B580042800F0B280062800F0AF800528F4
:202EB00040F0F080AAE02078002840F0EB805078032800F0B180072800F0AE80052840F0BF
:202ED000E180A9E0B8F1010F40F0DC802078012840F0D88006F1EC000BF0A2FD002840F095
:202EF000D1803446002004F13A0105F0BDF9002840F0C88004F1C800FDF734FEBDE8FC8157
:202F1000B8F1020F40F0BE8020880A28C0F2BA80B0F5486F00F3B6800E46B61C17E0B8F168
:202F3000020F40F0AF802088B0F5FA7F80F2AA800E460CE0B8F1020F40F0A480208806288B
:202F5000C0F2A080B0F5486F00F39C803E363080BDE8FC81B8F1020F40F09480208806280A
:202F7000C0F29080B0F5486F00F38C803C36EEE7B8F1010F40F086802078062880F28280B4
:202F9000454E0EE0B8F1010F7CD12078042879DA0A3606E0B8F1010F74D12078082871DA4C
:202FB00009363070BDE8FC81B8F1010F6AD12078042867DA0836F4E7B8F1010F62D120786A
:202FD00004285FDCF61DECE7B8F1020F5AD120880E36BCE7B8F1010F54D13079012851D04F
:202FF00032462078D178D07071B900284AD05078012803D0042818BF052843D19069012199
:20301000FDF7B4FDBDE8FC81207800283AD15078022818BF052835D110780AF029FA1C4908
:203030000246102001F05EFEBDE8FC8106F1830500211F22284607F02FF9424621462846CE
:2030500005F088FF44463078B4710AF011FA002311E006F1640500211F22284607F01CF938
:2030700042462146284605F075FF4446307874710AF0FEF90123009408490195024610205B
:2030900001F030FEBDE8FC8101CF0000AC08002099450110EC080020E608002009450110CB
:2030B0002DE9FC418E488F4A04788F488F4B90490D2C6FD8DFE814F012010E000E000E0070
:2030D0000E000A010A018E000A01C900C900E700E700EE00106041F204478648864DB0F89E
:2030F00002C08649BC451FBFB0F81AE0BE45B0F83280B8454FF4A0561ED181480068D0F833
:2031100000C09CF8040003280CF1080E0BD1DEF80E0000281CBFBEF81800002803D01F80DE
:20313000784911608AE0022C1CBF1E800D46156000208CF8040081E0BCF1000FA3F800C054
:2031500041D0BCF1010743D0B7F1010C3BD040F2FE37BCEB07071ED0A7F1040CBCF1010F57
:2031700020D94FF47F77BCEB070C1DD04FF44067BCEB07070FD0BF1E012F0CD93F1F0AD0BE
:203190007B1E012B0ED940F2F937DB1B012B1AD91B1F09D09AE0022C01D115604EE01E802E
:2031B0000D46FAE7584DF8E7584B1C68257A012D05D141F20243438043834386F0E7468016
:2031D00046834686ECE700200AF042FF832081E08F207FE04E498978FF290CD010601820C6
:2031F0004C4C41432068851C40F204466C5A1C80A41B012C484B71D94FF47F76A41B0FD0FD
:203210004FF44066A41B032C84BF641F012C0BD9A41E012C62D940F2FD36A41B08D103E0E6
:20323000801C41F201444452136004F049F805E000200AF00DFF85200BF0C6FEBDE8FC41DB
:2032500036480078012104F091B940F204424888188090421CBF41F2084290423ED041F6E7
:203270000402904211D12E4C2E482F4B00680025CDE9004502222D4C256855F8086FB047AD
:203290002B4908802AE04888188000200AF0E0FE85201FE04888188002280DD940F2044224
:2032B000801A1BD040F6FC72801A05D0083815D04FF47F72801AE8D1887B801CC2B2B52AC8
:2032D000A8BF662088730020488007E000200AF0BFFE8420BDE8F6410BF076BEBDE8F38188
:2032F0006F4F0020204F00209DE90000504F0020CC4C0020204A0020B1540110615A011068
:20331000F44B002059550110755B0110104F0020684E0020804E0020313901106E4F002003
:2033300002000080EC4E002099CE0000F04E0020424F00202DE9F04F8246DAF80070DAF8FA
:2033500004600C465FEA0208ADF11C0D14BF00214FF0FF31DFF8409248460BF000F90028D7
:2033700018BF0B2040F0158100258F488C4905708A48FC6052460BF02DFB317B27200BF058
:203390002BFBB8F1010F07D06570022009F0F6FE062009F0F3FE01E00120607020780128E0
:2033B00040F2AA80801E012868D9801E012833D9801E012800F2DE800BF006FB83464FF0AB
:2033D000805000F5EE77D0F8DC01A378466A009321782846062908BF01200190012002904E
:2033F000A068228AE1686368B047814658460BF0DFFDB9F1000F40F0BF80B8F1000F02D010
:203410000AF032FF02E0504609F08CFD002800F0A3803868806A2AE00BF0D6FA83464FF0D5
:20343000805000F5EE77D0F8DC01012306680093A168A27860682478AC46042C08BF9C4636
:203450006346B047814658460BF0B2FDB9F1000F40F09280B8F1000F02D00AF005FF02E048
:20347000504609F05FFD002876D03868406880474C49C1F8B0510D6081467DE00BF0A4FA5B
:2034900083464FF0805000F5EE77D0F8DC01E38A86690093E0680190208B0290A078039095
:2034B000207D04900121059122782846022A08BF081CE1786268A368B047814658460BF06F
:2034D00077FDB9F1000F57D1B8F1000F02D00AF0CBFE02E0504609F025FD00283CD03868D3
:2034F000006A80475FEA000946D1E078A168E28A236906F08BFBBFE70BF066FA83464FF044
:20351000805000F5EE76D0F8DC01E38AC7680093E0680190208B0290A0780390207D2946D1
:20353000049001200590257805B9014608466268A368E178B847814658460BF039FDB9F1D4
:20355000000F19D1B8F1000F02D00AF08DFE02E0504609F0E7FC08B914201AE030684069CF
:2035700080475FEA000907D1306802692169E078904781E74FF0FF39B8F1010F05D00220FF
:2035900009F01AFC062009F017FC03480BF02EFA484607B0BDE8F08FFC0E0020340F002076
:2035B000E9D7000050450240F41E0020FEB5954E954F144602460025A2F58062182A1AD844
:2035D000DFE812F01601100109010101FA00F400ED00E8001900CC00C500BE00B500AA0054
:2035F0001900190080006F00680054004C00420039002C0024002D2880F28C80022940F099
:203610008980218809F074FC0546F9E0012940F0F680002C00F0F3801136BEE0102940F0AE
:20363000EE80002C00F0EB8030465030102221460AF04AFEE4E0012940F0E180002C00F019
:20365000DE8031468E1DA8E0262940F0D880002C00F0D58006F160002622E8E7012940F042
:20367000CE80002C00F0CB80761D96E0602900D13CB9012940F0C380002C00F0C0800D36F1
:203690008BE006F18600214660220AF01DFE01207073B5E0012940F0B28020780BF084FCFC
:2036B000AEE0012940F0AB802078022800F3A7800C3630702078022814BF281C01200BF034
:2036D0006FFC9DE0072940F09A80611C684606220AF0E8FC207869462A4604F01FFE044635
:2036F0000A2C17DA0BF058FC70B9204602F0E0FF3C462078002847D16088C0F5805080B2EB
:20371000B0F54D7F40DA3AE03246012002F12C06305575E0022573E0012970D1B07B2178B3
:203730000028B1736CD1207801282DD068E0012965D12478072C62DB102C60DC0B3648E09D
:2037500001295CD124780A2C59DA093641E0012955D12478022C52DA08363AE000294ED1B7
:203770000BF01AFC98B90AF043FE3C46207858B96088C0F5805080B2B0F54D7F04DA0AF089
:20379000A1FF657003F026F808F0F4F838E001240F361EE0012932D10A36247819E0012903
:2037B0002DD12478022C2ADAF61D12E0102926D1334603F1400039E7012920D12478022C46
:2037D0001DDA361D05E0012919D12478042C16DCF61C347014E0012911D12478022C0EDA70
:2037F000B61CF6E702290AD120881436308007E0012904D12478022CD8BF761CE9DD182586
:203810002846FEBD38070020641300202DE9F04385B011F8017B0446082F04F1FD0004F10E
:20383000FC0804F1760504F5A076844A844BDFF8149213D0092F21D00F2F2FD0112F01BF92
:20385000287801286878102840F0D5800A78327648787076012184F83D11EBE00025521CD8
:203870004E5D5F5D3E434E55575D3E4046556D1C082DF5DB204607F0B9F974E00024571C58
:203890000D5D1E5D35430D553A5D15400555641C082CF5DB022088F80000CBE098F80100B1
:2038B000820704D410F0110F57D01A2266E008784A7800EB02203080CA78887800EB022080
:2038D00070804A79087900EB0220B080CA79887900EB0220F080087A30724A7A887A02EBCF
:2038F00000227281C87A0A7B00EB0220B0818A7B487B00EB0220F0810A7CC87B00EB022082
:2039100030828A7C487C00EB022070820A7DC87C00EB0220B082487D897D00EB0120F082C9
:20393000494801788A0658BF1A2212D504F5A670049071890391307A029021890191F08882
:203950000090B38872883188204606F07DFEE0B11E2298F80100410710D40F2088F81500B0
:2039700020460BF015FB002864D199F8000005B0BDE8F0434FF4804103F0F8BD204605B084
:20399000BDE8F0430F210BF0FFBA7088A882B188E9820221F0882883297400206882A18E79
:2039B000A88AC91DE981618EB0EB510F02BFE88AA18E884202BF288BE18EB0EB111F18D0C9
:2039D0002878012804BF68780F2805D0687918B10F21A972FE2127E0FC2120460BF0D0FAFC
:2039F000F0880090B38872883188A0790BF0C4FA20E0102118E0491E20460BF0B9FA032F19
:203A100018D1A878042818BF0D2813D16E78142E18BF0E2E0ED12F7820460BF0A5FA012F80
:203A300006BFAE72FD213146204605B0BDE8F0430BF0A6BA05B0BDE8F08300BFEC4D0020C9
:203A5000B81E00206E4F0020144E002010B50B7884074CBF43F0020303F0FD0304064CBFE3
:203A700043F0800303F07F0304074CBF43F0080303F0F70384064CBF43F0200303F0DF030A
:203A900010F0AA0F0B7003D0107840F00C0003E018B9107800F0F300107010BD2DE9F8438E
:203AB0000D4600272878022814461E4667D1696808784978DDF8208000EB012080B25FEAAE
:203AD00008021CBFB0F5285F0B205BD14FF42851401A08D0401E21D0401E2FD0401E25D081
:203AF000401E31D04BE0DDF82490E8680AF094FF80B2A0EB08024A45BCBFA0EB08001FFA49
:203B100080F909EB0800162806DAA6F800904A46E86800EB08010DE00D2732E0E8680088F5
:203B3000022131802070000A60702AE0062030800622E96820460AF0C7FB22E001203080E9
:203B5000E9680A7822701CE0E868B0B1082131800288227003881B0A63704188A170428826
:203B7000120AE270818821718288120A6271C188A171C088000AE07103E0308001E037800A
:203B900001273846BDE8F2832DE9F0470F46814638780024022890461D466DD17868089EF1
:203BB00001784078DFF8D8A001EB002189B24FF42852891A06D0491E29D0491E4ED0491EAB
:203BD00039D059E0F8680AF027FF80B2B04204D3A919162903DB0D244FE007244DE0FB681E
:203BF0002A46414698190AF06FFBAD19F868ADB2C5F11602002140190AF00CFFDAF8000005
:203C100000281CBF0268002A37D0002123E08EBB022DE0D198F8000098F80110FA6800EB2B
:203C300001201080DAF8000000281CBF0268002A23D001210FE0EEB9062DCCD1F868062257
:203C500041460AF041FBDAF8000000281CBF0268002A12D00321484690470EE056B9012D98
:203C7000B9D198F80000002813BF0128F9680870802402E00B2400E001242046BDE8F087E2
:203C9000DC1E00202DE9FE4F05467B48002400680094C00905D37948007810B9202009F08D
:203CB0005BF9012D40F0E280DFF80092D9F8DC00012840F0D8800220C9F8DC000AF05CFA0A
:203CD000012009F049F95FEA000805D00120C9F8DC000AF05DFACBE00AF08CFEA346029099
:203CF0006748684DC0F800B0A86A016801208847012804D1584606F0E5FF012000906248AC
:203D1000624FC0F800B0386811200AF073FD00B1012410200AF06EFD08B144F002040F20B2
:203D30000AF068FD08B144F004040B200AF062FD20B12868564E016B308888470A200AF07F
:203D500059FD20B12868534E016B308888475248012606602868816944F0200088474F48AD
:203D700006600AF041FD00F001010191400814D2286A81684A4888478246BAF1040FF7D0BA
:203D9000BAF1010F04D1286A42684548032190474449086820F003000860584600F088F839
:203DB0002B683868986B8047019801280CD0BAF1010F04D1286A426839483146904739493B
:203DD000086840F0030008602F48066028684169204688470B200AF00DFD20B128682C4B75
:203DF000C16A188888470A200AF004FD20B12868284BC16A18888847274806600322C9F8CB
:203E1000DC20264BC3F800B02868416B204688470128F9D13868042009F09EF80446184859
:203E300006603868144800688009FBD30098012802D1304606F046FF0AF0CAFC082009F02B
:203E50008BF807460298C9F8DC600BF089F81648008806F0A3FC0AF09BF957EA040018BF4A
:203E70004FF0FF3804E06FF0040801E06FF001084046BDE8FE8FC04614100940440D002088
:203E90000C400940B8010010000222432C2009408AFB000086FB000028200860800104433A
:203EB00000400340242208402CFF00005C0C00202DE9F84FDFF804B20746ABF13500DFF84F
:203ED000F0810068800880F0E28075480068006880477E490831D1F8009000254FEA2971FA
:203EF0005FEA995201F101010AD2C0F13E0210F10A0F4FEAE202D8BF08229142B8BF111C4E
:203F1000684BD3F87C21C2F30462162AA8BF203A1B68C3F30443162BA8BF203B9A4652188D
:203F3000162A05DA12F10A0FB8BF6FF0090200E015225D4B5D4E02F01F0141F4F8511980C2
:203F5000316811F0030F18BF0125C90828BF45F002050FB145F00405434693F90710411A2F
:203F7000052904DA9979A94208BF99886FD0DFF844E10F28A0F10F0829DB08EB0011A1F18C
:203F9000F0084FEA28210091072984BF07210091062988BF06215EF821600424774604EB92
:203FB00081043C594FEA950CA41BEE0804F0FF0124BFC4F3072631446F08AE0824BFC4F351
:203FD000074631446E0828BF01EB146104E000214FEA950C6F080091009C5EF824E05FEA2B
:203FF0005C060EF0FF0424BFCEF3072634447E0824BFCEF3074634446E0828BF04EB1E6448
:20401000009E89B2A8EB06267143803104EB1124AAEB02010029D8BF0121342209F0FF07A0
:204030004A4391B24FF6FF727943B1FBF4F18A4238BF111C802889B205DA10F1800FB8BFE4
:204050006FF07F0000E07F209980D8719D711A4800681F2918604FF0000008D340F2FF129C
:204070008A4206D24908401C8A42FBD301E01F219980134F0F39090940EAC10047EA000132
:20409000CBF8FB1F0026CBF8FF6FBDE8F88F0D490D4F434608200F609B1D1870BDE8F88F72
:2040B000EC0100103C1100506E62084024220840C01E00209C1300500820094035000940C4
:2040D00000E7A48030100940FDFDA400AC3F00502DE9F04F044675488A46016894461F468F
:2040F000BAF1000FADF13C0D4DD0BCF1000F4AD09AF8002001209040014244D0BCF800006E
:20411000B0F5C15F32D1DCF81430DCF818206848DCF81C104FF0030E0DF128080B93DFF800
:2041300094B10C9200680D91C0F3036958F8046FCEB10021351F05200B4655F8042FB2F117
:20415000FF3F10D0934506D0401E01F1040103F10103F2D107E0052B05DA705820F4702011
:2041700040EA09407050BEF1010EDFD1C4F804A0C4F808C00AF028FC4F4D8046287820B1B9
:2041900040460AF015FF00208DE0FCF79BFE4B49086840F00200086007A80AF03BFA0026C0
:2041B00005F1D00007AA4649099608F0FFFA454905F5827007AA08F0F9FA07A80AF0FAF9A7
:2041D000FF2105F1340007AB3F4A0891192108F055FA3E4A05F150001A2107AB08F04EFA35
:2041F0003B49324605F18800134607F09BFC3949324605F1AC00134607F094FC364A05F15C
:2042100020000421334609F00FFB0E2003F0D2FF05F174000AF018F905F16C000AF014F9FD
:204230002E74072085F898012E77AE616E770523AE602B49EB602A786961501C2870274B1F
:204250001E7040460AF0B4FEB1464FB92548B0E88C106946A1E88C100DC86F4681E80D001A
:2042700038682060398A6182012060747B6813B940F6C4130646E3601B48A0612674606169
:20429000F86800B1A061B86800B160615822494604F1200006F000F804F13800494609F0A9
:2042B0003FF920466C600FB0BDE8F08FD4210840541300500200F844901300200020094043
:2042D000D1E10000997900007DB0000079AE00001DDC0000B9DF0000B1BD0000EE1E00208B
:2042F000657A0000CCFE00007B9A00002DE9F04F05468248066800680F461C469246C4F36A
:2043100099018900ADF12C0D0A010021803205F0C3FFDFF8D091A9F188000246704801683B
:2043300030469047A3088046610801979F1C21F00101F819009506EB80000390091DCDF84B
:2043500008A07818434506EB800206EB870B3844049206EB80000690C4F39C004FEA800072
:2043700000F1080007EB400000EB070206EB82020A9224F0030202F1080200EB020506EB04
:2043900085053A44059506EB82050A4407953A4406EB8202089206EB80020992084406EB31
:2043B000800A384406EB800518BF6FF0010040F0948009F168000246414630469047002355
:2043D0003CB10199264611F8010B761E40EA0303F9D1002B08BF01207FD000263CB1029927
:2043F000234611F8010B5B1E40EA0606F9D1002E08BF022071D001994C465846A047039812
:204410000299A047009881680498A0473648049A594681462846C847012803D14FEA880445
:204430002E590EB1032058E0BE0028460021324605F032FF0399049A2846C847012801D12E
:204450002F590FB1042048E0284F294C069859463A46A047079803993A46A0470699089847
:204470000A46A04709980899069A2746B8470A980699204C2246B84728460021282205F0C5
:204490000BFF1D4809990A9A81462846C8472034284622460146C847079950460A46B8470E
:2044B00005980021324605F0F7FE5FFA88F450462CB95FFA88F10229B8BF012201DB5FFAB0
:2044D00088F200216B5C445CA34218BF052004D1491C521EC9B2F5D100200BB0BDE8F08FFF
:2044F0008C4F0020B9DB0010C9DE0010A4110020F9E000107CFC0000C9E60010884F00206A
:204510002DE9F0410446804DA178A869ADF1180D891F00F0F280C91E00F0DD80491E5FD06C
:20453000491E48D0C91E3CD0481E40F0E980287A697AB8B96878002831D0A0880AF00CFDD0
:20455000071C00F0DD80A07A40080FD3787968B1E168890A0AD2B91D01AA03F0DFFE0A2852
:2045700004D10321A0880AF0F3FCC9E0287B022802D1A07A0009F4D3A088797904F10802D5
:2045900001F0D8F9A869002800F0BA804368002B00F0B68000210A46A0889847B0E00521BC
:2045B000E0E7002800F0AC804368002B00F0A88062780221F0E70AF055F8002800F0A0809F
:2045D000A86950B1076847B1206900906189227B637BE01C3C46A04792E060890121C2E749
:2045F00067784FF00008002F66D1A179490863D3EF69002F60D101A841460E2205F04CFE27
:20461000A0880AF0A9FC071C7AD0606940B97879B91D06228DF80A0001A809F055FE19E028
:204630006669307C062206F111018DF80A0001A809F04AFE07F10C00B91D062209F044FE08
:20465000B81D062206F1110109F03EFE307C40F002007871A079C00839BF387900F0FD00D1
:20467000387940F002003871A079000939BF387900F0DF00387940F020003871A1799DF8AB
:204690001120C1F3800010438DF81100080905D39DF8110040F008008DF8110001A821464F
:2046B00000F00AFD28B92878022102F05FFF404627E0A8694FF0150810B3436803B3A088B9
:2046D000627801219847B8F1000F19D0A86943680321424660E7E078211D002203F01EFED8
:2046F0000A280DDA410001EB800004F10C0225300421C0B202F01CFB02E0A08805F0DEFF10
:20471000012006B0BDE8F081380700202DE9FE4F0E468246307AC10693461F464FF00009C7
:204730000CD558460AF010FC030000F0E8800A223146504698475FEA00094DD130780C9DB0
:204750000D9CDDF8388002281AD170680178407801EB002189B24FF42052891A012910D942
:20477000891E3AD0491E14D0FD397AD0491E00F08180491E6DD0491E73D0491E00F095809B
:20479000ABE0002C2AD1F068017829800278416887E0002C22D101202880F1680A783A70E6
:2047B00000217089401C80B20AF0CAFB298860B10278921C51182980418979704289120AEC
:2047D000BA7041680278F81C6CE0091D298004220021781C0AF01EF993E0002C66D1F06833
:2047F0000688042129803E70320A7A700DF1020130460AF0A5FB040021D0D4F80C80BDF866
:2048100002204FF6FF766B4631460AF095FB40B9237862683C4802210AF08AFB08B9ADF810
:20483000006098F8000002280BD1D8F804100222381D09F049FD2888801C288001E0ADF85C
:204850000060BDF80000B870BDF80010090AF97057E0002C2AD1F0680168504609F0A2FE7C
:2048700002E01CBBF0680088022129803870000A787046E0F0680AF0CFF880B2A042B8BF5F
:204890004FF007093DDB844208BF002205D008EB04028242B4BF4246021B2A8092B2F06802
:2048B0000119384609F010FD2BE014B14FF00B0927E0F0680721298002783A7043787B702D
:2048D0004188B9704288120AFA7001793971C2887A71C088000AB87113E058460AF024FB08
:2048F0005FEA00090BD00F980290CDF8048000942B463A4631465046C847814601E04FF071
:204910000E094846BDE8FE8F04FD00002DE9F04F0646880FADF1140DC0F0D7806C4F381DA1
:20493000006841688D68CC68486800B18047B946694F002D08BF002C0DD038461C3003681C
:20495000002BFCD00021016005B1A84704B1A047604808F055FF3C4600256049E56160485B
:20497000216040F60A0CA0F800C04580017B65F303010173AA46C0F804A0417B4FF0010B9E
:204990006BF303014173B268737C558011888646A1F60201C9B141F21E07C91B15D041F642
:2049B000E677C91B012920D8507E012B65F38200507606D0108B20F47C7040F4347010830E
:2049D00013E0108B65F30910F9E7507C012B65F38200507405D0108A20F47C7040F434700B
:2049F00002E0108A65F309101082D6F8088075746046474600E01F467B6813B1198888425F
:204A1000F9D1C7F804E0797B65F303017973D9F86C303BB1D9680988C21F8A421ED0801F78
:204A300088421BD0338CDBB1C6F824A006F12000458096F82C1065F3030186F82C1096F89A
:204A50002D106BF3030186F82D10CEF804009EF80D0065F303008EF80D0001E0C9F8085097
:204A70002048036882680192C168406B0093102220F0784040F0805003901B48029169463D
:204A900004F068FAE0690028FCD01848C9F8140099F81D00E56178B91548006800680146A5
:204AB0005846884701280DD0787B6BF303007873104EC9F8146005E007F000FD0028FBD0D5
:204AD00009F090FFE561C4F8008005B0BDE8F08F90130020010007060010044001010E04AA
:204AF0004C1E00204C13005018000021512B0000E001001065B20000F0B5754C774E6568B8
:204B1000401EADF12C0D70D0401E6BA76BD0801E52D0401E41D0401E04D0401E36D0401E42
:204B300032D02DE004F16400FBF75EFD6949102000F0D8F86849C5B201AB10206A1E00F092
:204B5000D1F848B9009560680221002248A308F004FE0DF106000DE00C363046016806AF2D
:204B700039608088B8806068002245A3022108F0F4FD3846656807F075F80321034607E06B
:204B900028460221002214E040A300E041A302212846002208F0E1FD67E0142008F094FE29
:204BB00060680221002241A308F0D7FD60680321052209F001FE58E0012504F164008DF8E1
:204BD0002950FBF7CFFF142008F07EFE60680321052209F0F1FD40F205300DF129022946EB
:204BF000FEF714F965683B46D1E731460A6808A802608988818000268DF808609DF8247054
:204C10008DF807609DF821108DF80A709DF825308DF805109DF822208DF80B309DF8200003
:204C30008DF806209DF823108DF8040001AF8DF809102B49786848603A680A6008A807F06B
:204C500011F8034601213246284608F086FD606802211CA3324608F080FD012140F205304F
:204C70000AAA8DF82810FEF7D1F80BB0F0BDC0464E756D20436F6E6E733A20256400C0464D
:204C9000436F6E6E656374656400C0464572726F7200C046436F6E6E656374656420416403
:204CB000766572746973696E6700C04654696D6564204F757400C046416476657274697370
:204CD000696E6700496E697469616C697A65640008020020F17F0110097F0110D4080020D0
:204CF000730500200FB42DE9F04F09AF8146ADF1240D09F0E5FD391D30F0010021F003013F
:204D100001F1040100F0D88005911420ADF8100000240294FF258DF812507E6806960AF084
:204D3000FFF8064609F0CCFDDFF898B130F001001DD00AF0F1F807460AF0EAF8BAB2594619
:204D500080B262F30F08224660F31F48062031F80C7F4FB14B681B689E4204D0401E02F16E
:204D70000102F4D100E0D5B2404609F0F4FA484607F0CEF90146FF2904D02846032205ABB5
:204D900004F074FE0AF0CCF806F07EFB07462046009009F095FD30F0010000F08C80002F56
:204DB00000F08980484EDFF824A13268002400212346504604F0CAFB81460AF0A5F8326829
:204DD000054600212346504604F0C0FB044600984FF6F87A49464FF001096D1808900BE030
:204DF000089810B10C3806F091FC0598006864E0FEE701464EE03446786800214FF00052CC
:204E10002346FBF7DDFB002832D007A80DF11D0101AA05F003F800BB9DF81C00062813DA38
:204E30009DF81C100BF10C02880000EBC100165A56B1B24508D0019A09F02AFD20B10198F8
:204E50004FF00009089013E00199684606F08AFC78684FF00051FBF789FEB4F1FF3FCBD044
:204E7000002CC9D00AF050F82E1A01D0B442C2D209F07EF8009E0AF04FF882460AF048F828
:204E900008371FFA8AF180B261F30F0860F31F4846B1314651F80C0C0028AAD1386841F88D
:204EB0000C0C3E60404609F056FAB9F1010F9FD0B9F1000F94D0FEE7FEE709B0BDE8F04FB0
:204ED00004B07047B80D002060000100404B4C002DE9F04FADF1140D071C8B4602930E9DF2
:204EF00001920F9C039500F0CB80BBF1000F00F0C780101C00F0C480181C00F0C180281C96
:204F100000F0BE80002C00F0C080206A002800F0B780614D666A281D0068002E00F0B080A5
:204F3000A16A09F0EDFF40B2061C08BF6FF0020700F0A28020786288216A84F82C6000EB1C
:204F500080001218143290B288475249086030B92846406809F0D0FF4FF0FF378CE0A0688D
:204F70004E4AE6684E4D106023692E608A464D4866694D4A0360A56916604C4BE6694C4AE8
:204F90001D6021781660207825794A4E6388DAF800203570668801EB410106EB020C03EB1C
:204FB0004005AD18CE1805F10808C5180918AD1805F10409C51CAD10D5502078C01C80105E
:204FD000C9F800002078C01C8010C8F800002078B6180C36C01C801030602078C91889187E
:204FF00001F11005C01C801028602278CDF810C039466346181D03F0ADFF2278594609F148
:20501000040003F0A7FF2278019908F1040003F0A1FF2378204649464246FFF767F9071C8E
:2050300013D10095049849464246334609F060FF804622780298311D03F08CFF2278039868
:20505000291D03F087FF4FFA88F721786288DAF8000001EB81015218002105F01DF9606A96
:205070000146DAF8000088470B48406809F044FFF8B2992808BF002784F82C70384606E02C
:205090001CB16FF0010084F82C006FF0010005B0BDE8F08F884F00209C1100208C4F002033
:2050B000904F0020944F0020984F0020804F0020844F00209C4F00202DE9F04F714CDFF801
:2050D000C0A1E56988468146ADF1140D002D48D1B9F1000F5AD0B8F1000F57D008F0E6FADD
:2050F00006460A2E23DAD8F814702674002F39D0700010216A4600EB86002330C0B208F07A
:20511000EFFE90B950460778FF211022684609F00DF850B93FB999F80600494600F001001E
:2051300009F0E2FE01E00120A074E56919E004F1E60B0A2700265846FF21062208F0F6FF19
:2051500068B97F1E0BF10E0B06F10106F3D1607C002804BF0A20207418D094F83660267481
:2051700000E0267C0A2E11DA002D4DD0AA68002A3ED12A69002A2FD16A690ABBEA683AB94B
:20519000A07B08B108F072F808F09BFE012074E07000102100EB86002430C0B201F0C8FD35
:2051B000E769217CFA68480000EB8100103225300421C0B201F0BCFDE1690020C8605BE037
:2051D0007000102100EB86002330C0B201F0B0FDE169002048614FE070001C2100EB8600EA
:2051F0002230C0B201F0A4FDE1690020086143E070001C2100EB86002130C0B201F098FDEC
:20521000E1690020886037E070000E214A4600EB86002030C0B201F08BFD207C06F00CFE9E
:205230006846FF21102205F037F8207C10216A467030C0B201F07CFD207C0101A1EB4001D6
:2052500009190E20E63119F8012B401E01F8012BF9D1D8F814206AB15046007840B9107C9B
:2052700002F11101002300F0010009F039FE01E00120A074C4F81C80002005B0BDE8F08F6E
:205290005A4F0020380700207CB56D4D044668680E4628B94FF00040002106F099F86860AD
:2052B00000213CA30A4608F058FA20463DA3801E08D0801E61D0401E4CD0401E37D0401E7C
:2052D00022D00EE06868012E05D000210A4608F044FA37A357E000210A4608F03EFA39A3D5
:2052F00051E0686800210A4608F037FA6868022100223AA308F031FA01208DF803009DF8B0
:2053100003000028FBD17CBD686800210A4608F024FA68680221002236A308F01EFA0120D7
:205330008DF802009DF802000028FBD17CBD686800210A4608F011FA68680221002232A3E4
:2053500008F00BFA01208DF801009DF801000028FBD17CBD686800210A4608F0FEF96868D6
:20537000022100222DA308F0F8F901208DF800009DF800000028FBD17CBD686800210A4676
:2053900008F0EBF929A368680221002208F0E5F97CBDC0463E3E3E535441434B20415353F4
:2053B000455254002A2A2A4552524F522A2A2A003E3E20494E5445524E414C204552524F1B
:2053D000522100C03E3E20494E5445524E414C204657204552524F522100C0463E3E204423
:2053F000454641554C54205350494E4C4F434B2100C046C03E3E2057524F4E47204150494F
:205410002043414C4C2100C03E3E204943414C4C2054494D454F55542100C0463E3E20490B
:2054300043414C4C2041424F525421003E3E204F5554204F46204D454D4F52592100C0461E
:20545000080200202DE9F04FADF1240D0790FBF739FD5F48007808F0C1FA5E4D0024012865
:2054700006D90C3804D0401E0ED0401E09D006E008F076FE022804BF01210C1C06D0696882
:2054900005E005211F2401E0032107246960524A1068C0F38150012806D152F80C0C012793
:2054B000020E07FA02F0044309F0A4F805F1440AFF2253464018401E471C28607F1E03F8C6
:2054D000012BFBD1079A1268002602F0FF03FE2B1DD0DDF81CC0964633460EF0FF07FF2F41
:2054F0000ED0B84205D3B94203D80122BA40144201D0022069E016430EF0FF020AF80230DB
:205510005CF804EF5B1C0EF0FF07FE2FE7D1092002F050FE07980121A86005F1280007F08D
:20553000FFFF00274FF0010BB9462846804600F198050BFA07F0044216D1064204BF07F0FF
:20555000FF0141F4C04104D01AF80700079951F82010224801F058FAF8B24FF0FF3108F041
:2055700061FAC5F8009001E004202860D8F800007F1C2D1D8742DCD904A809F01BF8184C97
:20559000184A2078102104AB059008F10C0007F075F8684609F03EF8CDF80C906A4660686D
:2055B0001149029008F1640007F000F90F4951F80D0C20F4F85040F4005041F80D0C0C4F5B
:2055D000C1F8FFBF4846C7F800B009B0BDE8F08FF51E0020480B0020B43F0050007FC767D4
:2055F000080001009DDF00008DC400000D3009400800094061480178002900D170472DE905
:20561000F843491E032984B004D9891F012940F2B180A9E05A4CDFF86C912068DFF868811B
:2056300003685A4E03F10805062205F1080102A808F04AFE0622A91C684608F045FE2878BF
:20565000C1091D2700F00F02032AC0F3801537D16079C0F3800081421ED12169062202A894
:2056700008F064FB00287AD06946284609F0D4FC002874D03146684609F0CAFCFF286ED0B6
:205690004743D8F80000807AF519002818BF02280AD0012818BF032861D1F25D691C4846D6
:2056B00009F01AFC10285AD06B46EA1D2946484609F00EFC06226946E81D08F005FE4EE0AC
:2056D00000F00F00052855D16079C0F38000814245D12169062202A808F028FB00283ED0D6
:2056F0006946284609F098FC002838D03146684609F08EFCFF2832D04743D8F80000807A9B
:20571000F519002818BF01280AD0022818BF032825D1F25D691C484609F0DEFB10281ED0ED
:2057300040F2024007F060F86B46EA1D2946484609F0CEFB06226946E81D08F0C5FD14482D
:20575000144A41F20441418041834186124801801249134811600121007801F007FF2168FB
:205770000A680020107105E0002008F071FC862009F02AFC05B0BDE8F08300BF6F4F00206D
:20579000F44B0020CC470020104F0020AC450020204A0020204F0020504F00205955011040
:2057B0006E4F00202DE9F843614C5A4D5A4EDFF870815E4F94F8E4100846401E0B2864D89F
:2057D000DFE800F07B2C43062343062343067664042907D001220A2945F8212C14BF022087
:2057F000032004E0202045F8210C0120024684F8E200002045F8390C0827C5F8FF7FC5F858
:20581000F37F45F8392CBDE8F883052914BF09200620002784F8E400376075E094F8E170A4
:20583000383D0120002FC5F81B0004BF0620002102D00021F160032084F8E400032045F88A
:20585000010C3160306880085ED294F8E4103348012703290ED0006845680021602205233D
:2058700000914046A84794F8E400062814BF0A200720CFE700684568002160220523022098
:2058900000904046A8470420C4E7FEE72548264F0026012506600E203D6002F061FA022071
:2058B00007F08AFA84F8E45084F8E360BDE8F883002038600C25786024E04FF08059D9F820
:2058D000A0010168202088472C3D0F2045F8010C41F61D56C5F80360D9F8A40146680021AE
:2058F0004FF4C0720723022540460095B047D9F8A401C66800214FF4C07207234046B047DF
:205910000120386084F8E45004F1780009F054F8BDE8F88339400C4038600C40A4010010DE
:2059300000A00C402C500C4004800C4034600C405C0C00202DE9F04F88468246ADF1AC0D29
:20595000299209F009FB5C4CE67894F80BB0A57A94F80C90071C00F0AB8068460021A42218
:2059700004F09AFC2801279A55498DF8046005F0030300F4807605F00405ADF800A0B9F14A
:20599000020F01EA020143EA01024C4B8DF8A0B046EA020100F4C06603EA010246EA0200ED
:2059B00045EA00054FF00000279508BF01208DF8370009F089FA412809DB207B00280CBFAD
:2059D000002008209DF8991008438DF89900607B002804BF00208DF8380017D001208DF898
:2059F000380004F1860120220DF1390008F06CFC0DF1590004F1A601202208F065FC0DF17E
:205A1000790004F1C601202208F05EFCA07940B18DF8260004F1500110220DF1270008F063
:205A300053FC66793EB104F16000B91D0622054608F07CF968B92079002804BF00208DF8E4
:205A5000050015D08DF8050004F140010DF106000BE08DF805600DF1060005F11601102270
:205A700008F032FC0DF11600A91D102208F02CFCE07930B1B8F1000F03D0279941F002010B
:205A90002791002100B10121A7789DF89900002F41EA00018DF899100CBF002004209DF8D0
:205AB0009910084329998DF89900684609F008FA2BB0BDE8F08FC04638070020FBF9FFFF03
:205AD000FCFEFFFF70B5484C484B2568186855F8183F00224FF0FF3198474548454A416B89
:205AF000454C8868454D41791170002609F0E4F9434809F0DDF909F0D7F942480268002114
:205B10005171A02301680722CB804A72032103681972002201684A7700230268D3760021FA
:205B3000036883F85C10012201680A770123026882F85D300021006880F85E100EE060683C
:205B5000F1B24FF4C072514342185379012B04D1F0B208F0A1FC09F0A3F9761C2978F0B2C1
:205B70008842ECD309F098F92748284A0178284C117006F057FE2748D02130220023017022
:205B900042708370C370037143718371C37109F07FF92149214B00200870002220491A70D9
:205BB0000120204B08701A701F49204B08701A701B201F491F4B0A701A804FF4A4721E4991
:205BD0001E4B08801A80FB201D491E4A088040F648001D491080FB230B80208009F054F9B6
:205BF0001A490020087070BDF04E0020EC4E002090000100714F0020684E00207B4F002084
:205C1000CC470020104F00206D4F00207A4F00204E4F0020B81E0020734F0020744F002085
:205C3000754F0020764F0020774F0020784F0020794F0020524F0020444F0020464F0020AD
:205C5000484F00204A4F00204C4F00206F4F00205A480178042900D870472DE9F84F891F4F
:205C70002FD0491E012900F29E80DFF854A19AF80200FF2825D008F00FFC83460BF16C07BD
:205C9000786809F0FDF8804698F80400032818D1D8F80800047814F0030404D17868BDE8FF
:205CB000F24F09F0E9B84578032C00F102090BF20F160BD035B1387820B93D217170012045
:205CD000307078E03F490A78012A74D09BF8941059B32D1FEDB24B462A462146584609F016
:205CF000C7F840B93D207070012131703648BDE8F24F09F0B9B835480168884700904FF486
:205D1000C0709BF80620DAF8041042438818002180F839110BF59A7001688079490805F0EA
:205D30003FF92B4900980A6890470020032CC8F8080016D0274841690878820707D5C00704
:205D50004CBF03200020401919F8000000E08120387223469AF802002A46494600F094F9D7
:205D700018E099F80000192803D21B4A115C8D4205D0B0700721584609F002F907E00F48E6
:205D90000178082903D049465846FDF73FFD484606F078F8786809F06FF841465846BDE81B
:205DB000F44F09F05DB8002008F052F9BDE8F24F862009F009B9BDE8F18F00BF6F4F002016
:205DD000684E0020794F0020AC450020780D00207C0D002090000100C80001002DE9FF41E6
:205DF00004466668A7680D4608F0EEFD3178012903D109F0DDF800208EE00121317009F077
:205E1000D7F8287870706878B07068687060A868B060E868F06028693061287D3075687D72
:205E30007075A87DB075A869B061287F3077687F7077A87F4FF0000843461D4686F8285194
:205E5000B07786F82951C6F82080336375627563B562B56386F82C5086F82D50786802F07A
:205E7000A9F9204603F05EF9204603F0A7F960B9386807F0ABFE786801F072FF08F0A4FD93
:205E9000357009F095F82C4645E0684608F092FB0094387B224A0190B9686B4606F17C0074
:205EB00006F0ECFB684608F0B5FB00941D4938696A46029006F1980006F078FCB07830B9B8
:205ED00006F1CC00294607F02BFB17483061707830B906F1E800294607F022FB1348F06095
:205EF000684608F0F9FC01958DF800501049029406F582700A226B4605F014FEB969FA6947
:205F100006F13C0008F022FB0A4A06F168000421234607F089FC20460090BDE8FF81C0464B
:205F3000E961000025B3000051E9000049E9000095C0000035E70000F0B5514C20780D4625
:205F5000E90BADF11C0DC90372D1A80860D2E069216A6A080ED2E80828BF85F0040580F09A
:205F70008C80680904D303F09BFF85F0100584E0002083E0868861B904F11600414A009071
:205F90004FF6FF710223012008F066FF0146216221B304A800900027019702230293FF2225
:205FB0000392E28A30460DF11203FEF7AFFB58B99DF813009DF81220216A12EB002204D0AA
:205FD0004989304606F0F8F9216AE28A08463B464FF6FF7108F0B0FF01462162A069002964
:205FF00018BF85F001051AD168B143685BB1E0698088012100229847A069E7694368B888CC
:2060100003210022984708F015F885F0010534E000200146FFF750F818B185F002050121AB
:2060300002E0022185F00205207801F09FFA24E003F044FC071C1ED038780126B03811D0C5
:20605000401E02D01F3808D011E0387978B97888F9883A8906F0B0F90AE03846FEF750FA74
:20607000064604E0397907F10800FAF7ADFA16B1384607F06BFE85F40045A8B207B0F0BD75
:2060900038070020FEFC00002DE9FC4706460C4615469A46C0B208F0FFF98146F0B208F0A2
:2060B000C9FA0646494F3079DFF82481012802D0022843D082E0BAF1020F0AD100207080C3
:2060D000308002223271B06805F0DCFE0020B06037E0308871882A1891420BDA0020708050
:2060F000308002223271B06805F0CCFE0020B0608B2061E0B3682A462146184408F0E4F804
:2061100030882D183580ADB27288954256D199F87410802917BF81297F2198F80000091AD5
:2061300049B200915346B168B878D2B208F090FE002070803080022232713FE0BAF1020F75
:206150003CD1042DB8BF8C2036DB20786178001D40EA01201F49708083B20A789A4238BF02
:206170008A2029D381B2A94238BF8B2024D380B208F06AFEB060F0B12A46214608F0A4F804
:206190007288954211D199F87410802917BF81297F2198F80000091A49B200910223B168E1
:2061B000B878D2B208F054FE08E030882D1835800121317102E0812003F072FF24B1204651
:2061D000BDE8F64705F05EBEBDE8F387684E0020704F00206B4F00202DE9F84F8046D8F81B
:2061F00008603068D8F80450076CDFF830B14764AB6B6A6C286C17F4F06F1946A0EB0209B6
:2062100034D1F8091ED2780974D3B1B196F821205846801D845C601E814294BF1C1C641E16
:206230004046214607F0F6F8A86B001BA86361D105F19800012108F0E1FB4046494607F081
:2062500093FB57E00029F8D0404607F0E3F895F82D10A86311B900284CD101E00020A86330
:2062700005F19800012108F0C9FB43E0F80A20D24FF0000A544602E0AB6B5B1EAB6393B1E5
:206290004046012107F0C6F83068446814F00F04C0F804A0F0D0286B401E2863686B401E6D
:2062B0006863A86BE8B905F19800012108F0A6FB13E0306844680022202904F00F044260BB
:2062D000CCBF4FF0200A9A464046514607F0A2F8CAF120008145C8BF81464946404607F031
:2062F00043FBEC77404605F0F3FD726A12B1404621469047B8090FD3A96A69B10F46404674
:2063100007F09FF8A86238B996F820205946895C4046C91905F0F6FCBDE8F88F44FC0000D7
:206330002DE9FC4705466E68D5F8088037780FB1B76B1FB14FF0FF30BDE8FC8731630024CF
:20635000F477171C74631BD006F13C0908F03CFB82466946484606F0B0F900281ED450460E
:2063700008F026FE9DF80000316B0870306B736B7F1E00F10100306303F101007063E5D12F
:206390007078726B316B0128A1EB0201316303D1F36828469847726B144659E0B763D8F86A
:2063B0000010086B40F400700863D8F80010886B40F4FA608863504608F0FAFD06F594706B
:2063D00007F004FD707806F5947768BB08F0FCFA96F82D1069B1716B59B1B16B49B1B463BE
:2063F00008F0E6FD06F5947007F0E0FC706BBDE8FC8708F0DDFD716806F1E805284608F0E8
:20641000AEF80028F2D0B4632846214608F0A7F80028EBD0384607F0C9FC1027716B306B8E
:20643000F777401A3063E1E708F0CEFA96F82D1061B1716B51B1B16B41B1B46308F0B8FDDC
:2064500006F19800012108F0D9FA01E008F0B0FD2046BDE8FC8770472DE9FE4F00281C46F8
:2064700000908B46019200F08180BBF1000F7DD0101C7BD0002C7ED0206A002876D0414DA8
:20649000676A281D0068002F70D0A16A08F038FD40B2071C08BF6FF0020063D020786288D5
:2064B000216A84F82C7000EB400012180C3290B288473349086030B92846406808F01CFD91
:2064D0004FF0FF304EE088466588B4F8029094F800A0D8F80060204605F074FB20780AEB64
:2064F0000907AD19BF1909EB4A01C01C80108E192860207800993F1DC01C801038602078DB
:206510000836C01C801030602278281D02F022FD28463A463346014608F092FC2278391D1D
:206530008146584602F016FD22780198311D02F011FD21786288D8F8000001EB4101521875
:20655000002103F0A9FE606A0146D8F8000088470C48406808F0D0FC4FFA89F0C1B2992909
:2065700008BF002084F82C00BDE8FE8F1CB16FF0010084F82C006FF00100BDE8FE8FC046DD
:20659000884F00209C1100202DE9F041FF2807461ED108F059F910F0070F16D0042006F01D
:2065B000F7FA08B104200AE0012006F0F1FA08B1012004E0022006F0EBFA20B10220BDE8BE
:2065D000F04106F001BB07F043FD0020BDE8F08106F0FAFA8046012FD8F80450334E04D002
:2065F000022F29D0042F3DD0EFE7022006F0D0FA80B1022006F0E8FA074601207C6806F0F6
:20661000C7FA28B1A0683118A86808F0E5FC88B13846DBE7042006F0BBFA28B1042006F05B
:20663000D3FA0746012026E0012006F0B1FA08B94FF000084046C9E7042006F0A9FA28B173
:20665000042006F0C1FA0746022014E0012006F09FFA28B1012006F0B7FA074602200AE048
:206670000220E2E7012006F093FA88B1012006F0ABFA074604207C6806F08AFA0028C7D0F8
:20669000A0683118A86808F0A7FC0028C0D1D1E7022006F07DFA30B1022006F095FA074619
:2066B00004207C68E8E70420BFE700BF589EFFFF2DE9F043454E0546307CADF14C0DA842C2
:2066D00009D13078012106F061FC3078022106F05DFC07F0AFFC6C0004EB85040E210FAA2B
:2066F00004F1200004F120075FFA80F9F8B207F0F7FB002865D10FA8FF21062207F016FD8D
:2067100000285ED168461C2203F0C6FD07A8FF21102203F0C1FD04F1230010210BAAC0B24E
:20673000804607F0DDFB90B929480778FF2110220BA807F0FBFC50B93FB99DF842000FA9F8
:2067500000F0010008F0D0FB01E00120B0740FA8FF210E2203F0A0FD48460E210FAA00F052
:20677000E7FA06461C216A4604F12100C0B200F0DFFA1C216A46064304F12200C0B200F0EF
:20679000D7FA10216A460643404600F0D1FA10216A46064304F12400C0B200F0C9FA04F150
